:020000040800F2
:10000000084C0020990100080D370008FF26000861
:1000100009370008DD090008093D0008000000005C
:1000200000000000000000000000000001010008C6
:10003000750A000800000000450100089D3800080E
:10004000B3010008B3010008B3010008B3010008C0
:10005000B3010008B3010008B3010008B3010008B0
:10006000B3010008B3010008B3010008B3010008A0
:10007000B3010008B3010008B3010008B301000890
:10008000B3010008B3010008B3010008B301000880
:10009000B3010008B3010008B3010008B301000870
:1000A000B3010008B3010008B3010008B301000860
:1000B000B3010008B3010008B3010008B301000850
:1000C000B3010008B3010008B3010008B301000840
:1000D000B3010008B3010008B3010008B301000830
:1000E000B3010008B3010008B3010008DFF80CD029
:1000F00000F064FA00480047F53E0008084C002074
:10010000224B19680868B0E8F00F80F30988BFF344
:100110006F8F4FF0000080F311884EF00D0E704786
:100120000000000006480068006880F3088862B696
:1001300061B6BFF34F8FBFF36F8F00DF00BF00BF0B
:1001400008ED00E0EFF30980BFF36F8F0F4B1A68E3
:1001500020E9F00F106008B54FF0BF0080F3118860
:10016000BFF34F8FBFF36F8F04F0BEFA4FF0000064
:1001700080F31188BDE8084019680868B0E8F00FFE
:1001800080F30988BFF36F8F704700BF1000002015
:10019000EFF3058070470000064880470648004797
:1001A000FEE7FEE7FEE7FEE7FEE7FEE7FEE7FEE727
:1001B000FEE7FEE717390008ED000008202A04DBFF
:1001C000203A21FA02F00021704721FA02F3D040D0
:1001D000C2F120029140084319467047D2B201E0B3
:1001E00000F8012B491EFBD270470022F6E710B53C
:1001F00013460A4604461946FFF7F0FF204610BD95
:100200002DE9FE4F804681EA0300C00F0C460090A6
:1002100021F0004123F00045B8EB0200A94105D2CE
:100220004046214690461C460B46024623F00040BD
:10023000104347D0270DC7F30A00C3F30A510290B9
:10024000401A019040286BDAC3F3130040F4801B7E
:100250000098924620B10023D2EB030A63EB0B0B0C
:1002600001985946C0F14002504600F028F9064670
:100270000D4650465946019A00F030F910EB08003F
:100280006141002487EA115284EAE7731A4340D09F
:10029000009A62B3019A012A4FEA075215DC001B4B
:1002A00061EB02014FF0004202EA0752CDE9004241
:1002B000001C41F5801132462B4600F030F903B0A6
:1002C000BDE8F08F40462146F9E7001B61EB0201D3
:1002D000001C41F5801300185B412018A2F500179F
:1002E00047EB030140EAD570B6196D4111E06D0886
:1002F0004FEA360645EAC0754FEA0752001B61EB2C
:100300000201001C41F5801149084FEA3000001934
:10031000514132462B4603B0BDE8F04F00F0F0B833
:100320000098012240000023D0EB020263EBE0734F
:10033000009821464FEAE074B8EB000061EB04013D
:10034000E9E783F000435BE781F0004158E72DE9DE
:10035000FE4F81EA030404F0004421F000410094C0
:100360004FF0000B23F0004350EA01045ED052EA44
:1003700003045BD0C3F30A54C1F30A552C44A4F21E
:10038000F3340194A0FB0254C1F3130141F4801132
:10039000C3F3130343F4801301FB024400FB034E39
:1003A000840A970A44EA815447EA8357A4FB076802
:1003B00002958D0A05FB07854FEA932C04FB0C542C
:1003C0002705029D4FEA065847EA1637B5EB0805A0
:1003D0006EEB070C870E920E47EA811742EA8312F2
:1003E000A7FB0201B6EB0B0164EB00042B0D43EA03
:1003F0000C335E1844EB1C50DA465146E7FB020111
:10040000C5F313044FEA0B3343EA14534FEA0432A3
:10041000019C43EA0603A4F10C040294009CCDE97C
:1004200000B400F07CF803B0BDE8F08F0020014676
:10043000F9E70EB5C10F80EAE0700844CA07002151
:1004400040F233438DE80E000A460B4600F067F891
:1004500003B000BD70B5C1F30A5201F0004500249D
:10046000C1F3130140F2FF3341F480119A4201DAE3
:10047000002070BD40F233439A42A2F2334203DCC3
:100480005242FFF79BFE00E090402C43F1D04042E7
:1004900070BD30B50B46014600202022012409E042
:1004A00021FA02F59D4205D303FA02F5491B04FA2D
:1004B00002F52844151EA2F10102F1DC30BD202A0C
:1004C00004DB203A00FA02F1002070479140C2F1AB
:1004D000200320FA03F3194390407047202A06DBDB
:1004E000CB17203A41FA02F043EAE07306E041FA02
:1004F00002F3D040C2F120029140084319467047F0
:1005000010B5141E73F1000408DA401C41F100011B
:1005100092185B411A4301D120F0010010BD2DE972
:10052000F04D92469B4611B1B1FA81F202E0B0FA69
:1005300080F220329046FFF7C2FF04460F4640EAA1
:100540000A0041EA0B0153465A46084313D01146AC
:1005500053EA010019D0C8F140025046FFF72EFEC1
:1005600005460E46504659464246FFF7A8FF084347
:1005700005D0012004E020463946BDE8F08D00207A
:10058000054346EAE0762C4337430A986305E40ABC
:10059000A0EB08000022FD0A44EA47540A3002D5C5
:1005A00000200146E9E7010510196941DDE9084528
:1005B00000196941BDE8F04DA2E70000064C074D67
:1005C00006E0E06840F0010394E807009847103423
:1005D000AC42F6D3FFF78EFD1C4D00083C4D0008E1
:1005E00008B51A4802F0B2FC194AB2F90010174ACD
:1005F000B2F9000000F016FA14490880144AB2F962
:100600000210124AB2F9020000F00CFA0F494880B9
:100610000F4AB2F904100D4AB2F9040000F002FAD0
:100620000A4988800A480A680260898881800748E8
:10063000B0F9040000900548B0F90230B0F900208C
:10064000182104A003F062FB08BD0000F847002059
:10065000D20000205B6170706C69636174696F6EB9
:100660005C4170705F666C696768742E633A2564DC
:100670005D203A25642C25642C25640A00000000C6
:100680001CB51548042100238022CDE9001013A1D8
:10069000154804F08DF81548032100238022CDE988
:1006A000001013A1174804F083F817480121002314
:1006B0008022CDE9001015A1184804F079F81848F7
:1006C000022100238022CDE9001016A1184804F071
:1006D0006FF803F0CBFF1CBDB4000020506F7765AE
:1006E00072205461736B000011370008B8000020BD
:1006F000466C69676874204D6F746F722054617323
:100700006B0000007D0A0008BC0000204C4544201E
:10071000537461747573205461736B0081320008E7
:10072000C0000020436F6D205461736B0000000017
:10073000E109000810B52048007830B101280ED03A
:1007400002281ED0032834D12CE000F03DF828B94F
:1007500001201949087000201849087029E018483C
:10076000407A012805D1022013490870002014495D
:10077000487214480078012802D103200E490870FD
:1007800017E00F48407A012804D10B490870002077
:100790000B4948720B480078012802D10320064912
:1007A000087006E0012003F047FF002002490870AE
:1007B00000BF00BF10BD0000B1000020C400002039
:1007C000DC470020B000002010B52A48007805283A
:1007D0004AD2DFE800F0033311274700264800889B
:1007E00040F28A21884206DD02202249087004F086
:1007F00003F92249086039E01F48008840F28A2145
:1008000088420EDA04F0F8F81C490968401AB0F57D
:100810007A7F03D303201749087002E000201549AE
:10082000087023E014480088642806DC0120114980
:10083000087004F0E1F81249086017E004F0DCF8F1
:100840000F490968401AB0F57A7F07D20A48008834
:10085000642806DD00200749087002E004200549ED
:10086000087003E0002010BD0120FCE700BF01205C
:10087000F9E70000C4000020DC470020C800002089
:10088000CC0000207FB511214248FFF7AEFC414863
:1008900002F008FB04462CB900203F4908703F498C
:1008A00008700EE03D480078401C3C49087008463E
:1008B0000078642805DB012037490870002037499B
:1008C000087014B1012004B070BD32480078772858
:1008D00007D130484078722803D12E4880786A28A2
:1008E00001D00120EFE7002004E02A49095C0D4413
:1008F000411CC8B20D28F8DB2648407B000625497C
:10090000897B40EA01402349C97B40EA0120214913
:10091000097C40EA0106B54201D00120D3E71D4819
:1009200000791C49C97840EA01201D49088019480E
:1009300080791849497940EA0120194948801548C9
:10094000007A1449C97940EA012015498880114884
:10095000807A1049497A40EA01201149C8800D483F
:10096000C07A08720B48007B48720846407A097AC0
:100970000B4AD2880A4B9B88CDE90032CDE90210A0
:10098000074843880288982106A003F0BFF9002099
:1009900099E70000E6470020B0000020D0000020CA
:1009A000DC4700205B6170706C69636174696F6E15
:1009B0005C4170705F726563656976655F646174E0
:1009C000612E633A25645D203A25642C25642C252C
:1009D000642C25642C25642C25640A0000BFFEE7E6
:1009E0001CB504F009F8019016E0FFF74BFF0B4827
:1009F000007A012808D10020022302460146009017
:100A00000748006803F042FFFFF794FE00BF06218D
:100A100001A803F001FF00BFE7E70000DC4700206A
:100A2000B40000202DE9FC5F83460C462046FFF70A
:100A300000FD07464FF033320C4BFFF788FC814630
:100A40008A465846FFF7F5FC07464FF03332084B0D
:100A5000FFF77DFC4A465346CDE90001FFF7D0FB86
:100A60000546FFF7F7FC00B2BDE8FC9F3333EB3FD0
:100A70003333C33F704772B600BFFEE708B503F0DB
:100A8000BBFF009002F09EFB07E0FFF7A9FD00BF4F
:100A90000621684603F0C0FE00BFF6E770B50446C5
:100AA00000F0B0F906462546681C10B104480078ED
:100AB000054400BF00F0A6F9801BA842FAD370BD20
:100AC000080000202DE9F8470346002294466EE115
:100AD0004FF0010808FA02F4D1F8008008EA040097
:100AE000A0427DD1DFF8DCA2D1F80480A8EB0A098E
:100AF000D0453AD014DCB8F1030F50D009DCB8F17E
:100B0000000F31D0B8F1010F1CD0B8F1020F49D15C
:100B100020E0B8F1110F18D0B8F1120F42D11EE049
:100B2000B9F5881F25D006DCB9F5803F20D0B9F58E
:100B3000801F37D11AE0B9F5001F18D0B9F5041F8E
:100B400030D117E0D1F80CC02DE0D1F80C8008F1BD
:100B5000040C28E0D1F80C8008F1080C23E0D1F84F
:100B60000C8008F10C0C1EE000BF00BF00BF00BFEE
:100B700000BF00BFD1F80880B8F1000F02D14FF0DC
:100B8000040C0BE0D1F80880B8F1010F03D14FF04D
:100B9000080C1C6102E04FF0080C5C6103E04FF0B0
:100BA000000C00E000BF00BFFF2801D8984601E01C
:100BB00003F104084646FF2802D84FEA820803E002
:100BC000A2F108084FEA88084746D6F800804FF09F
:100BD0000F0909FA07F928EA09080CFA07F900E0F1
:100BE00088E048EA0908C6F80080D1F8048008F0D7
:100BF0008058B8F1805F7DD100BFDFF8CC81D8F894
:100C0000188048F00108DFF8C091C9F81880C8467C
:100C1000D8F8188008F00108CDF8008000BF00BFA8
:100C20004FEAB9384FEA920958F829504FEA8278CA
:100C30004FEA18794FF00F0808FA09F825EA080575
:100C4000DFF88881434502D14FF0000816E0DFF855
:100C50008081434502D14FF001080FE0DFF8748135
:100C6000434502D14FF0020808E0DFF86C814345AC
:100C700002D14FF0030801E04FF004084FEA8279F7
:100C80004FEA197908FA09F848EA0505DFF84C81B6
:100C90004FEA920948F82950D1F8048008F48018E6
:100CA000B8F5801F0AD1DFF83881D8F8008048EA0B
:100CB0000008DFF82C91C9F8008009E0DFF82081F6
:100CC000D8F8008028EA0008DFF81491C9F80080FD
:100CD000D1F8048008F40018B8F5001F10D1DFF82F
:100CE000008108F10408D8F8008048EA0008DFF81D
:100CF000F09000E05AE009F10409C9F800800DE025
:100D0000DFF8DC8008F10408D8F8008028EA000841
:100D1000DFF8CC9009F10409C9F80080D1F804800B
:100D200008F40038B8F5003F0ED1DFF8B480A8F120
:100D30000408D8F8008048EA0008DFF8A490A9F178
:100D40000409C9F800800DE0DFF89480A8F10408D8
:100D5000D8F8008028EA0008DFF88490A9F1040997
:100D6000C9F80080D1F8048008F48038B8F5803FD5
:100D70000ED1DFF86C80A8F10808D8F8008048EAA6
:100D80000008DFF85C90A9F10809C9F800800DE0BF
:100D9000DFF84C80A8F10808D8F8008028EA00089D
:100DA000DFF83C90A9F10809C9F80080521CD1F87D
:100DB000008028FA02F8B8F1000F7FF489AEBDE890
:100DC000F8870000000011100010024000080140E8
:100DD000000C0140001001400014014008000140D7
:100DE0000804014010B5C26821EA020302EA0104C6
:100DF00043EA0443036110BD0AB1016101E00B0441
:100E0000036170470148006870470000000000203F
:100E100070B504460CB9012070BD94F83D0028B9A6
:100E2000002084F83C00204600F046FB242084F893
:100E30003D002068006820F00100216808602068FB
:100E4000006840F40040216808602068006820F4D1
:100E500000402168086000F0F7FC05465C496068C6
:100E6000884206D85B48854201D2012007E0002075
:100E700005E05948854201D2012000E00020012808
:100E800000D1C9E75548B5FBF0F62068406820F06E
:100E90003F003043216848604D496068884201D86E
:100EA000701C07E04FF4967070434FF47A71B0FBFA
:100EB000F1F0401C2168096A21F03F0108432168D4
:100EC000086243496068884214D8681E6168490016
:100ED000B0FBF1F0401CC0F30B00042801D2042049
:100EE0003DE0681E61684900B0FBF1F0401CC0F3B2
:100EF0000B0034E0A06838B9681E616801EB41015D
:100F0000B0FBF1F0401C0AE0681E616801EBC10211
:100F100002EB0111B0FBF1F0401C40F48040C0F343
:100F20000B0008B901201AE0A06848B9681E616882
:100F300001EB4101B0FBF1F0401CC0F30B000CE0F1
:100F4000681E616801EBC10202EB0111B0FBF1F018
:100F5000401CC0F30B0040F4804040F40040216886
:100F6000C9694CF6FF72914308432168C861D4E90E
:100F7000070108432168096821F0C001084321687E
:100F80000860D4E9031008432168896848F2FF32F9
:100F90009143084321688860D4E90501084321682A
:100FA000C96821F0FF0108432168C8602068006813
:100FB00040F001002168086000202064202084F8AF
:100FC0003D000020206384F83E0000BF24E70000BD
:100FD000A086010080841E0000093D0040420F00F1
:100FE0002DE9FE4F04460F4690469946DDE90CABCD
:100FF0000E9E00200290FFF705FF054694F83D0085
:10100000202872D119230122CE492046009501F0F3
:10101000EAFC10B10220BDE8FE8F00BF94F83C004E
:10102000012801D10220F6E7012084F83C0000BF2E
:101030002068006800F0010028B92068006840F0CE
:101040000100216808602068006820F400602168C1
:101050000860222084F83D00402084F83E000020F3
:101060002064C4F824A0A4F82AB0608D2085B64876
:10107000E0624B46424639462046CDE9006501F024
:101080005FFB08B10120C6E7208D88B900BF0020B2
:10109000019020684069019020688069019000BF3C
:1010A00000BF2068006840F40070216808604BE0D1
:1010B000208D01281AD12068006820F48060216802
:1010C000086072B600BF002001902068406901905E
:1010D00020688069019000BF00BF2068006840F46C
:1010E00000702168086062B62EE029E1208D022898
:1010F00019D12068006840F400602168086072B669
:1011000000BF00200190206840690190206880693C
:10111000019000BF00BF2068006820F48060216853
:10112000086062B610E02068006840F480602168C2
:10113000086000BF0020019020684069019020688D
:101140008069019000BF00BFEBE0208D03287DD8AF
:10115000208D012815D12A463146204601F01FFD79
:1011600008B1012057E720680069616A0870606A69
:10117000401C6062208D401E2085608D401E608571
:10118000CFE0208D02282CD1334600226F49204623
:10119000009501F028FC08B101203CE772B62068F8
:1011A000006840F400702168086020680069616A86
:1011B0000870606A401C6062208D401E2085608D32
:1011C000401E608562B620680069616A0870606AC6
:1011D000401C6062208D401E2085608D401E608511
:1011E0009FE03346002259492046009501F0FBFB61
:1011F00008B101200FE72068006820F480602168B2
:10120000086072B620680069616A0870606A401CF4
:101210006062208D401E2085608D401E60854C4898
:1012200000681921B0FBF1F04FF47A71B0FBF1F0D6
:10123000C0EBC00000EB8000029000BF0298401E8F
:1012400002900298A8B90020206300E039E0202035
:1012500084F83D00002084F83E00206C40F020001F
:10126000206462B600BF002084F83C0000BF01206B
:10127000D1E620684069C0F380000028DED02068F5
:10128000006840F400702168086020680069616AA5
:101290000870606A401C6062208D401E2085608D51
:1012A000401E608562B620680069616A0870606AE5
:1012B000401C6062208D401E2085608D401E608530
:1012C0002FE02A463146204601F069FC08B1012092
:1012D000A1E620680069616A0870606A401C60626B
:1012E000208D401E2085608D401E608520684069ED
:1012F000C0F38000A8B1208D032805D120680068C4
:1013000020F480602168086020680069616A0870C4
:10131000606A401C6062208D401E2085608D401EEA
:101320006085208D00287FF410AF202084F83D00D8
:10133000002084F83E0000BF84F83C0000BF6AE64D
:10134000022068E6020010000000FFFF0400010018
:101350000C0000202DE9FC5F04460F46904699469C
:10136000DDE90CAB0E9EFFF74DFD054694F83D0000
:1013700020287DD1192301224D492046009501F0F6
:1013800032FB10B10220BDE8FC9F00BF94F83C0086
:10139000012801D10220F6E7012084F83C0000BFBB
:1013A0002068006800F0010028B92068006840F05B
:1013B0000100216808602068006820F4006021684E
:1013C0000860212084F83D00402084F83E00002081
:1013D0002064C4F824A0A4F82AB0608D2085354884
:1013E000E0624B46424639462046CDE9006501F0B1
:1013F00057FA08B10120C6E731E02A4631462046B7
:1014000001F012FC50B1206C042805D1206800685E
:1014100040F40070216808600120B4E7606A007839
:1014200021680861606A401C6062208D401E208532
:10143000608D401E608520684069C0F3800070B1F7
:10144000208D60B1606A007821680861606A401C84
:101450006062208D401E2085608D401E6085208D3D
:101460000028CAD12A463146204601F089FA00E018
:101470001CE050B1206C042805D12068006840F4BD
:1014800000702168086001207DE72068006840F452
:10149000007021680860202084F83D00002084F856
:1014A0003E0000BF84F83C0000BF6CE702206AE702
:1014B000020010000000FFFF10B586B004460020B7
:1014C000029003900490059015492068884225D128
:1014D00000BF1448806940F008001249886108463E
:1014E000806900F00800019000BF00BFC02002909A
:1014F000122003900320059002A90B48FFF7E2FA9F
:1015000000BF0848C06940F400100649C861084699
:10151000C06900F40010019000BF00BF06B010BD0C
:101520000054004000100240000C014003480068D5
:101530000349097808440149086070470000002009
:101540000800002010B50848006840F01000064967
:101550000860032000F098F80F2000F007F800F072
:101560002BF8002010BD00000020024070B504469A
:101570000E4800784FF47A71B1FBF0F00C4909681D
:10158000B1FBF0F5284600F0AFFD08B1012070BDB9
:10159000102C07D200222146501E00F037F80548D3
:1015A000046001E00120F2E70020F0E708000020DD
:1015B0000C0000200400002008B500BF114880691D
:1015C00040F001000F4988610846806900F0010081
:1015D000009000BF00BF00BF0846C06940F08050C7
:1015E000C8610846C06900F08050009000BF00BF8D
:1015F00000BF0549486820F0E06040F00070486096
:1016000000BF08BD00100240000001402DE9F05F5E
:1016100080460D461646002702F088FB07463946ED
:101620002A46334601F00700C0F1070ABAF1040F59
:1016300002D94FF0040A01E0C0F1070AD14600F1D7
:10164000040ABAF1070F02D24FF0000A01E0A0F13C
:10165000030AD4464FF0010A0AFA09FAAAF1010A6C
:101660000AEA020A0AFA0CFA4FF0010B0BFA0CFB19
:10167000ABF1010B0BEA030B4AEA0B04214640468F
:1016800002F05CFBBDE8F09F00BF00F00702064BD4
:1016900019684FF6FF031940044B0B4343EA02213C
:1016A000014B196000BF70470CED00E00000FA0527
:1016B00070B504460D460CB9012070BD5A4800684B
:1016C00000F00700A8420ED25748006820F007003B
:1016D0002843554908600846006800F00700A84202
:1016E00001D00120E9E7207800F0020002281DD196
:1016F000207800F00400042805D14C48406840F4EC
:10170000E0604A494860207800F00800082805D1C8
:101710004648406840F46050444948604348406847
:1017200020F0F000A168084340494860207800F0AC
:10173000010078B36068012806D13C48006800F4D5
:10174000003090B90120B8E76068022806D1374818
:10175000006800F0007040B90120AEE7334800682F
:1017600000F0020008B90120A7E73048406820F0E7
:101770000300616808432D494860FFF743FB0646B4
:1017800009E0FFF73FFB801B41F28831884202D914
:10179000032092E707E02548406800F00C006168EC
:1017A000B0EB810FEDD12048006800F00700A8429F
:1017B0000ED91D48006820F0070028431A49086028
:1017C0000846006800F00700A84201D0012074E735
:1017D000207800F00400042807D11448406820F461
:1017E000E060E168084311494860207800F0080093
:1017F000082808D10D48406820F46050216940EA6B
:10180000C1000A49486000F03FF808494968C1F33F
:101810000311074A515CC840064908600648006841
:10182000FFF7A4FE002048E700200240001002401D
:10183000024D00080C000020040000200148006850
:10184000704700000C00002000B5FFF7F7FF0449C7
:101850004968C1F30221034A515CC84000BD000041
:1018600000100240124D000800B5FFF7E7FF0449E1
:101870004968C1F3C221034A515CC84000BD000061
:1018800000100240124D000870B500210022002413
:1018900000230020134D696801F00C05F5B1042DFB
:1018A00002D0082D19D101E00F4819E00F4DC1F306
:1018B0008346AB5D01F4803555B10A4D6D68C5F3C3
:1018C00040450B4E725D084D5D43B5FBF2F402E0FE
:1018D000084D03FB05F4204602E000BF024800BFAC
:1018E00000BF70BD0010024000127A00F04C0008EA
:1018F000004D000800093D00F8B504460CB9012070
:10190000F8BD207800F00100002878D0F848406841
:1019100000F00C0004280CD0F548406800F00C00E2
:10192000082811D1F248406800F48030B0F5803FBB
:101930000AD1EF48006800F4003000285FD06068EA
:1019400000285CD10120DBE700BF6068B0F5803F74
:1019500006D1E748006840F48030E549086028E097
:10196000606858B9E248006820F48030E0490860B7
:101970000846006820F4802008601AE06068B0F52E
:10198000A02F0BD1DA48006840F48020D8490860C5
:101990000846006840F4803008600AE0D4480068D7
:1019A00020F48030D24908600846006820F4802086
:1019B000086000BF606888B1FFF724FA054606E0BA
:1019C000FFF720FA401B642801D9032098E7C84894
:1019D000006800F400300028F2D010E0FFF712FA9F
:1019E000054606E0FFF70EFA401B642801D90320E4
:1019F00086E7BF48006800F400300028F2D1207864
:101A000000F00200022857D1B948406800F00C00ED
:101A100050B1B748406800F00C00082818D1B4480D
:101A2000406800F4803098B9B148006800F00200C6
:101A300020B12069012801D0012061E7AC4800688D
:101A400020F0F800616940EAC100A949086033E06C
:101A50002069E8B10120A7490860FFF7D3F90546DE
:101A600006E0FFF7CFF9401B022801D9032047E722
:101A70009F48006800F002000028F2D09C480068EF
:101A800020F0F800616940EAC1009949086013E05C
:101A9000002098490860FFF7B5F9054606E0FFF712
:101AA000B1F9401B022801D9032029E790480068BA
:101AB00000F002000028F2D1207800F00800082889
:101AC0002DD1A069B8B101208B490860FFF79AF9C0
:101AD000054606E0FFF796F9401B022801D90320CE
:101AE0000EE78348406A00F002000028F2D001208F
:101AF00001F020FE13E000207F490860FFF782F923
:101B0000054606E0FFF77EF9401B022801D90320B5
:101B1000F6E67748406A00F002000028F2D120780B
:101B200000F00400042873D100277148C06900F058
:101B3000805070B900BF6E48C06940F080506C4959
:101B4000C8610846C06900F08050009000BF00BF27
:101B500001276A48006800F48070B0B967480068DF
:101B600040F4807065490860FFF74CF9054606E0CF
:101B7000FFF748F9401B642801D90320C0E65F48FD
:101B8000006800F480700028F2D000BFE0680128EF
:101B900006D15748006A40F001005549086227E025
:101BA000E06858B95248006A20F0010050490862C4
:101BB0000846006A20F00400086219E0E068052881
:101BC0000BD14B48006A40F00400494908620846BE
:101BD000006A40F0010008620AE04548006A20F00F
:101BE0000100434908620846006A20F004000862C8
:101BF00000BFE068A0B1FFF705F9054609E0FFF76F
:101C000001F9401B41F28831884202D9032077E66E
:101C100022E03748006A00F002000028EFD012E00E
:101C2000FFF7F0F8054608E0FFF7ECF8401B41F23B
:101C30008831884201D9032062E62D48006A00F00D
:101C400002000028F0D1012F05D12948C06920F0F9
:101C500080502749C86100BFE069C8B32448406884
:101C600000F00C00082860D0E069022848D100206C
:101C700020490866FFF7C6F8054606E0FFF7C2F8F8
:101C8000401B022801D903203AE61948006800F0F9
:101C900000700028F2D1206AB0F5803F07D11448C7
:101CA000406820F40030A168084311494860D4E935
:101CB000080108430E49496821F4741108430C498E
:101CC000486001200B490866FFF79CF8054607E0CD
:101CD0003DE0FFF797F8401B022801D903200FE6EB
:101CE0000348006800F000700028F2D02FE00000E8
:101CF0000010024000004242800442420070004056
:101D0000002014490866FFF77DF8054606E0FFF756
:101D100079F8401B022801D90320F1E50E4800683C
:101D200000F000700028F2D111E0E069012800D134
:101D3000E6E50948466806F48031206A814204D10C
:101D400006F47011606A814201D00120D8E50020BC
:101D5000D6E50000000042420010024010B50446E3
:101D60000CB9012010BD606A38B96068B0F5827F97
:101D700000D105E00021E16102E000212161616103
:101D80000021A16294F8510028B9002084F8500085
:101D9000204600F043F8022084F8510020680068D3
:101DA00020F0400021680860A08800F4827021893A
:101DB00001F404410843A18901F400610843217C36
:101DC00001F002010843217D01F001010843218B4C
:101DD00001F400710843217F01F0380108432021FC
:101DE000095D01F080010843218D01F40051084391
:101DF000216808600421A06901EA10402168486058
:101E00002068C06920F400602168C8610020606516
:101E1000012084F851000020A4E7000010B586B02E
:101E20000446002002900390049005901949206810
:101E300088422DD100BF1848806940F4805016496F
:101E400088610846806900F48050019000BF00BF9F
:101E500000BF0846806940F0040088610846806938
:101E600000F00400019000BF00BFA02002900220FB
:101E700003900320059002A90848FEF723FE4020A6
:101E8000029000200390049002A90448FEF71AFE75
:101E900006B010BD003001400010024000080140B3
:101EA0002DE9FE4F04460F4690461D460C9E01202C
:101EB0000190FEF7A7FF814694F851B06068029048
:101EC000AA46BBF1010F0BD00298B0F5827F04D176
:101ED000A06810B9BBF1040F02D00220BDE8FE8F4C
:101EE0001FB1B8F1000F00D00DB90120F6E700BF17
:101EF00094F85000012801D10220EFE7012084F876
:101F0000500000BF94F85100042802D0052084F846
:101F1000510000206065C4F83880E587A5872763F5
:101F2000E586A586206460642068006800F04000B3
:101F3000402805D02068006840F040002168086013
:101F4000E068B0F5006F52D1606810B1BAF1010FCE
:101F500009D1206B00882168C860206B801C206339
:101F6000E08E401EE0863BE02068806800F00200C2
:101F7000022810D1E08E70B1019801280BD1206B9E
:101F800000882168C860206B801C2063E08E401EA2
:101F9000E086002001902068806800F0010068B1B0
:101FA000E08F58B12068C068A16B0880A06B801CCE
:101FB000A063E08F401EE08701200190FEF722FF22
:101FC000A0EB0900B0420BD3701C48B1012084F88B
:101FD000510000BF002084F8500000BF03207DE7BF
:101FE000E08E0028C0D1E08F0028BDD152E06068AB
:101FF00010B1BAF1010F09D1206B00782168087384
:10200000206B401C2063E08E401EE0863CE0206890
:10201000806800F00200022810D1E08E70B10198B3
:1020200001280BD1206B007821680873206B401CBD
:102030002063E08E401EE0860020019020688068CA
:1020400000F0010068B1E08F58B12068C068A16B52
:102050000870A06B401CA063E08F401EE087012049
:102060000190FEF7CFFEA0EB0900B04201D3701C37
:1020700000B94EB9012084F8510000BF002084F857
:10208000500000BF032029E7E08E0028BFD1E08F79
:102090000028BCD14A463146204601F05FFB40B1E2
:1020A0002020606500BF002084F8500000BF0120A0
:1020B00014E7A06850B900BF002000902068C068F5
:1020C000009020688068009000BF00BF012084F865
:1020D000510000BF002084F8500000BF606D08B1BF
:1020E0000120FBE60020F9E670B504462546681E8F
:1020F000B0F1807F01D301200FE0681E4FF0E02196
:1021000048610F214FF0FF3001F018FE00204FF022
:10211000E021886107200861002070BD10B50346EA
:10212000002200BF93F83C00012801D1022010BD1D
:10213000012083F83C0000BF22F0FF00CC6840EA99
:10214000040222F440708C6840EA040222F48060A9
:102150004C6840EA040222F400600C6840EA040281
:1021600022F480500C6940EA040222F400504C69C9
:1021700040EA040222F48040CC6940EA0402186874
:10218000426400BF002083F83C0000BF00BFCEE7E0
:1021900030B502460B4600BF92F83C00012801D141
:1021A000022030BD012082F83C0000BF022082F8EE
:1021B0003D00106844681068816824F07004186855
:1021C000044310684460104D1068A8420BD010689A
:1021D000B0F1804F07D00D4D1068A84203D00C4DD0
:1021E0001068A84205D121F08001586801431068A9
:1021F0008160012082F83D0000BF002082F83C0091
:1022000000BF00BFCDE70000002C014000040040EB
:102210000008004010B586B00446002002900390EC
:10222000049005903C492068884217D100BF3B4884
:10223000806940F00400394988610846806900F0EF
:102240000400019000BF00BF081502900220039017
:10225000059002A93248FEF735FC5BE02068B0F13A
:10226000804F16D100BF2D48806940F004002B49F3
:1022700088610846806900F00400019000BF00BF3B
:10228000022002900390059002A92548FEF71AFC4F
:1022900040E024492068884221D100BF1F4880695E
:1022A00040F008001D4988610846806900F0080078
:1022B000019000BF00BF1020029002200390059003
:1022C00002A91948FEF7FEFB00BF1849486820F430
:1022D000406040F0E06040F4006048601AE014495B
:1022E0002068884216D100BF0C48806940F0080081
:1022F0000A4988610846806900F00800019000BF23
:1023000000BF4815029002200390059002A90648DC
:10231000FEF7D8FB06B010BD002C014000100240B3
:102320000008014000040040000C01400000014092
:10233000000800402DE9F04104460D4616460027EE
:1023400000BF94F83C00012802D10220BDE8F081D2
:10235000012084F83C0000BF36B1042E1BD0082EAB
:1023600031D00C2E5ED145E02946206801F016FBE5
:102370002068806940F008002168886120688069D1
:1023800020F0040021688861206880692969084379
:102390002168886148E02946206801F02FFB206809
:1023A000806940F40060216888612068806920F4B9
:1023B00080602168886120688069296940EA01207D
:1023C0002168886130E02946206801F04BFB2068D5
:1023D000C06940F008002168C8612068C06920F029
:1023E00004002168C8612068C06929690843216820
:1023F000C86119E02946206801F068FB2068C069BF
:1024000040F400602168C8612068C06920F48060E1
:102410002168C8612068C069296940EA01202168F3
:10242000C86101E0012700BF00BF00BF002084F8A1
:102430003C0000BF384689E710B504460CB90120BE
:1024400010BD94F83D0028B9002084F83C002046D7
:1024500000F026F8022084F83D00211D206801F0DC
:102460005BFA012084F8460000BF84F83E00012199
:102470003F200155402001554120015500BF00BFBC
:10248000012084F842004320015544200155452095
:10249000015500BF012084F83D000020D0E7000076
:1024A00008B5244A016891420DD100BF22498969CB
:1024B00041F40061204A91611146896901F400618B
:1024C000009100BF35E00168B1F1804F0DD100BF30
:1024D0001949C96941F00101174AD1611146C96919
:1024E00001F00101009100BF23E0144A016891420C
:1024F0000DD100BF1049C96941F002010E4AD161F6
:102500001146C96901F00201009100BF11E00C4AB7
:10251000016891420DD100BF0749C96941F004012A
:10252000054AD1611146C96901F00401009100BF5B
:1025300000BF08BD002C0140001002400004004014
:102540000008004010B504460CB9012010BDA06978
:1025500000B100E000BF94F8410028B9002084F8E1
:102560004000204600F02AF8242084F8410020682A
:10257000C06820F400502168C860204601F000FBCC
:102580002068006920F49040216808612068406953
:1025900020F02A00216848612068C06840F400509B
:1025A0002168C86000206064202084F8410084F81D
:1025B00042000020606300BFC8E7000010B586B08D
:1025C0000446002002900390049005901949206869
:1025D00088422DD100BF1848C06940F40030164928
:1025E000C8610846C06900F40030019000BF00BF18
:1025F00000BF0846806940F0040088610846806991
:1026000000F00400019000BF00BF042002900220EF
:1026100003900320059002A90848FEF753FA08200A
:10262000029000200390049002A90448FEF74AFAA1
:1026300006B010BD004400400010024000080140F8
:102640002DE9F84F04460E46174699464FF0000A0A
:1026500094F84100202850D106B117B90120BDE8F7
:10266000F88F00206064212084F84100FEF7CAFB47
:102670008246A784E784A068B0F5805F04D1206912
:1026800010B90025B04602E035464FF000081EE0C4
:102690005346002280212046CDF8009001F0EEFA4A
:1026A00020B1202084F841000320D8E745B9B8F8CC
:1026B0000000C0F308002168486008F1020803E048
:1026C0002878216848606D1CE08C401EE084E08C16
:1026D0000028DDD15346002240212046CDF800904D
:1026E00001F0CCFA20B1202084F841000320B6E7A5
:1026F000202084F841000020B1E70220AFE700BFAE
:10270000FEE7014608684069C0F38020B0B16FF46D
:1027100080600A68506100200863202081F83D0035
:10272000002081F83E00086C40F00400086400BFFF
:10273000002081F83C0000BF012070470020FCE72A
:102740002DE9F84304460F4615469946DDE908860B
:102750002068006840F48060216808602068006894
:1027600040F4807021680860434600224FF0011158
:102770002046009600F037F960B12068006800F448
:102780008070B0F5807F02D14FF400702064032088
:10279000BDE8F88307F0FE00216808613346424631
:1027A0003E49204600F07EF908B10120F0E700BF65
:1027B00000200090206840690090206880690090A7
:1027C00000BF00BF32464146204600F02DFA50B10E
:1027D000206C042805D12068006840F4007021684E
:1027E00008600120D4E7B9F1010F03D1E8B22168F4
:1027F000086117E0C5F307202168086132464146A9
:10280000204600F011FA50B1206C042805D1206850
:10281000006840F40070216808600120B8E7E8B261
:102820002168086132464146204600F0FDF950B16A
:10283000206C042805D12068006840F400702168ED
:1028400008600120A4E72068006840F480702168D7
:102850000860434600224FF001112046009600F028
:10286000C2F858B12068006800F48070B0F5807F2D
:1028700002D14FF400702064032089E7F8B240F0E1
:10288000010021680861334642460449204600F0B1
:1028900009F908B101207BE7002079E70200010077
:1028A0002DE9F8430446884615469946DDE9086750
:1028B0002068006840F48070216808603346002278
:1028C0004FF001112046009700F08DF860B12068AC
:1028D000006800F48070B0F5807F02D14FF4007082
:1028E00020640320BDE8F88308F0FE002168086139
:1028F0003B4632462149204600F0D4F808B1012079
:10290000F0E700BF00200090206840690090206838
:102910008069009000BF00BF3A463146204600F073
:1029200083F950B1206C042805D12068006840F478
:102930000070216808600120D4E7B9F1010F03D1CC
:10294000E8B22168086117E0C5F307202168086133
:102950003A463146204600F067F950B1206C042811
:1029600005D12068006840F40070216808600120EB
:10297000B8E7E8B2216808610020B3E7020001006F
:1029800070B504460D46164625E02046FFF7B9FE11
:1029900008B1012070BD681CE8B1FEF733FA801B56
:1029A000A84200D8BDB920684069C0F3800090B942
:1029B00000202063202084F83D00002084F83E00A1
:1029C000206C40F02000206400BF002084F83C0010
:1029D00000BF0120DEE720684069C0F380000028C6
:1029E000D3D00020D6E72DE9F04104460D46174626
:1029F0001E46DDF8188038E0701CA8B3FEF702FA16
:102A0000A0EB0800B04200D876BBC5F30740012810
:102A10000AD120684069A9B20840A9B2884201D110
:102A200001200BE0002009E020688069A9B208407D
:102A3000A9B2884201D1012000E00020B84214D19F
:102A400000202063202084F83D00002084F83E0010
:102A5000206C40F02000206400BF002084F83C007F
:102A600000BF0120BDE8F081FFE7C5F30740012862
:102A70000AD120684069A9B20840A9B2884201D1B0
:102A800001200BE0002009E020688069A9B208401D
:102A9000A9B2884201D1012000E00020B842ABD0A9
:102AA0000020DFE72DE9F04104460D4616461F469B
:102AB00058E020684069C0F38020E8B120680068D1
:102AC00040F40070216808606FF4806021684861FC
:102AD00000202063202084F83D00002084F83E0080
:102AE000206C40F00400206400BF002084F83C000B
:102AF00000BF0120BDE8F081701C90B3FEF782F9A1
:102B0000C01BB04200D866BBC5F3074001280AD1FC
:102B100020684069A9B20840A9B2884201D10120C9
:102B20000BE0002009E020688069A9B20840A9B242
:102B3000884201D1012000E0002090B900202063EC
:102B4000202084F83D00002084F83E00206C40F0F6
:102B50002000206400BF002084F83C0000BF01205A
:102B6000C8E7FFE7C5F3074001280AD1206840699C
:102B7000A9B20840A9B2884201D101200BE000208F
:102B800009E020688069A9B20840A9B2884201D151
:102B9000012000E0002000288BD00020AAE770B5BB
:102BA00004460D46164637E020684069C0F3001021
:102BB000A0B16FF010002168486100202063202040
:102BC00084F83D00002084F83E00206C206400BFA3
:102BD000002084F83C0000BF012070BDFEF712F910
:102BE000801BA84200D8BDB920684069C0F380109E
:102BF00090B900202063202084F83D00002084F854
:102C00003E00206C40F02000206400BF002084F8CB
:102C10003C0000BF0120E0E720684069C0F380105D
:102C20000028C1D00020D8E770B504460D461646EE
:102C300025E02046FFF765FD08B1012070BD681C46
:102C4000E8B1FEF7DFF8801BA84200D8BDB92068C4
:102C50004069C0F3C01090B900202063202084F8A0
:102C60003D00002084F83E00206C40F020002064ED
:102C700000BF002084F83C0000BF0120DEE7206890
:102C80004069C0F3C0100028D3D00020D6E7000070
:102C900010B5002204210E48FEF7AEF8642001F0C2
:102CA000CBFC012204210A48FEF7A6F8C82001F057
:102CB000C3FC002204210648FEF79EF8642001F0C0
:102CC000BBFC012204210248FEF796F810BD00006B
:102CD000000C014010B5002204210648FEF78CF8D4
:102CE000642001F0A9FC012204210248FEF784F8C7
:102CF00010BD0000000C014010B50446A18801225F
:102D00002068FEF779F810BD10B50446A1880022AE
:102D10002068FEF771F810BD10B50446A188206840
:102D2000FEF760F810BD000010B505220E49102016
:102D300000F07EF805220D49302000F0CDF8052284
:102D40000949102000F074F8002109E00648405CB1
:102D5000064A525C904201D0012010BD481CC1B20D
:102D60000529F3DB0020F8E7DD000020D800002073
:102D700010B5C820FDF792FE02E00A20FDF78EFE96
:102D8000FFF7D2FF0128F8D000F020F8E42102A0DC
:102D900000F0BCFF10BD00005B696E746572666177
:102DA00063655C496E745F5349323452312E633A25
:102DB00025645D2053493234523120696E69742094
:102DC000737563636573730A0000000010B5002219
:102DD0004FF480711448FEF70FF8052213492A209A
:102DE00000F07AF80121212000F098F8012122203A
:102DF00000F094F82821252000F090F811213120CE
:102E000000F08CF80621262000F088F80F21202001
:102E100000F084F8FF21272000F080F80122110241
:102E20000148FDF7E9FF10BD00080140D80000206F
:102E30002DE9F04107460D461646002210210C48A8
:102E4000FDF7DAFF384600F0ABFC8046002405E0D1
:102E5000002000F0A5FC2855601CC4B2B442F7DB8A
:102E6000012210210248FDF7C7FF4046BDE8F0816E
:102E70000008014070B50446002210210848FDF703
:102E8000BBFF204600F08CFC002000F089FC0546CA
:102E9000012210210248FDF7AFFF284670BD000057
:102EA0000008014070B504460720FFF7E3FF054620
:102EB0002946272000F032F805F0400050B11122D9
:102EC00021466120FFF7B4FFFF21022000F026F821
:102ED000002070BD0120FCE72DE9F04107460C46BB
:102EE0001546002210210C48FDF786FF384600F0F9
:102EF00057FC8046002605E014F8010B00F050FC5A
:102F0000701CC6B2AE42F7DB012210210248FDF769
:102F100073FF4046BDE8F0810008014070B50546EA
:102F20000C46002210210848FDF766FF284600F0F5
:102F300037FC0646204600F033FC012210210248EF
:102F4000FDF75AFF304670BD0008014010B5044639
:102F5000204600F0F1F8A01D00F0A8F810BD000018
:102F60002DE9F04F87B00020059006900390049063
:102F7000824603A800F09AF83AE005A800F096F817
:102F8000BDF91430BDF90CC0A3EB0C02002A01DB23
:102F9000134600E05342B3F5C87F20DABDF916307E
:102FA000BDF90EC0A3EB0C01002901DB0B4600E0CC
:102FB0004B42B3F5C87F12DABDF91830BDF910C025
:102FC000A3EB0C00002801DB034600E04342B3F50D
:102FD000C87F04DA0AF1010000F0FF0A01E04FF0B7
:102FE000000ADDE90501CDE90301062001F024FB1B
:102FF000BAF1640FC1DB0020009001900290002420
:103000000025002600278046814683461DE068464D
:10301000FFF79CFFBDF900000444BDF90200054420
:10302000BDF904000644BDF914000744BDF91600BB
:103030008044BDF91800A0F580408144062001F0CD
:10304000FBFA0BF1010000F0FF0BBBF1640FDEDBBC
:10305000642094FBF0F00F490860642095FBF0F0C9
:103060000D490860642096FBF0F00C49086064206C
:1030700097FBF0F00A490860642098FBF0F00949DA
:103080000860642099FBF0F00749086007B0BDE8CC
:10309000F08F0000E4000020E8000020EC00002099
:1030A000F0000020F4000020F80000201CB50446C9
:1030B00000200190009001A93B2000F0BBF8694678
:1030C0003C2000F0B7F89DF800009DF8041040EA9D
:1030D000012016490988401A00B2208001A93D202C
:1030E00000F0A8F869463E2000F0A4F89DF8000022
:1030F0009DF8041040EA01200D490988401A00B2E9
:10310000608001A93F2000F095F86946402000F05A
:1031100091F89DF800009DF8041040EA012005494F
:103120000988401A00B2A0801CBD0000F0000020F9
:10313000F4000020F80000201CB504460020019097
:10314000009001A9432000F075F86946442000F082
:1031500071F89DF800009DF8041040EA012016491E
:103160000988401A00B2208001A9452000F062F8C9
:103170006946462000F05EF89DF800009DF80410B6
:1031800040EA01200D490988401A00B2608001A977
:10319000472000F04FF86946482000F04BF89DF8B2
:1031A00000009DF8041040EA012005490988401AF2
:1031B00000B2A0801CBD0000E4000020E800002058
:1031C000EC00002008B580216B2000F045F80020BD
:1031D000009003E069466B2000F02CF89DF8000099
:1031E0004028F7D100216B2000F036F818211B2071
:1031F00000F032F800211C2000F02EF800213820C9
:1032000000F02AF800216A2000F026F80121192098
:1032100000F022F801211A2000F01EF801216B2095
:1032200000F01AF800216C2000F016F8FFF798FE65
:1032300008BD00003EB504460D464FF47A700121EA
:103240000B462246CDE900510290D1210148FDF7FD
:10325000C7FE3EBD0001002013B584B004464FF404
:103260007A70012105AA0B46CDE900210290224681
:10327000D0210248FEF76EF806B010BD0001002014
:1032800008B501F0B9FB0090002452E0601CC4B204
:103290002848007830B92848FFF736FD2748FFF75F
:1032A00033FD09E023480078012805D12248FFF7C3
:1032B00023FD2248FFF720FD2148007830B1012886
:1032C00011D002281DD0032829D121E0052094FB2C
:1032D000F0F100FB114028B91A48FFF71DFD1A480C
:1032E000FFF71AFD1BE0204604EBD0714910A4EB58
:1032F000410129B91348FFF70FFD1348FFF70CFDF3
:103300000DE01048FFF700FD0F48FFF7FDFC06E059
:103310000C48FFF7F1FC0C48FFF7EEFC00BF00BFC4
:103320000A2C00D1002400BF6421684601F074FA21
:1033300000BFABE7B0000020900000209800002004
:10334000B1000020A0000020A800002000B585B03A
:103350000020019002900390049000BF30488069E3
:1033600040F010002E4988610846806900F0100086
:10337000009000BF00BF00BF0846806940F02000F9
:1033800088610846806900F02000009000BF00BFFF
:1033900000BF0846806940F00400886108468069E3
:1033A00000F00400009000BF00BF00BF0846806925
:1033B00040F0080088610846806900F0080000902D
:1033C00000BF00BF012241F610011648FDF714FDB1
:1033D00001224CF204011448FDF70EFD00224FF4C7
:1033E00080711048FDF708FD41F610100190012092
:1033F0000290002003900220049001A90948FDF7E3
:1034000061FB4CF204000190012002900020039027
:103410000220049001A90448FDF754FB05B000BD4B
:103420000010024000080140000C014010B50B489C
:103430000B4908600B484860002109488160C16061
:103440004FF480410161002141618161C1610162EC
:10345000FDF7DEFC08B1FDF70EFB10BD0054004087
:1034600000010020801A060010B50E480E490860C1
:103470004FF48270486000210B488160C160016197
:1034800041614FF4007181611021C161002101622D
:10349000416281620A21C162FEF760FC08B1FDF75A
:1034A000EAFA10BD003001405401002000B591B08F
:1034B00000200F9010901C2108A8FCF796FE2021F8
:1034C0006846FCF792FE23482349086003204860C1
:1034D00000212148816040F2E731C1600021016193
:1034E00041618161FEF7A8FF08B1FDF7C4FA002031
:1034F0000F9010900FA91848FEF74AFE08B1FDF78B
:10350000BAFA60200890C820099000200A900B9019
:103510000C900D900E90082208A90F48FEF70AFFA4
:1035200008B1FDF7A8FA00200090019002900390E6
:1035300004904FF40050059000200790694606481B
:10354000FEF7ECFD08B1FDF796FA0348FEF762FEC0
:1035500011B000BD002C0140AC01002000B589B0C5
:103560000020079008901C216846FCF73EFE4FF0B3
:103570008040184908600320486000211548816098
:1035800040F2E731C160002101618161FEF754FF23
:1035900008B1FDF770FA00200790089007A90D48C0
:1035A000FEF7F6FD08B1FDF766FA60200090C8202E
:1035B0000190002002900490042269460548FEF71D
:1035C000B9FE08B1FDF757FA0248FEF723FE09B02D
:1035D00000BD0000F401002000B589B00020079074
:1035E00008901C216846FCF700FE1848184908603E
:1035F0000320486000211648816040F2E731C16035
:10360000002101618161FEF717FF08B1FDF733FA70
:1036100000200790089007A90D48FEF7B9FD08B1F2
:10362000FDF729FA60200090C82001900020029048
:103630000490002269460648FEF77CFE08B1FDF7BB
:103640001AFA0348FEF7E6FD09B000BD0004004089
:103650003C02002000B589B00020079008901C2192
:103660006846FCF7C2FD1848184908600320486006
:1036700000211648816040F2E731C16000210161FC
:103680008161FEF7D9FE08B1FDF7F5F9002007903A
:10369000089007A90D48FEF77BFD08B1FDF7EBF98F
:1036A00060200090C82001900020029004900C221D
:1036B00069460648FEF73EFE08B1FDF7DCF903480F
:1036C000FEF7A8FD09B000BD0008004084020020FC
:1036D00010B50B480B4908604FF4E13048600021F9
:1036E00008488160C16001610C2141610021816154
:1036F000C161FEF727FF08B1FDF7BDF910BD00005D
:1037000000440040CC02002000BFFEE700BFFEE7FF
:1037100001F072F90DE042F210720121002000F078
:10372000B5FE044614B1FFF7B3FA01E0FFF7D2FA91
:1037300000BFF0E708B508490968C9084FF47A7274
:10374000B1FBF2F14143009100BF00BF00994A1E56
:1037500000920029F9D108BD0C000020F8B50446FC
:103760000E4615463346012202212046009500F000
:1037700029F828B1606D40F0200060650320F8BD95
:103780003346002280212046009500F01BF828B126
:10379000606D40F0200060650320F0E70020EEE758
:1037A00001B582B000200190FF20012301AA02A9E7
:1037B00000900348FEF774FB9DF804000EBD000066
:1037C000540100202DE9F84F04460D4690461E4650
:1037D000DDF82890FDF716FBA0EB0900371AFDF77E
:1037E00011FB82462C480068C0F3CB307843009030
:1037F00045E0701C002842D0FDF704FBA0EB0A0056
:10380000B84200D2A7BB2068406820F0E0002168E1
:1038100048606068B0F5827F0DD1A068B0F5004FB8
:1038200003D0A068B0F5806F05D12068006820F053
:10383000400021680860A06AB0F5005F0DD100BFAC
:103840002068006820F40050216808602068006843
:1038500040F400502168086000BF012084F8510046
:1038600000BF002084F8500000BF0320BDE8F88F9F
:10387000FFE7009800B900270098401E00902068DC
:1038800080682840A84201D1012000E00020404586
:10389000AFD10020EAE700000C00002010B501F0D5
:1038A0009BF8012801D000F069FFFDF73FFE10BD35
:1038B00000B58FB0282105A8FCF797FC14216846B5
:1038C000FCF793FC0120059000040690002007906F
:1038D0000120099002200C90C1030D914FF4E011DA
:1038E0000E9105A8FEF708F808B1FDF7C4F80F20FF
:1038F000009002200190002002904FF4806003901D
:103900000020049002216846FDF7D2FE08B1FDF7C1
:10391000B2F80FB000BD704710B502681C4B98425A
:1039200008D0B0F1804F05D01A4B984202D01A4B04
:10393000984203D122F070024B681A43144B98420C
:1039400008D0B0F1804F05D0124B984202D0124BF4
:10395000984203D122F44072CB681A4322F08003CC
:103960004C6943EA040202608B68C3620B6883629D
:10397000074B984201D10B6903630123436103693B
:1039800003F001031BB1036923F00103036110BDC0
:10399000002C0140000400400008004030B5026ADD
:1039A000056A25F0010505624368846924F0700406
:1039B00024F003040D682C4322F002028D682A4390
:1039C0000D4DA84206D100BF22F00802CD682A435F
:1039D00022F00402084DA84207D123F4807323F497
:1039E00000734D692B438D692B43436084614D689F
:1039F0004563026230BD0000002C014030B5026A10
:103A0000056A25F0100505624368846924F4E044E2
:103A100024F440740D6844EA052422F020028D68E5
:103A200042EA05120E4DA84207D100BF22F08002E3
:103A3000CD6842EA051222F04002094DA84209D1A0
:103A400023F4806323F400634D6943EA85038D69A1
:103A500043EA8503436084614D688563026230BD3B
:103A6000002C014030B5026A056A25F480750562B4
:103A70004368C46924F0700424F003040D682C43E7
:103A800022F400728D6842EA05220F4DA84207D148
:103A900000BF22F40062CD6842EA052222F480626F
:103AA000094DA84209D123F4805323F400534D69F2
:103AB00043EA05138D6943EA05134360C4614D6809
:103AC000C563026230BD0000002C014030B5036ABE
:103AD000056A25F4805505624468C26922F4E04213
:103AE00022F440720D6842EA052223F400538D68E7
:103AF00043EA0533064DA84204D124F480444D69BD
:103B000044EA85144460C2614D680564036230BDB7
:103B1000002C014000BF00BF02680C3252E8002FA9
:103B200022F4907102680C3242E80013002BF3D1AA
:103B300000BF00BF00BF0268143252E8002F22F01D
:103B400001010268143242E80013002BF3D100BFD8
:103B5000016B01290ED100BF00BF02680C3252E890
:103B6000002F22F0100102680C3242E80013002BF3
:103B7000F3D100BF202180F842100021016370477B
:103B800070B504462168096921F44051E268114387
:103B9000226811612269A1681143626941EA020544
:103BA0002168C96841F20C62914329432268D160BF
:103BB0002168496921F44071A26911432268516169
:103BC0002D4A2168914202D1FDF74EFE01E0FDF73A
:103BD0003BFE00EBC00101EB001162689200B1FBFB
:103BE000F2F100EBC00202EB001263689B00B2FB33
:103BF000F3F26423B2FBF3F202EBC20303EB021213
:103C0000A1EB8201322202EB01116422B1FBF2F13D
:103C100001F0F00100EBC00202EB001263689B00B0
:103C2000B2FBF3F26423B2FBF3F201EB021200EBFE
:103C3000C00101EB001163689B00B1FBF3F100EBE5
:103C4000C00303EB00136668B600B3FBF6F364260B
:103C5000B3FBF6F303EBC30606EB0313A1EB8301FF
:103C6000322303EB01116423B1FBF3F101F00F01E7
:103C700011442268916070BD003801402DE9F8437D
:103C800004460D4617469846089E31E0701C70B3F6
:103C9000FDF7B8F8A0EB0800B04200D816B9032031
:103CA000BDE8F8832068C06800F00400F8B1802DFA
:103CB0001ED0402D1CD020680068C0F3C000B0B1F9
:103CC00000BF0020009020680068009020684068D5
:103CD000009000BF00BF2046FFF71CFF0820606473
:103CE00000BF002084F8400000BF0120D8E7FFE7B4
:103CF000206800682840A84201D1012000E000208F
:103D0000B842C3D00020CBE700BFFEE70FB4054B9D
:103D100010B503A9044A029800F034F810BC5DF80D
:103D200014FB0000D93E0008FC0000200248006897
:103D3000C0F30220704700000CED00E010B5002831
:103D400004DB0A07130E054A135406E00A07140E93
:103D5000034A00F00F031B1FD45410BD00E400E021
:103D600018ED00E002E008C8121F08C1002AFAD1CD
:103D700070477047002001E001C1121F002AFBD1EB
:103D8000704700002DE9FF4F89B09B46044600258F
:103D900006E025280BD05A460B999047641C6D1CF1
:103DA00020780028F5D10DB02846BDE8F08F002717
:103DB000B8460122474900E0074314F8013F203B81
:103DC00002FA03F00842F7D120782E2819D114F80E
:103DD000010F47F004072A280ED06FF02F02207839
:103DE000A0F1300109290CD808EB880102EB410150
:103DF00000EB0108641CF2E70A98641C50F8048B7D
:103E00000A9020780028CED0642808D0692806D0EF
:103E100075281ED05A460B9990476D1C58E00A9998
:103E20004FF00A0901C90A91002802DA40422D2107
:103E300002E0390504D52B218DF82010012103E083
:103E4000F90704D02021F7E78A4608AE0DE00021EB
:103E5000FAE70A994FF00A0901C90A91F7E74946BA
:103E6000FCF717FB303106F8011D0028F7D1ADEB48
:103E7000060000F12009780701D44FF00108C84579
:103E800002DDA8EB090000E000208046002706E0E4
:103E900008A85A46C05D0B9990476D1C7F1C57457A
:103EA000F6DB04E030205A460B9990476D1CB8F1C0
:103EB0000001A8F10108F5DC05E016F8010B5A46EF
:103EC0000B9990476D1CB9F10001A9F10109F4DCCF
:103ED000641C65E70928010013B50C464FF0FF3359
:103EE000012269460248FEF7ABFB00981CBD0000AA
:103EF000CC020020FDF726FBFFF7DAFCFFF726FADD
:103F0000FFF7E6FBFFF7D2FAFFF728FBFFF764FBAA
:103F1000FFF7A0FBFFF7A8FAFFF788FA6C2104A0CF
:103F2000FFF7F4FEFEF724FFFCF7AAFB00BFFEE755
:103F30005B2E2E2F436F72652F5372632F6D616955
:103F40006E2E633A25645D2048656C6C6F2C20579B
:103F50006F726C64210D0A002DE9F04105460E4692
:103F60002648076826480068001D00F0D3FA50B9BB
:103F70002348006890F82C100120884021490968E6
:103F8000814320480160681CD8B9D6B11E494868F1
:103F90001B49096888601A4982680968CA6018491B
:103FA0000968091D8268516015490968091D816009
:103FB000154A134909684A6111460968491C11608C
:103FC0001AE07C190E4800684460BC4207D20C48D5
:103FD0000168091D0D48006800F0C0FA0CE00848AF
:103FE0000168091D0A48006800F0B8FA094800682D
:103FF000844201D207480460BDE8F081240000201B
:104000001000002028000020C80300201800002015
:10401000140000204000002010B5044600F0B8FA5B
:104020002F480068401C2E4908602E48006840B99F
:104030002C4804600846006801280DD100F016F9EC
:104040000AE02948006838B926480068C06AE16A71
:10405000884201D82348046024480068401C234952
:10406000086094F82C100120884021490968084311
:104070001F490860E16A01EB81011E4A02EB8101E0
:104080004868A0608268E260211D8268516081609A
:10409000E16A01EB8101174A02EB81026261E16A88
:1040A00001EB8101134A52F82110491CE26A02EB2C
:1040B0008202104B43F8221000F07CFA0A48006894
:1040C00068B108480068C06AE16A884207D24FF0C8
:1040D000805009490860BFF34F8FBFF36F8F10BD49
:1040E00020000020100000202C0000203C000020B8
:1040F000280000201403002004ED00E010B516E0B5
:1041000000F046FA0C48C068C468201D00F002FAAE
:104110000A480068401E0949086009480068401EB6
:104120000749086000F046FA204600F00BF8044802
:1041300000680028E4D110BDB40300202000002056
:104140001C00002010B50446206B00F043FA204606
:1041500000F040FA10BD000030B54FF48843154818
:1041600000F007042CB1C01D20F00700114C041B07
:104170001B1B0246104C226000240F4D6C60D018AF
:10418000083820F007000D4C206000240B4D2D68EE
:104190006C600A4D2D682C601146441A4C60074C27
:1041A00024680C60064D4C682C60064D4C682C60F1
:1041B00030BD0000DC03002050000020580000202B
:1041C000600000205C00002000BFFFF797FF06485A
:1041D00000680128F9D94FF0805004490860BFF306
:1041E0004F8FBFF36F8FF0E71403002004ED00E062
:1041F0002DE9FF5F80460E469146DDE90E7A109C60
:10420000A9F10100216B01EB800B2BF0070B7EB1B4
:10421000002507E0715D04F134004155705D00B97F
:1042200002E06D1C102DF5D300BF00214320015585
:10423000052F00D30427E762201D00F08CF904F15C
:10424000180000F088F92461C7F10500A0616462DC
:1042500041465846039A00F007F92060BAF1000F72
:1042600001D0CAF80040BDE8FF9F000010B500244F
:1042700007E004EB84010F4A02EB810000F05EF9D5
:10428000641C052CF5D30C4800F058F90B4800F0DD
:1042900055F90B4800F052F90A4800F04FF90A4866
:1042A00000F04CF9044809490860044808490860CE
:1042B00010BD000014030020780300208C030020B0
:1042C000A0030020B4030020C80300201400002035
:1042D0001800002010B50146164800E00068036889
:1042E0008B42FBD30246436813448B4204D143689C
:1042F0004C682344436001460A464B6813440468F3
:10430000A34211D10C4C03682468A34208D04B6827
:104310000468646823444B6003681B680B6005E015
:10432000054B1B680B6001E003680B60884200D0FE
:10433000016010BD500000205800002009480068AE
:10434000006808B9012000E0002020B14FF0FF30E4
:104350000549086005E003480068C0680068024934
:1043600008607047140000204000002000BFBF20FC
:1043700080F31188BFF34F8FBFF36F8F00BF00BF73
:10438000FEE700002DE9F04705464FF0000900F078
:10439000A3F93048006808B9FFF7DEFE75B105F0F3
:1043A0000700C0F11008C8F1FF30A84201D2012077
:1043B00000E0002008B9454400E00025012000EBA2
:1043C000E570002841D0002D3FD023480068854289
:1043D0003BD8224E3046046801E0264624686068D7
:1043E000A84202D220680028F7D11A480068844207
:1043F0002BD0306800F10809206830606068401BED
:10440000102807D967196068401B786065603846D6
:10441000FFF760FF104960680968081A0E490860D4
:10442000084600680E490968884203D20A480068B5
:104430000B490860606840F0004060600020206028
:1044400008480068401C0749086000F0A3FB484684
:10445000BDE8F087580000205C00002050000020DC
:104460006000002064000020001F4FF08073036094
:10447000001F21F001030360001F034B0360143889
:1044800002602038704700006D4300082DE9F041BC
:1044900004460F46164600F07BF81C48006844307E
:1044A00050F8240080B901211848006848300155AF
:1044B00056B13046FFF750FD4FF080501449086068
:1044C000BFF34F8FBFF36F8F00F074F800F060F808
:1044D0000E480068443050F824506DB137B10021C7
:1044E0000A480068443040F8241005E0681E074977
:1044F0000968443141F8240000210448006848302C
:10450000015500F057F82846BDE8F0811000002062
:1045100004ED00E001460A69D1E901309860D1E973
:10452000010358605068884201D1886850600020BB
:1045300008611068401E10601068704700F10801A3
:1045400041604FF0FF31816000F10801C1600161FD
:1045500000210160704700210161704710B50246DB
:104560000B685C1C0CB9106907E002F1080000E060
:104570004068446824689C42FAD944684C604C689E
:10458000A160886041600A611468641C146010BDF9
:1045900000BFBF2080F31188BFF34F8FBFF36F8F31
:1045A00000BF03480068401C0149086070470000D4
:1045B0006C00002006480068401E05490860084657
:1045C000006820B9002080F3118800BF00BF704749
:1045D0006C00002070B506463546E6B1083D2C4615
:1045E0006068C00FB8B12068A8B9606820F00040CA
:1045F000606000F071F8084960680968084406497D
:1046000008602046FFF766FE04480068401C034926
:10461000086000F0BFFA70BD5C0000206800002058
:1046200000204FF0E02108618861024848610720BE
:10463000086170473F19010070B50446002544B178
:1046400000F04AF800212046FFF786FC00F0A2FAAD
:1046500005463DB94FF0805003490860BFF34F8FC6
:10466000BFF36F8F70BD000004ED00E01CB5124871
:1046700000210B468022CDE9001010A1114800F066
:1046800097F80446012C14D100BFBF2080F3118895
:10469000BFF34F8FBFF36F8F00BF4FF0FF300A495A
:1046A000086001200949086000200949086000F0FD
:1046B0004BF8084800681CBD4400002049444C45A4
:1046C00000000000C9410008400000202C0000202C
:1046D000240000204800002002480068401C0149D6
:1046E000086070474C0000201248006818B1012093
:1046F000114908601DE000200F4908600F4800685C
:10470000B0FA80F0C0F11F0101EB81020C4B03EB0A
:10471000820042685268426000F108024368934296
:1047200002D14268526842604268D268054B1A6002
:1047300000BF70474C0000203400002028000020FB
:10474000140300201000002010B50A48006840F44F
:104750007F00084908600846006840F07F40086014
:10476000FFF75EFF002004490860FBF7DBFC002038
:1047700010BD000020ED00E06C00002010B500BF6F
:10478000BF2080F31188BFF34F8FBFF36F8F00BF3F
:1047900000F038F918B14FF080500449086000BFAC
:1047A000002080F3118800BF10BD000004ED00E080
:1047B0002DE9FF4F85B0804689461746DDE912ABEB
:1047C000B800FFF7DFFD064676B14C20FFF7DAFDB3
:1047D00004462CB14C212046FBF707FD266304E07C
:1047E0003046FFF7F7FE00E000247CB10020CDE961
:1047F00000ABCDE902403A4649464046089BFFF7E8
:10480000F7FC2046FFF708FC012501E04FF0FF35DB
:10481000284609B0BDE8F08F2DE9F04704468846E8
:104820004FF00009FFF758FF16480668206800EBB4
:1048300008052068B04207D92068A8420BD9B542C4
:1048400009D94FF0010906E02068A84201D8B54215
:1048500001D94FF001092560B9F1000F03D0A81B61
:104860000021FFF779FB00F095F907463FB94FF0BB
:10487000805005490860BFF34F8FBFF36F8F4846E4
:10488000BDE8F0872400002004ED00E02DE9F05F92
:1048900081460D4616461F46DDF828A04FF0010B55
:1048A0004C46FFF775FEBAF1000F05D004F1440045
:1048B00050F82500CAF8000004F1480010F80580FF
:1048C00002214155052F29D2DFE807F027030D17F4
:1048D0001C0004F1440050F82500304304F1440169
:1048E00041F825001BE004F1440050F82500401C6D
:1048F00004F1440141F8250011E004F1440040F8BE
:1049000025600CE0B8F1020F04D004F1440040F837
:10491000256001E04FF0000B01E000E000BF00BFA8
:10492000B8F1010F4AD16069D4E902128A60D4E972
:1049300002214A60211D42688A4201D1E16841603A
:10494000002262610168491E016094F82C10012068
:1049500088401D49096808431B490860E16A01EB6A
:1049600081011A4A02EB81014868A0608268E26016
:10497000211D826851608160E16A01EB8101134A67
:1049800002EB81026261E16A01EB81010F4A52F898
:104990002110491CE26A02EB82020C4B43F8221000
:1049A0000B49E06A0968C96A884207D94FF080500C
:1049B00008490860BFF34F8FBFF36F8FFFF7FAFD11
:1049C0005846BDE8F09F0000280000201403002096
:1049D0001000002004ED00E00549096809B9012034
:1049E00005E00449096809B9022000E00020704789
:1049F0002C0000204C00002001490868704700008E
:104A0000240000202DE9F0410027574800680028C5
:104A10007ED156480068451C544805608DB95448FD
:104A2000D0F8008053480068514908605148C0F8E8
:104A3000008051480068401C4F490860FFF77EFC29
:104A400000BF4E480068854276D300BF48480068E2
:104A5000006808B9012000E0002020B14FF0FF30CD
:104A60004649086067E042480068C068C4686668F4
:104A7000B54202D2414806605DE06069D4E90212A5
:104A80008A60D4E902214A60211D42688A4201D12C
:104A9000E1684160002262610168491E0160A06A0C
:104AA00098B1A06AD4E907128A60D4E907214A6064
:104AB00004F1180142688A4201D1216A4160002252
:104AC000A2620168491E016000BF94F82C10012009
:104AD00088402B490968084329490860E16A01EBCD
:104AE0008101284A02EB81014868A0608268E26087
:104AF000211D826851608160E16A01EB8101214AD8
:104B000002EB81026261E16A01EB81011D4A00E072
:104B100022E052F82110491CE26A02EB8202194B92
:104B200043F822101849E06A0968C96A88428DD999
:104B300001278BE700E000BF13480068C06A00EB64
:104B40008000104951F82000012800D901270F48A2
:104B5000006800B1012704E00D480068401C0C49C2
:104B600008603846BDE8F0814C0000202400002099
:104B70001400002018000020380000204000002011
:104B80002800002014030020100000203400002022
:104B90003000002070B500240026FFF7F9FC4B48D8
:104BA0000068401E494908600846006800287DD119
:104BB00047480068002879D05BE04648C068C46870
:104BC000A06AD4E907128A60D4E907214A6004F197
:104BD000180142688A4201D1216A41600022A26222
:104BE0000168491E01606069D4E902128A60D4E953
:104BF00002214A60211D42688A4201D1E168416078
:104C0000002262610168491E016094F82C100120A5
:104C100088403149096808432F490860E16A01EB7F
:104C200081012E4A02EB81014868A0608268E2603F
:104C3000211D826851608160E16A01EB8101274A90
:104C400002EB81026261E16A01EB8101234A52F8C1
:104C50002110491CE26A02EB8202204B43F8221029
:104C60001F49E06A0968C96A884202D301201D49C8
:104C700008601848006808B9012000E000200028FA
:104C80009BD00CB1FFF75AFB1748056865B100BF10
:104C9000FFF7B8FE10B10120124908606D1E002D0B
:104CA000F6D10020104908600E4800E009E00068D5
:104CB00038B1012630070D490860BFF34F8FBFF3AD
:104CC0006F8FFFF777FC304670BD00004C0000206E
:104CD00020000020A0030020280000201403002052
:104CE00010000020340000203000002004ED00E01F
:104CF00002030405060708090A0B0C0D0E0F10101D
:104D00000102000000000000000001020304060789
:104D10000809000000000102030400003C4D0008E7
:104D20000000002000010000643D00083C4E000827
:104D300000010020084B0000743D00080000000046
:104D4000100000000100000000127A0000000000C6
:104D50000000000000000000000000000000000053
:104D60000000000000000000000000000000000043
:104D70000000000000000000000000000000000033
:104D8000000000000400000000000000000000001F
:104D90000000000000000000000000000000000013
:104DA0000000000000000000AAAAAAAA3C020020FD
:104DB0000000C800840200200C00C800F40100209C
:104DC0000400C800AC0100200800C8000008014031
:104DD000001000000008014000080000000C014025
:104DE00000800000000C01400040000001000000B5
:104DF00000000000000000000000000000000000B3
:104E000000000000000000000000000000000000A2
:104E1000000000000A01070E010000000000000071
:104E20000000000000000000000000000000000082
:0C4E300000000000000000000000000076
:04000005080000ED02
:00000001FF
