:020000040800F2
:10000000A04C0020990100086545000857350008FC
:10001000614500080D100008B14B00080000000009
:1000200000000000000000000000000001010008C6
:10003000CD180008000000004501000845470008F1
:10004000B3010008B3010008B3010008B3010008C0
:10005000B3010008B3010008B3010008B3010008B0
:10006000B3010008B3010008B3010008B3010008A0
:10007000B3010008B3010008B3010008B301000890
:10008000B3010008B3010008B3010008B301000880
:10009000B3010008B3010008B3010008B301000870
:1000A000B3010008B3010008B3010008B301000860
:1000B000B3010008B3010008B3010008B301000850
:1000C000B3010008B3010008B3010008B301000840
:1000D000B3010008B3010008B3010008B301000830
:1000E000B3010008B3010008B3010008DFF80CD029
:1000F00000F0A4FC00480047FD5A0008A04C002076
:10010000224B19680868B0E8F00F80F30988BFF344
:100110006F8F4FF0000080F311884EF00D0E704786
:100120000000000006480068006880F3088862B696
:1001300061B6BFF34F8FBFF36F8F00DF00BF00BF0B
:1001400008ED00E0EFF30980BFF36F8F0F4B1A68E3
:1001500020E9F00F106008B54FF0BF0080F3118860
:10016000BFF34F8FBFF36F8F06F0E8F84FF000003A
:1001700080F31188BDE8084019680868B0E8F00FFE
:1001800080F30988BFF36F8F704700BF880000209D
:10019000EFF3058070470000064880470648004797
:1001A000FEE7FEE7FEE7FEE7FEE7FEE7FEE7FEE727
:1001B000FEE7FEE7BF470008ED000008202A04DB49
:1001C000203A21FA02F00021704721FA02F3D040D0
:1001D000C2F120029140084319467047D2B201E0B3
:1001E00000F8012B491EFBD270470022F6E710B53C
:1001F00013460A4604461946FFF7F0FF204610BD95
:10020000F0B480EA0102D40F4200B2EB410F02D2F7
:100210000246084611464A0042D0C30DDDB2C1F382
:10022000C752AD1A202D35DAC1F3160141F4000290
:1002300004B15242C5F1200602FA06F12A411044E7
:10024000B3EBD05F23D0C4B1012DA0EBC35009DCC8
:10025000F0BC4FF0004202EAC352DBB200F50000EE
:1002600000F0ABBA400000F1807000EBC350A0F189
:10027000807040EAD170490009E0490841EAC07144
:10028000A0EBC35000F50000400800EBC350F0BCE9
:1002900000F08ABA6142012202EB4101001BF6E73D
:1002A000F0BC704781F00041AAE780F00040A7E76A
:1002B00080EA010210B502F00043400022D04A005B
:1002C0001FD0010E01EB1261C0F35600C2F35602BB
:1002D00040F4000042F40002A0FB022000047F3939
:1002E000140400D0401C50EA124001D44000491EC2
:1002F000C2B20C0604EBD010401C4008802A02D089
:1003000003E0002010BD20F00100002900DA0020E9
:10031000184310BD30B480EA010202F0004530F00D
:10032000004221F0004013D090B1C30DD40DC2F3B0
:100330001601C0F31600E41A41F4000140F4000273
:100340007D34914201D3641C00E04900002C02DAA4
:1003500030BC002070474FF400000023914201D3CD
:10036000891A034340084FEA4101F7D151B1914244
:1003700002D14FF0004105E002D24FF0010101E04F
:100380006FF0010103EBC450284430BC00F00CBAFC
:100390002DE9FE4F804681EA0300C00F0C46009015
:1003A00021F0004123F00045B8EB0200A94105D23D
:1003B0004046214690461C460B46024623F000402C
:1003C000104347D0270DC7F30A00C3F30A51029028
:1003D000401A019040286BDAC3F3130040F4801BED
:1003E0000098924620B10023D2EB030A63EB0B0B7B
:1003F00001985946C0F14002504600F0B4F9064653
:100400000D4650465946019A00F0BCF910EB080021
:100410006141002487EA115284EAE7731A4340D00D
:10042000009A62B3019A012A4FEA075215DC001BB9
:1004300061EB02014FF0004202EA0752CDE90042AF
:10044000001C41F5801132462B4600F0F3F903B051
:10045000BDE8F08F40462146F9E7001B61EB020141
:10046000001C41F5801300185B412018A2F500170D
:1004700047EB030140EAD570B6196D4111E06D08F4
:100480004FEA360645EAC0754FEA0752001B61EB9A
:100490000201001C41F5801149084FEA30000019A3
:1004A000514132462B4603B0BDE8F04F00F0B3B9DE
:1004B0000098012240000023D0EB020263EBE073BE
:1004C000009821464FEAE074B8EB000061EB0401AC
:1004D000E9E783F000435BE781F0004158E72DE94D
:1004E000FE4F81EA030404F0004421F0004100942F
:1004F0004FF0000B23F0004350EA01045ED052EAB3
:1005000003045BD0C3F30A54C1F30A552C44A4F28C
:10051000F3340194A0FB0254C1F3130141F48011A0
:10052000C3F3130343F4801301FB024400FB034EA7
:10053000840A970A44EA815447EA8357A4FB076870
:1005400002958D0A05FB07854FEA932C04FB0C549A
:100550002705029D4FEA065847EA1637B5EB08050E
:100560006EEB070C870E920E47EA811742EA831260
:10057000A7FB0201B6EB0B0164EB00042B0D43EA71
:100580000C335E1844EB1C50DA465146E7FB02017F
:10059000C5F313044FEA0B3343EA14534FEA043212
:1005A000019C43EA0603A4F10C040294009CCDE9EB
:1005B00000B400F03FF903B0BDE8F08F0020014621
:1005C000F9E7C10F80EAE0700844CA0796230021CA
:1005D00000F0F3B80EB5C10F80EAE0700844CA0716
:1005E000002140F233438DE80E000A460B4600F02E
:1005F00021F903B000BD70B5C1F30A5201F0004506
:100600000024C1F3130140F2FF3341F480119A42F8
:1006100001DA002070BD40F233439A42A2F2334225
:1006200003DC5242FFF7CAFD00E090402C43F1D0BA
:10063000404270BD00F0004230F000400AD0C10DD1
:1006400001F56071C0F3160042EA0151C20840078B
:1006500011437047002001467047000030B5041E6A
:1006600071F1000404DB4FF00044404264EB0101EF
:10067000141E73F1000405DB1C464FF00043524288
:1006800063EB04038B4208BF824230BD01F000439C
:1006900030B421F0004150EA010206D00A0DA2F563
:1006A0006072C1F31301002A02DC30BC00207047E5
:1006B000440F44EAC104C100E01830BC00EBC25052
:1006C00000F072B8002801DBC0F10040002901DB16
:1006D000C1F100418842704730B50B460146002009
:1006E0002022012409E021FA02F59D4205D303FAF4
:1006F00002F5491B04FA02F52844151EA2F1010275
:10070000F1DC30BD2DE9F05F0546002092469B46A6
:1007100088460646814640241BE028464146474617
:100720002246FFF74BFD53465A46C01A914110D35B
:1007300011461846224600F016F82D1A67EB0108FC
:100740004F4622460120002100F00DF817EB00096A
:100750004E41201EA4F10104DFDC484631462A4602
:100760004346BDE8F09F202A04DB203A00FA02F15C
:10077000002070479140C2F1200320FA03F319438F
:1007800090407047202A06DBCB17203A41FA02F04E
:1007900043EAE07306E041FA02F3D040C2F12002DE
:1007A00091400843194670470029A8BF7047401C74
:1007B000490008BF20F00100704710B4B0FA80FC77
:1007C00000FA0CF050EA010404BF10BC704749B1B4
:1007D000CCF1200421FA04F411FA0CF118BF012124
:1007E00021430843A3EB0C01CB1D4FEA00614FEA04
:1007F000102042BF002010BC704700EBC3501044D3
:100800000029A4BF10BC7047401C490008BF20F05D
:10081000010010BC704710B5141E73F1000408DA13
:10082000401C41F1000192185B411A4301D120F0B4
:10083000010010BD2DE9F04D92469B4611B1B1FA71
:1008400081F202E0B0FA80F220329046FFF78BFF8F
:1008500004460F4640EA0A0041EA0B0153465A4655
:10086000084313D0114653EA010019D0C8F14002E1
:100870005046FFF7A3FC05460E46504659464246F1
:10088000FFF771FF084305D0012004E020463946F8
:10089000BDE8F08D0020054346EAE0762C4337435F
:1008A0000A986305E40AA0EB08000022FD0A44EA66
:1008B00047540A3002D500200146E9E70105101926
:1008C0006941DDE9084500196941BDE8F04DA2E73D
:1008D0002DE9F04D81EA030404F0004B21F00045BE
:1008E00014464FF0000A23F0004150EA050220D0E0
:1008F00054EA01021DD0C5F30A570246C5F313039B
:10090000C1F31300C1F30A5640F4801543F4801379
:10091000A7EB0608101BD64608F2FD3873EB05005E
:1009200002D308F1010801E092185B41B8F1000F11
:1009300003DA00200146BDE8F08D00204FF480115D
:10094000064684460EE0171B73EB050705D3121B02
:1009500063EB050306434CEA010C49084FEA3000FB
:1009600092185B4150EA0107EDD152EA030012D020
:1009700082EA040083EA0501084305D0101BAB415D
:1009800006D20122002306E000224FF0004302E0DD
:100990006FF0010253101AEB06004CEB085110EBFC
:1009A0000A0041EB0B01BDE8F04DFFF734BF70B515
:1009B00021F0004303430CD0C1F30A550024D5EBCA
:1009C000040564EB0403D617AD1AB34102DB002023
:1009D000014670BD201841EB025170BDC1F30A52AF
:1009E000C1F3130140F2FF3341F480119A4202DA5D
:1009F00000200146704740F233439A42A2F233424C
:100A000002DC5242FFF7DABBFFF7ADBE30B5041E81
:100A100071F1000404DB4FF00044404264EB01013B
:100A2000141E73F1000405DB1C464FF000435242D4
:100A300063EB0403994208BF904230BD064C074D5A
:100A400006E0E06840F0010394E80700984710349E
:100A5000AC42F6D3FFF74EFBC0690008E06900081E
:100A6000420005D0C0F3C7525242914201DC00203F
:100A7000704700EBC15070472DE9F04D00231A4636
:100A80001B1A8A4103DB00200146BDE8F08DC1F34B
:100A90000A52C1F3130141F480154FF0000BD10746
:100AA00002D100186D41521E0027044640F2FF118A
:100AB000384601EB620A3E468046024600204FF46B
:100AC0008011FFF77BFBC2197141BB1846EB010097
:100AD000B4EB030C75EB000C04D3E41A65EB0005D2
:100AE00017460E46241908F101006D41804634284E
:100AF000E3DDF91946EB0600091BA84103D24FF0CC
:100B0000FF32134601E0002213461BEB070046EBC1
:100B10000A51BDE8F04DFFF77EBE70B58C1810F895
:100B2000015B15F0070301D110F8013B2A1106D132
:100B300010F8012B03E010F8016B01F8016B5B1E4C
:100B4000F9D12B0705D40023521E0DD401F8013B27
:100B5000FAE710F8013BCB1A921C03E013F8015B93
:100B600001F8015B521EF9D5A142D8D3002070BD17
:100B70002DE9FF473D4803F015F93D4AB2F9001051
:100B80003A4AB2F9000000F0BDFA38490880384A04
:100B9000B2F90210354AB2F9020000F0B3FA334953
:100BA0004880334AB2F90410304AB2F9040000F028
:100BB000A9FA2E4988802E480A68026089888180B7
:100BC0002A49B1F90600FFF705FD064632460B46F5
:100BD000284800F03FFA0446FFF70DFD00B2234914
:100BE000C880B1F90800FFF7F5FC064632460B460F
:100BF0002048183000F02EFA0446FFF7FCFC01B242
:100C00001A4801810146B1F90A00FFF7E3FC0646E4
:100C100032460B461748303000F01CFA0446FFF706
:100C2000EAFC01B211484181134A144900F092FADA
:100C300012490868FFF7FEFC04460D460F49886814
:100C4000FFF7F8FC06460F460C494868FFF7F2FC30
:100C5000804642460B46332109A0CDE90067CDE925
:100C6000024503F0A7FFBDE8FF8700008848002089
:100C70004C01002010000020A69BC43B944800209B
:100C80005B6170706C69636174696F6E5C417070F8
:100C90005F666C696768742E633A25645D203A2547
:100CA0002E32662C252E32662C252E32660A000046
:100CB0001CB51548042100238022CDE9001013A1A2
:100CC000154805F09FFB1548032100238022CDE93C
:100CD000001013A1174805F095FB174801210023C8
:100CE0008022CDE9001015A1184805F08BFB1848AB
:100CF000022100238022CDE9001016A1184805F03A
:100D000081FB05F0DDFA1CBD2C010020506F7765DA
:100D100072205461736B00006945000830010020A7
:100D2000466C69676874204D6F746F7220546173EC
:100D30006B000000D5180008340100204C45442009
:100D4000537461747573205461736B00D94000084B
:100D500038010020436F6D205461736B0000000068
:100D60001110000810B52048007830B101280ED0CD
:100D700002281ED0032834D12CE000F03DF828B919
:100D800001201949087000201849087029E0184806
:100D9000407A012805D10220134908700020144927
:100DA000487214480078012802D103200E490870C7
:100DB00017E00F48407A012804D10B490870002041
:100DC0000B4948720B480078012802D103200649DC
:100DD000087006E0012005F059FA00200249087069
:100DE00000BF00BF10BD0000290100203C01002011
:100DF0006C4800202801002010B52A4800780528FA
:100E00004AD2DFE800F00333112747002648008864
:100E100040F28A21884206DD02202249087005F04E
:100E200015FC2249086039E01F48008840F28A21F9
:100E300088420EDA05F00AFC1C490968401AB0F530
:100E40007A7F03D303201749087002E00020154978
:100E5000087023E014480088642806DC012011494A
:100E6000087005F0F3FB1249086017E005F0EEFB8F
:100E70000F490968401AB0F57A7F07D20A480088FE
:100E8000642806DD00200749087002E004200549B7
:100E9000087003E0002010BD0120FCE700BF012026
:100EA000F9E700003C0100206C48002040010020D0
:100EB000440100207FB511214248FFF796F94148CF
:100EC00002F01CFF04462CB900203F4908703F493E
:100ED00008700EE03D480078401C3C490870084608
:100EE0000078642805DB0120374908700020374965
:100EF000087014B1012004B070BD32480078772822
:100F000007D130484078722803D12E4880786A286B
:100F100001D00120EFE7002004E02A49095C0D44DC
:100F2000411CC8B20D28F8DB2648407B0006254945
:100F3000897B40EA01402349C97B40EA01202149DD
:100F4000097C40EA0106B54201D00120D3E71D48E3
:100F500000791C49C97840EA01201D4908801948D8
:100F600080791849497940EA012019494880154893
:100F7000007A1449C97940EA01201549888011484E
:100F8000807A1049497A40EA01201149C8800D4809
:100F9000C07A08720B48007B48720846407A097A8A
:100FA0000B4AD2880A4B9B88CDE90032CDE902106A
:100FB000074843880288982106A003F0FBFD002023
:100FC00099E7000076480020280100204801002011
:100FD0006C4800205B6170706C69636174696F6E4E
:100FE0005C4170705F726563656976655F646174AA
:100FF000612E633A25645D203A25642C25642C25F6
:10100000642C25642C25642C25640A0000BFFEE7AF
:101010001CB505F01BFB019016E0FFF74BFF0B48DA
:10102000007A012808D100200223024601460090E0
:101030000748006805F054FAFFF794FE00BF062148
:1010400001A805F013FA00BFE7E700006C48002094
:101050002C0100202DE9F04788B0824614461D4639
:10106000DAF81010DAF80000FFF7CAF8CAF804003E
:10107000DAF81410DAF80400FFF7C2F80646314631
:10108000DAF80400FFF746F9CAF80C00DAF80800AD
:10109000FFF7D0FA22462B46CDE90001FFF71CFAF4
:1010A000CDE90201DAF80C00FFF7C4FA0646DDE9E3
:1010B0000223FFF714FA80468946DAF80800FFF7A2
:1010C000B9FA42464B46CDE90401FFF761F9CDE993
:1010D0000601FFF7DBFACAF808004FF07E50DAF895
:1010E0000C10FFF7DFF80646DAF80410FFF7E0F817
:1010F000CAF80000DAF80800FFF79CFA08B0BDE86B
:10110000F08700002DE9FC5F83460C462046FFF780
:1011100061FA07464FF033320C4BFFF7E0F9814696
:101120008A465846FFF756FA07464FF03332084BC7
:10113000FFF7D5F94A465346CDE90001FFF728F9F4
:101140000546FFF758FA00B2BDE8FC9F3333EB3F8A
:101150003333C33F07B5A0B04FF07C512298FFF75F
:10116000A7F80E90FE4880680690FD48006805903C
:101170000699FFF79DF80890F948C0680690F8486E
:10118000406805900699FFF793F807900899FFF7D4
:1011900089F84FF080410990FFF78AF81D90F048D8
:1011A000C0680690EE48806805900699FFF780F8C1
:1011B0000890EB4840680690E94800680590069959
:1011C000FFF776F807900899FFF71AF84FF080417B
:1011D0000990FFF76DF81E90E14880680590E0489F
:1011E000806804900599FFF763F80790DC48406831
:1011F0000590DB48406804900599FFF759F8069080
:101200000799FEF7FDFF4FF080410890FFF750F877
:101210004FF07E510990FFF748F81F902098B0F9E1
:101220000A000490FFF7CDF906902098B0F90A0063
:101230000490FFF7C6F905900699FFF739F8089072
:101240002098B0F908000290FFF7BBF904902098AD
:10125000B0F908000290FFF7B4F903900499FFF782
:1012600027F806902098B0F906000290FFF7A9F938
:1012700004902098B0F906000290FFF7A2F90390BD
:101280000499FFF715F805900699FEF7B9FF079046
:101290000899FEF7B5FF099003F078F90F902098B0
:1012A000B0F906000890FFF78CF909900F99FEF746
:1012B000FFFF1A902098B0F908000890FFF781F915
:1012C00009900F99FEF7F4FF1B902098B0F90A00DF
:1012D0000890FFF776F909900F99FEF7E9FF1C9047
:1012E0001E9807901C9806900799FEF7E1FF099059
:1012F0001F9807901B9806900799FEF7D9FF089052
:101300000999FEF7CFFF14901F9807901A9806903E
:101310000799FEF7CDFF09901D9807901C9806903D
:101320000799FEF7C5FF08900999FEF7BBFF1590D6
:101330001D9807901B9806900799FEF7B9FF099032
:101340001E9807901A9806900799FEF7B1FF08902B
:101350000999FEF7A7FF1690149808908148016834
:101360000898FEF7A5FF09907F480068014608909D
:101370000998FEF745FF7C49086015980890794860
:1013800001680898FEF794FF099077484068014685
:1013900008900998FEF734FF734948601698089042
:1013A000704801680898FEF783FF09906E488068CE
:1013B000014608900998FEF723FF6B49886014984E
:1013C0000146069069480068FEF772FF0890209871
:1013D000B0F900000590FFF7F4F806906448016842
:1013E0000698FEF765FF07900899FEF709FF099038
:1013F0005D480068014608900998FEF701FF1790C4
:1014000015980146069059480068FEF751FF08906C
:101410002098B0F902000590FFF7D3F806905448E1
:1014200001680698FEF744FF07900899FEF7E8FE6A
:1014300009904D484068014608900998FEF7E0FE83
:10144000189016980146069048480068FEF730FF4D
:1014500008902098B0F904000590FFF7B2F80690C4
:10146000434801680698FEF723FF07900899FEF7A6
:10147000C7FE09903C488068014608900998FEF72D
:10148000BFFE1990199806903548C06805900699D6
:10149000FEF70EFF0890189804903148806803907A
:1014A0000499FEF705FF06902D48406880F0004043
:1014B00004901798014603900498FEF7F9FE0590F2
:1014C0000699FEF7EFFE07900899FEF7EBFE0990EC
:1014D0000E99FEF7EDFE139019980690204880684B
:1014E00005900699FEF7E4FE0890189804901C48B1
:1014F000C06803900499FEF7DBFE069017980490ED
:101500001748006803900499FEF7D2FE05900699EB
:10151000FEF7C8FE07900899FEF772FE09900E9933
:10152000FEF7C6FE1290199806900D484068059087
:101530000699FEF7BDFE08901898049008480068C8
:1015400003900499FEF7B4FE06901798049004489F
:10155000C06803900499FEF7ABFE0590069909E078
:101560007800002074000020980300207000002004
:1015700060000020FEF744FE07900899FEF792FEF7
:1015800009900E99FEF794FE119019980690CA489A
:10159000006805900699FEF78BFE08901898049055
:1015A000C548406803900499FEF782FE0690C24841
:1015B000806880F0004004901798014603900498DA
:1015C000FEF776FE05900699FEF71AFE0790089939
:1015D000FEF716FE09900E99FEF76AFE1090B648C7
:1015E000006809901399FEF70BFEB349086008469E
:1015F000406809901299FEF703FEAF49486008461B
:10160000806809901199FEF7FBFDAB498860084698
:10161000C06809901099FEF7F3FDA749C860084615
:10162000C06806900846C06805900699FEF740FE1F
:101630000890A148806804909F48806803900499AE
:10164000FEF736FE06909C48406802909A48406833
:1016500001900299FEF72CFE0490974800680290D2
:101660009548006801900299FEF722FE03900499C4
:10167000FEF7C6FD05900699FEF7C2FD0790089992
:10168000FEF7BEFD099002F081FF0F908A480068C6
:1016900009900F99FEF70CFE8749086008464068DC
:1016A00009900F99FEF704FE834948600846806858
:1016B00009900F99FEF7FCFD7F4988600846C068D5
:1016C00009900F99FEF7F4FD7B49C8600846406811
:1016D000014606904FF08040FEF7EAFD07907648FD
:1016E000C068014606900798FEF7E2FD099072482F
:1016F0000068014606904FF08040FEF7D9FD079044
:101700006D488068014606900798FEF7D1FD089065
:101710000999FEF7C7FD0D906748006801460690DD
:101720004FF08040FEF7C4FD0790634840680146D3
:1017300006900798FEF7BCFD09905F488068014657
:1017400006904FF08040FEF7B3FD07905A48C068FE
:10175000014606900798FEF7ABFD08900999FEF741
:101760004FFD0C9054488068014606904FF0804031
:10177000FEF79EFD07905048806801460690079846
:10178000FEF796FD09904C484068014605904FF0E1
:101790008040FEF78DFD0690474840680146059061
:1017A0000698FEF785FD4FF07E510790FEF77DFD10
:1017B00008900999FEF776FD0B902098B0F9040087
:1017C0000890FEF7FEFE09903C4801680998FEF774
:1017D0006FFD0A904FF07C510A98FEF773FF09D312
:1017E0000A98FEF727FF0022354BCDE90801FEF7E6
:1017F00035FF0DD222990A98FEF75AFD09902198DB
:101800000068014608900998FEF7FAFC21990860E3
:101810002C480068FEF70EFFCDE906010D98FEF793
:1018200009FFCDE9020103F0F5FECDE90401DDE990
:101830000623FEF754FECDE90801FEF727FF2199A4
:101840004860DDE90B1004F01DF809901D4801689F
:101850000998FEF72DFD219988602098B0F90A00BB
:101860000590FEF7AEFE06900B99FEF721FD08905D
:101870002098B0F908000390FEF7A3FE04900C999D
:10188000FEF716FD06902098B0F906000390FEF7CB
:1018900098FE04900D99FEF70BFD05900699FEF752
:1018A000AFFC07900899FEF7ABFC0990FEF7C2FE6B
:1018B000054A03C223B000BD780000205C00002070
:1018C0000000E0BF5800002068000020704772B69A
:1018D00000BFFEE708B504F0B9FE009002F09EFBE1
:1018E00007E0FFF745F900BF0621684604F0BEFD9A
:1018F00000BFF6E770B5044600F0B0F9064625468D
:10190000681C10B104480078054400BF00F0A6F937
:10191000801BA842FAD370BD080000202DE9F847CB
:101920000346002294466EE14FF0010808FA02F4E3
:10193000D1F8008008EA0400A0427DD1DFF8DCA2E3
:10194000D1F80480A8EB0A09D0453AD014DCB8F1EC
:10195000030F50D009DCB8F1000F31D0B8F1010FFE
:101960001CD0B8F1020F49D120E0B8F1110F18D006
:10197000B8F1120F42D11EE0B9F5881F25D006DC60
:10198000B9F5803F20D0B9F5801F37D11AE0B9F5FD
:10199000001F18D0B9F5041F30D117E0D1F80CC0E2
:1019A0002DE0D1F80C8008F1040C28E0D1F80C806F
:1019B00008F1080C23E0D1F80C8008F10C0C1EE0B3
:1019C00000BF00BF00BF00BF00BF00BFD1F808804C
:1019D000B8F1000F02D14FF0040C0BE0D1F80880F1
:1019E000B8F1010F03D14FF0080C1C6102E04FF079
:1019F000080C5C6103E04FF0000C00E000BF00BF8A
:101A0000FF2801D8984601E003F104084646FF2864
:101A100002D84FEA820803E0A2F108084FEA8808DA
:101A20004746D6F800804FF00F0909FA07F928EA6F
:101A300009080CFA07F900E088E048EA0908C6F846
:101A40000080D1F8048008F08058B8F1805F7DD123
:101A500000BFDFF8CC81D8F8188048F00108DFF823
:101A6000C091C9F81880C846D8F8188008F0010855
:101A7000CDF8008000BF00BF4FEAB9384FEA9209A5
:101A800058F829504FEA82784FEA18794FF00F083A
:101A900008FA09F825EA0805DFF88881434502D1EC
:101AA0004FF0000816E0DFF88081434502D14FF087
:101AB00001080FE0DFF87481434502D14FF00208BE
:101AC00008E0DFF86C81434502D14FF0030801E0E4
:101AD0004FF004084FEA82794FEA197908FA09F8B9
:101AE00048EA0505DFF84C814FEA920948F8295089
:101AF000D1F8048008F48018B8F5801F0AD1DFF807
:101B00003881D8F8008048EA0008DFF82C91C9F83D
:101B1000008009E0DFF82081D8F8008028EA00087A
:101B2000DFF81491C9F80080D1F8048008F4001897
:101B3000B8F5001F10D1DFF8008108F10408D8F8CB
:101B4000008048EA0008DFF8F09000E05AE009F170
:101B50000409C9F800800DE0DFF8DC8008F1040812
:101B6000D8F8008028EA0008DFF8CC9009F10409D1
:101B7000C9F80080D1F8048008F40038B8F5003FB7
:101B80000ED1DFF8B480A8F10408D8F8008048EA44
:101B90000008DFF8A490A9F10409C9F800800DE05D
:101BA000DFF89480A8F10408D8F8008028EA00083B
:101BB000DFF88490A9F10409C9F80080D1F8048005
:101BC00008F48038B8F5803F0ED1DFF86C80A8F1BA
:101BD0000808D8F8008048EA0008DFF85C90A9F10E
:101BE0000809C9F800800DE0DFF84C80A8F108086A
:101BF000D8F8008028EA0008DFF83C90A9F108092D
:101C0000C9F80080521CD1F8008028FA02F8B8F117
:101C1000000F7FF489AEBDE8F887000000001110C6
:101C20000010024000080140000C0140001001407B
:101C300000140140080001400804014010B5C268CA
:101C400021EA020302EA010443EA0443036110BDEE
:101C50000AB1016101E00B040361704701480068AB
:101C6000704700000000002070B504460CB9012048
:101C700070BD94F83D0028B9002084F83C0020464F
:101C800000F046FB242084F83D002068006820F026
:101C90000100216808602068006840F40040216865
:101CA00008602068006820F400402168086000F0A7
:101CB000F7FC05465C496068884206D85B48854267
:101CC00001D2012007E0002005E05948854201D2F9
:101CD000012000E00020012800D1C9E75548B5FBEC
:101CE000F0F62068406820F03F00304321684860EB
:101CF0004D496068884201D8701C07E04FF4967027
:101D000070434FF47A71B0FBF1F0401C2168096A0E
:101D100021F03F0108432168086243496068884216
:101D200014D8681E61684900B0FBF1F0401CC0F394
:101D30000B00042801D204203DE0681E61684900C0
:101D4000B0FBF1F0401CC0F30B0034E0A06838B9E0
:101D5000681E616801EB4101B0FBF1F0401C0AE034
:101D6000681E616801EBC10202EB0111B0FBF1F0EA
:101D7000401C40F48040C0F30B0008B901201AE079
:101D8000A06848B9681E616801EB4101B0FBF1F041
:101D9000401CC0F30B000CE0681E616801EBC1023F
:101DA00002EB0111B0FBF1F0401CC0F30B0040F45A
:101DB000804040F400402168C9694CF6FF729143AD
:101DC00008432168C861D4E907010843216809680C
:101DD00021F0C001084321680860D4E903100843DA
:101DE0002168896848F2FF3291430843216888607E
:101DF000D4E9050108432168C96821F0FF010843BF
:101E00002168C8602068006840F00100216808600F
:101E100000202064202084F83D000020206384F806
:101E20003E0000BF24E70000A086010080841E0061
:101E300000093D0040420F002DE9FE4F04460F46C9
:101E400090469946DDE90CAB0E9E00200290FFF70C
:101E500005FF054694F83D00202872D11923012280
:101E6000CE492046009501F0EAFC10B10220BDE801
:101E7000FE8F00BF94F83C00012801D10220F6E754
:101E8000012084F83C0000BF2068006800F00100D9
:101E900028B92068006840F00100216808602068C7
:101EA000006820F4006021680860222084F83D006A
:101EB000402084F83E0000202064C4F824A0A4F848
:101EC0002AB0608D2085B648E0624B4642463946CE
:101ED0002046CDE9006501F05FFB08B10120C6E7AF
:101EE000208D88B900BF00200190206840690190D2
:101EF00020688069019000BF00BF2068006840F43E
:101F00000070216808604BE0208D01281AD12068FC
:101F1000006820F480602168086072B600BF00206D
:101F2000019020684069019020688069019000BF9D
:101F300000BF2068006840F400702168086062B645
:101F40002EE029E1208D022819D12068006840F494
:101F500000602168086072B600BF00200190206810
:101F60004069019020688069019000BF00BF20682F
:101F7000006820F480602168086062B610E0206884
:101F8000006840F480602168086000BF0020019074
:101F900020684069019020688069019000BF00BFFF
:101FA000EBE0208D03287DD8208D012815D12A460D
:101FB0003146204601F01FFD08B1012057E7206897
:101FC0000069616A0870606A401C6062208D401E72
:101FD0002085608D401E6085CFE0208D02282CD1A9
:101FE000334600226F492046009501F028FC08B1D5
:101FF00001203CE772B62068006840F40070216858
:10200000086020680069616A0870606A401C60624C
:10201000208D401E2085608D401E608562B6206840
:102020000069616A0870606A401C6062208D401E11
:102030002085608D401E60859FE03346002259490F
:102040002046009501F0FBFB08B101200FE7206856
:10205000006820F480602168086072B6206800691A
:10206000616A0870606A401C6062208D401E208595
:10207000608D401E60854C4800681921B0FBF1F06E
:102080004FF47A71B0FBF1F0C0EBC00000EB8000C0
:10209000029000BF0298401E02900298A8B900204A
:1020A000206300E039E0202084F83D00002084F81F
:1020B0003E00206C40F02000206462B600BF00208B
:1020C00084F83C0000BF0120D1E620684069C0F3DD
:1020D00080000028DED02068006840F4007021688D
:1020E000086020680069616A0870606A401C60626C
:1020F000208D401E2085608D401E608562B6206860
:102100000069616A0870606A401C6062208D401E30
:102110002085608D401E60852FE02A46314620468E
:1021200001F069FC08B10120A1E620680069616A3C
:102130000870606A401C6062208D401E2085608DA2
:10214000401E608520684069C0F38000A8B1208DE2
:10215000032805D12068006820F4806021680860A9
:1021600020680069616A0870606A401C6062208DA6
:10217000401E2085608D401E6085208D00287FF4E4
:1021800010AF202084F83D00002084F83E0000BFFE
:1021900084F83C0000BF6AE6022068E602001000F6
:1021A0000000FFFF040001000C0000202DE9FC5F8F
:1021B00004460F4690469946DDE90CAB0E9EFFF7AC
:1021C0004DFD054694F83D0020287DD119230122BC
:1021D0004D492046009501F032FB10B10220BDE8C8
:1021E000FC9F00BF94F83C00012801D10220F6E7D3
:1021F000012084F83C0000BF2068006800F0010066
:1022000028B92068006840F0010021680860206853
:10221000006820F4006021680860212084F83D00F7
:10222000402084F83E0000202064C4F824A0A4F8D4
:102230002AB0608D20853548E0624B4642463946DB
:102240002046CDE9006501F057FA08B10120C6E744
:1022500031E02A463146204601F012FC50B1206C94
:10226000042805D12068006840F4007021680860E7
:102270000120B4E7606A007821680861606A401C48
:102280006062208D401E2085608D401E6085206824
:102290004069C0F3800070B1208D60B1606A007841
:1022A00021680861606A401C6062208D401E2085A4
:1022B000608D401E6085208D0028CAD12A46314697
:1022C000204601F089FA00E01CE050B1206C04289F
:1022D00005D12068006840F4007021680860012082
:1022E0007DE72068006840F40070216808602020C5
:1022F00084F83D00002084F83E0000BF84F83C00D4
:1023000000BF6CE702206AE7020010000000FFFF38
:1023100010B586B00446002002900390049005900A
:1023200015492068884225D100BF1448806940F0D3
:102330000800124988610846806900F00800019091
:1023400000BF00BFC0200290122003900320059020
:1023500002A90B48FFF7E2FA00BF0848C06940F441
:1023600000100649C8610846C06900F400100190D9
:1023700000BF00BF06B010BD005400400010024076
:10238000000C0140034800680349097808440149EA
:1023900008607047000000200800002010B50848C1
:1023A000006840F0100006490860032000F098F82B
:1023B0000F2000F007F800F02BF8002010BD0000FF
:1023C0000020024070B504460E4800784FF47A7140
:1023D000B1FBF0F00C490968B1FBF0F5284600F0BC
:1023E000AFFD08B1012070BD102C07D2002221469C
:1023F000501E00F037F80548046001E00120F2E7C4
:102400000020F0E7080000200C000020040000205D
:1024100008B500BF1148806940F001000F4988618C
:102420000846806900F00100009000BF00BF00BFB7
:102430000846C06940F08050C8610846C06900F095
:102440008050009000BF00BF00BF0549486820F0E1
:10245000E06040F00070486000BF08BD001002401E
:10246000000001402DE9F05F80460D46164600272A
:1024700002F0D8FB074639462A46334601F00700EA
:10248000C0F1070ABAF1040F02D94FF0040A01E0C3
:10249000C0F1070AD14600F1040ABAF1070F02D2CF
:1024A0004FF0000A01E0A0F1030AD4464FF0010A00
:1024B0000AFA09FAAAF1010A0AEA020A0AFA0CFA65
:1024C0004FF0010B0BFA0CFBABF1010B0BEA030B0A
:1024D0004AEA0B042146404602F0ACFBBDE8F09FFF
:1024E00000BF00F00702064B19684FF6FF031940C2
:1024F000044B0B4343EA0221014B196000BF7047B4
:102500000CED00E00000FA0570B504460D460CB96C
:10251000012070BD5A48006800F00700A8420ED2A2
:102520005748006820F007002843554908600846CE
:10253000006800F00700A84201D00120E9E72078F8
:1025400000F0020002281DD1207800F004000428C9
:1025500005D14C48406840F4E0604A494860207822
:1025600000F00800082805D14648406840F4605053
:10257000444948604348406820F0F000A16808439F
:1025800040494860207800F0010078B36068012875
:1025900006D13C48006800F4003090B90120B8E74B
:1025A0006068022806D13748006800F0007040B922
:1025B0000120AEE73348006800F0020008B90120AE
:1025C000A7E73048406820F00300616808432D49C0
:1025D0004860FFF743FB064609E0FFF73FFB801B1F
:1025E00041F28831884202D9032092E707E025486A
:1025F000406800F00C006168B0EB810FEDD120481D
:10260000006800F00700A8420ED91D48006820F0BD
:10261000070028431A4908600846006800F00700D0
:10262000A84201D0012074E7207800F004000428BB
:1026300007D11448406820F4E060E168084311497C
:102640004860207800F00800082808D10D4840684C
:1026500020F46050216940EAC1000A49486000F056
:102660003FF808494968C1F30311074A515CC84063
:102670000649086006480068FFF7A4FE002048E706
:102680000020024000100240566900080C000020A3
:102690000400002001480068704700000C00002082
:1026A00000B5FFF7F7FF04494968C1F30221034A67
:1026B000515CC84000BD000000100240666900087F
:1026C00000B5FFF7E7FF04494968C1F3C221034A97
:1026D000515CC84000BD000000100240666900085F
:1026E00070B500210022002400230020134D6968EA
:1026F00001F00C05F5B1042D02D0082D19D101E02F
:102700000F4819E00F4DC1F38346AB5D01F48035EE
:1027100055B10A4D6D68C5F340450B4E725D084DCD
:102720005D43B5FBF2F402E0084D03FB05F42046DF
:1027300002E000BF024800BF00BF70BD00100240B1
:1027400000127A00446900085469000800093D003D
:10275000F8B504460CB90120F8BD207800F001005E
:10276000002878D0F848406800F00C0004280CD00D
:10277000F548406800F00C00082811D1F248406884
:1027800000F48030B0F5803F0AD1EF48006800F4D3
:10279000003000285FD0606800285CD10120DBE7B2
:1027A00000BF6068B0F5803F06D1E748006840F49C
:1027B0008030E549086028E0606858B9E248006860
:1027C00020F48030E04908600846006820F480204A
:1027D00008601AE06068B0F5A02F0BD1DA480068F5
:1027E00040F48020D84908600846006840F48030F2
:1027F00008600AE0D448006820F48030D2490860BC
:102800000846006820F48020086000BF606888B136
:10281000FFF724FA054606E0FFF720FA401B64287C
:1028200001D9032098E7C848006800F40030002868
:10283000F2D010E0FFF712FA054606E0FFF70EFAB5
:10284000401B642801D9032086E7BF48006800F4D4
:1028500000300028F2D1207800F00200022857D181
:10286000B948406800F00C0050B1B748406800F02B
:102870000C00082818D1B448406800F4803098B99A
:10288000B148006800F0020020B12069012801D0A1
:10289000012061E7AC48006820F0F800616940EA77
:1028A000C100A949086033E02069E8B10120A749C7
:1028B0000860FFF7D3F9054606E0FFF7CFF9401BA4
:1028C000022801D9032047E79F48006800F0020072
:1028D0000028F2D09C48006820F0F800616940EAC6
:1028E000C1009949086013E0002098490860FFF78B
:1028F000B5F9054606E0FFF7B1F9401B022801D9FA
:10290000032029E79048006800F002000028F2D177
:10291000207800F0080008282DD1A069B8B1012066
:102920008B490860FFF79AF9054606E0FFF796F92C
:10293000401B022801D903200EE78348406A00F0BB
:1029400002000028F2D0012001F048FE13E0002030
:102950007F490860FFF782F9054606E0FFF77EF938
:10296000401B022801D90320F6E67748406A00F0B0
:1029700002000028F2D1207800F00400042873D16E
:1029800000277148C06900F0805070B900BF6E48E0
:10299000C06940F080506C49C8610846C06900F0C9
:1029A0008050009000BF00BF01276A48006800F413
:1029B0008070B0B96748006840F48070654908606D
:1029C000FFF74CF9054606E0FFF748F9401B64287D
:1029D00001D90320C0E65F48006800F48070002839
:1029E000F2D000BFE068012806D15748006A40F0E5
:1029F00001005549086227E0E06858B95248006A6A
:102A000020F00100504908620846006A20F00400E6
:102A1000086219E0E06805280BD14B48006A40F0D5
:102A20000400494908620846006A40F00100086253
:102A30000AE04548006A20F0010043490862084660
:102A4000006A20F00400086200BFE068A0B1FFF750
:102A500005F9054609E0FFF701F9401B41F288310D
:102A6000884202D9032077E622E03748006A00F066
:102A700002000028EFD012E0FFF7F0F8054608E06A
:102A8000FFF7ECF8401B41F28831884201D903205E
:102A900062E62D48006A00F002000028F0D1012F04
:102AA00005D12948C06920F080502749C86100BF7E
:102AB000E069C8B32448406800F00C00082860D0E2
:102AC000E069022848D1002020490866FFF7C6F8CF
:102AD000054606E0FFF7C2F8401B022801D9032093
:102AE0003AE61948006800F000700028F2D1206A28
:102AF000B0F5803F07D11448406820F40030A16849
:102B0000084311494860D4E9080108430E4949685F
:102B100021F4741108430C49486001200B490866F0
:102B2000FFF79CF8054607E03DE0FFF797F8401BEC
:102B3000022801D903200FE60348006800F0007066
:102B40000028F2D02FE000000010024000004242B6
:102B50008004424200700040002014490866FFF7DC
:102B60007DF8054606E0FFF779F8401B022801D9F9
:102B70000320F1E50E48006800F000700028F2D153
:102B800011E0E069012800D1E6E50948466806F44D
:102B90008031206A814204D106F47011606A81425A
:102BA00001D00120D8E50020D6E500000000424217
:102BB0000010024010B504460CB9012010BD606A37
:102BC00038B96068B0F5827F00D105E00021E1618D
:102BD00002E00021216161610021A16294F85100AD
:102BE00028B9002084F85000204600F043F8022065
:102BF00084F851002068006820F0400021680860D7
:102C0000A08800F48270218901F404410843A1895D
:102C100001F400610843217C01F002010843217D99
:102C200001F001010843218B01F400710843217F69
:102C300001F0380108432021095D01F080010843BB
:102C4000218D01F400510843216808600421A06926
:102C500001EA1040216848602068C06920F40060E3
:102C60002168C86100206065012084F851000020BF
:102C7000A4E7000010B586B004460020029003903F
:102C8000049005901949206888422DD100BF18484A
:102C9000806940F48050164988610846806900F4D4
:102CA0008050019000BF00BF00BF0846806940F01F
:102CB000040088610846806900F00400019000BFAC
:102CC00000BFA0200290022003900320059002A9DB
:102CD0000848FEF723FE4020029000200390049055
:102CE00002A90448FEF71AFE06B010BD00300140EC
:102CF00000100240000801402DE9FE4F04460F4637
:102D000090461D460C9E01200190FEF7A7FF8146CC
:102D100094F851B060680290AA46BBF1010F0BD045
:102D20000298B0F5827F04D1A06810B9BBF1040FFE
:102D300002D00220BDE8FE8F1FB1B8F1000F00D015
:102D40000DB90120F6E700BF94F85000012801D129
:102D50000220EFE7012084F8500000BF94F85100F2
:102D6000042802D0052084F8510000206065C4F8D2
:102D70003880E587A5872763E586A586206460649B
:102D80002068006800F04000402805D020680068F6
:102D900040F0400021680860E068B0F5006F52D153
:102DA000606810B1BAF1010F09D1206B0088216869
:102DB000C860206B801C2063E08E401EE0863BE0F4
:102DC0002068806800F00200022810D1E08E70B107
:102DD000019801280BD1206B00882168C860206B06
:102DE000801C2063E08E401EE08600200190206859
:102DF000806800F0010068B1E08F58B12068C068B9
:102E0000A16B0880A06B801CA063E08F401EE08750
:102E100001200190FEF722FFA0EB0900B0420BD386
:102E2000701C48B1012084F8510000BF002084F8D4
:102E3000500000BF03207DE7E08E0028C0D1E08F66
:102E40000028BDD152E0606810B1BAF1010F09D17C
:102E5000206B007821680873206B401C2063E08E93
:102E6000401EE0863CE02068806800F002000228F6
:102E700010D1E08E70B1019801280BD1206B007841
:102E800021680873206B401C2063E08E401EE086A2
:102E9000002001902068806800F0010068B1E08F98
:102EA00058B12068C068A16B0870A06B401CA0637B
:102EB000E08F401EE08701200190FEF7CFFEA0EBDF
:102EC0000900B04201D3701C00B94EB9012084F84A
:102ED000510000BF002084F8500000BF032029E704
:102EE000E08E0028BFD1E08F0028BCD14A46314691
:102EF000204601F087FB40B12020606500BF002024
:102F000084F8500000BF012014E7A06850B900BF4A
:102F1000002000902068C0680090206880680090C1
:102F200000BF00BF012084F8510000BF002084F8DA
:102F3000500000BF606D08B10120FBE60020F9E6FB
:102F400070B504462546681EB0F1807F01D301208C
:102F50000FE0681E4FF0E02148610F214FF0FF3075
:102F600001F068FE00204FF0E02188610720086131
:102F7000002070BD10B50346002200BF93F83C004E
:102F8000012801D1022010BD012083F83C0000BFC0
:102F900022F0FF00CC6840EA040222F440708C6802
:102FA00040EA040222F480604C6840EA040222F401
:102FB00000600C6840EA040222F480500C6940EA88
:102FC000040222F400504C6940EA040222F48040DA
:102FD000CC6940EA04021868426400BF002083F80C
:102FE0003C0000BF00BFCEE730B502460B4600BF35
:102FF00092F83C00012801D1022030BD012082F866
:103000003C0000BF022082F83D0010684468106850
:10301000816824F070041868044310684460104DFF
:103020001068A8420BD01068B0F1804F07D00D4D4A
:103030001068A84203D00C4D1068A84205D121F0B9
:1030400080015868014310688160012082F83D00CA
:1030500000BF002082F83C0000BF00BFCDE70000A9
:10306000002C0140000400400008004010B586B06C
:103070000446002002900390049005903C4920688B
:10308000884217D100BF3B48806940F004003949AD
:1030900088610846806900F00400019000BF00BF0D
:1030A0000815029002200390059002A93248FEF70D
:1030B00035FC5BE02068B0F1804F16D100BF2D4891
:1030C000806940F004002B4988610846806900F05F
:1030D0000400019000BF00BF022002900390059001
:1030E00002A92548FEF71AFC40E0244920688842DE
:1030F00021D100BF1F48806940F008001D49886148
:103100000846806900F00800019000BF00BF102051
:10311000029002200390059002A91948FEF7FEFBD9
:1031200000BF1849486820F4406040F0E06040F477
:10313000006048601AE014492068884216D100BF38
:103140000C48806940F008000A4988610846806997
:1031500000F00800019000BF00BF48150290022057
:103160000390059002A90648FEF7D8FB06B010BDF3
:10317000002C014000100240000801400004004003
:10318000000C014000000140000800402DE9F04122
:1031900004460D461646002700BF94F83C0001285F
:1031A00002D10220BDE8F081012084F83C0000BF7C
:1031B00036B1042E1BD0082E31D00C2E5ED145E046
:1031C0002946206801F03EFB2068806940F0080035
:1031D000216888612068806920F004002168886186
:1031E00020688069296908432168886148E0294688
:1031F000206801F057FB2068806940F40060216876
:1032000088612068806920F4806021688861206876
:103210008069296940EA01202168886130E02946F7
:10322000206801F073FB2068C06940F00800216845
:10323000C8612068C06920F004002168C861206866
:10324000C069296908432168C86119E029462068D6
:1032500001F090FB2068C06940F400602168C861FB
:103260002068C06920F480602168C8612068C06956
:10327000296940EA01202168C86101E0012700BFF7
:1032800000BF00BF002084F83C0000BF384689E73B
:1032900010B504460CB9012010BD94F83D0028B9C2
:1032A000002084F83C00204600F026F8022084F834
:1032B0003D00211D206801F083FA012084F84600BA
:1032C00000BF84F83E0001213F20015540200155F8
:1032D0004120015500BF00BF012084F84200432077
:1032E0000155442001554520015500BF012084F8B7
:1032F0003D000020D0E7000008B5244A0168914253
:103300000DD100BF2249896941F40061204A9161D1
:103310001146896901F40061009100BF35E0016840
:10332000B1F1804F0DD100BF1949C96941F00101C8
:10333000174AD1611146C96901F00101009100BF2E
:1033400023E0144A016891420DD100BF1049C969B8
:1033500041F002010E4AD1611146C96901F0020132
:10336000009100BF11E00C4A016891420DD100BFED
:103370000749C96941F00401054AD1611146C9698B
:1033800001F00401009100BF00BF08BD002C014006
:1033900000100240000400400008004010B5044640
:1033A0000CB9012010BDA06900B100E000BF94F885
:1033B000410028B9002084F84000204600F02AF897
:1033C000242084F841002068C06820F4005021685F
:1033D000C860204601F028FB2068006920F4904076
:1033E000216808612068406920F02A00216848614E
:1033F0002068C06840F400502168C8600020606404
:10340000202084F8410084F842000020606300BF5F
:10341000C8E7000010B586B0044600200290039073
:10342000049005901949206888422DD100BF1848A2
:10343000C06940F400301649C8610846C06900F40C
:103440000030019000BF00BF00BF0846806940F017
:10345000040088610846806900F00400019000BF04
:1034600000BF04200290022003900320059002A9CF
:103470000848FEF753FA08200290002003900490B9
:1034800002A90448FEF74AFA06B010BD0044004005
:1034900000100240000801402DE9F84F04460E4696
:1034A000174699464FF0000A94F84100202850D161
:1034B00006B117B90120BDE8F88F00206064212013
:1034C00084F84100FEF7CAFB8246A784E784A0681F
:1034D000B0F5805F04D1206910B90025B04602E044
:1034E00035464FF000081EE053460022802120465A
:1034F000CDF8009001F016FB20B1202084F84100A7
:103500000320D8E745B9B8F80000C0F308002168E7
:10351000486008F1020803E02878216848606D1CC3
:10352000E08C401EE084E08C0028DDD15346002270
:1035300040212046CDF8009001F0F4FA20B120207F
:1035400084F841000320B6E7202084F841000020E1
:10355000B1E70220AFE700BFFEE701460868406917
:10356000C0F38020B0B16FF480600A685061002021
:103570000863202081F83D00002081F83E00086C9F
:1035800040F00400086400BF002081F83C0000BF48
:10359000012070470020FCE72DE9F84304460F4660
:1035A00015469946DDE908862068006840F4806089
:1035B000216808602068006840F480702168086015
:1035C000434600224FF001112046009600F037F9E3
:1035D00060B12068006800F48070B0F5807F02D18F
:1035E0004FF4007020640320BDE8F88307F0FE006C
:1035F00021680861334642463E49204600F07EF984
:1036000008B10120F0E700BF002000902068406969
:10361000009020688069009000BF00BF324641469C
:10362000204600F02DFA50B1206C042805D1206806
:10363000006840F40070216808600120D4E7B9F107
:10364000010F03D1E8B22168086117E0C5F3072034
:103650002168086132464146204600F011FA50B117
:10366000206C042805D12068006840F400702168AF
:1036700008600120B8E7E8B2216808613246414697
:10368000204600F0FDF950B1206C042805D12068D7
:10369000006840F40070216808600120A4E72068F9
:1036A000006840F4807021680860434600224FF0B3
:1036B00001112046009600F0C2F858B12068006859
:1036C00000F48070B0F5807F02D14FF40070206468
:1036D000032089E7F8B240F0010021680861334611
:1036E00042460449204600F009F908B101207BE771
:1036F000002079E7020001002DE9F84304468846DE
:1037000015469946DDE908672068006840F4807036
:1037100021680860334600224FF0011120460097CF
:1037200000F08DF860B12068006800F48070B0F59A
:10373000807F02D14FF4007020640320BDE8F8833D
:1037400008F0FE00216808613B46324621492046C8
:1037500000F0D4F808B10120F0E700BF002000908D
:1037600020684069009020688069009000BF00BF19
:103770003A463146204600F083F950B1206C0428C7
:1037800005D12068006840F40070216808600120BD
:10379000D4E7B9F1010F03D1E8B22168086117E05D
:1037A000C5F30720216808613A463146204600F0FB
:1037B00067F950B1206C042805D12068006840F4F6
:1037C0000070216808600120B8E7E8B2216808614C
:1037D0000020B3E70200010070B504460D4616460E
:1037E00025E02046FFF7B9FE08B1012070BD681C36
:1037F000E8B1FEF733FA801BA84200D8BDB92068B3
:103800004069C0F3800090B900202063202084F834
:103810003D00002084F83E00206C40F02000206431
:1038200000BF002084F83C0000BF0120DEE72068D4
:103830004069C0F380000028D3D00020D6E72DE9EE
:10384000F04104460D4617461E46DDF8188038E064
:10385000701CA8B3FEF702FAA0EB0800B04200D833
:1038600076BBC5F3074001280AD120684069A9B298
:103870000840A9B2884201D101200BE0002009E0F4
:1038800020688069A9B20840A9B2884201D101200C
:1038900000E00020B84214D100202063202084F8EA
:1038A0003D00002084F83E00206C40F020002064A1
:1038B00000BF002084F83C0000BF0120BDE8F0817B
:1038C000FFE7C5F3074001280AD120684069A9B283
:1038D0000840A9B2884201D101200BE0002009E094
:1038E00020688069A9B20840A9B2884201D10120AC
:1038F00000E00020B842ABD00020DFE72DE9F04126
:1039000004460D4616461F4658E020684069C0F33D
:103910008020E8B12068006840F4007021680860E9
:103920006FF480602168486100202063202084F8C3
:103930003D00002084F83E00206C40F0040020642C
:1039400000BF002084F83C0000BF0120BDE8F081EA
:10395000701C90B3FEF782F9C01BB04200D866BB62
:10396000C5F3074001280AD120684069A9B2084080
:10397000A9B2884201D101200BE0002009E02068B3
:103980008069A9B20840A9B2884201D1012000E0B3
:10399000002090B900202063202084F83D00002002
:1039A00084F83E00206C40F02000206400BF00201E
:1039B00084F83C0000BF0120C8E7FFE7C5F30740DB
:1039C00001280AD120684069A9B20840A9B28842FA
:1039D00001D101200BE0002009E020688069A9B234
:1039E0000840A9B2884201D1012000E0002000284F
:1039F0008BD00020AAE770B504460D46164637E086
:103A000020684069C0F30010A0B16FF01000216879
:103A1000486100202063202084F83D00002084F8C5
:103A20003E00206C206400BF002084F83C0000BFF2
:103A3000012070BDFEF712F9801BA84200D8BDB965
:103A400020684069C0F3801090B9002020632020D6
:103A500084F83D00002084F83E00206C40F02000F7
:103A6000206400BF002084F83C0000BF0120E0E794
:103A700020684069C0F380100028C1D00020D8E73A
:103A800070B504460D46164625E02046FFF765FD55
:103A900008B1012070BD681CE8B1FEF7DFF8801B9B
:103AA000A84200D8BDB920684069C0F3C01090B9E1
:103AB00000202063202084F83D00002084F83E0090
:103AC000206C40F02000206400BF002084F83C00FF
:103AD00000BF0120DEE720684069C0F3C010002865
:103AE000D3D00020D6E7000010B5002204210E48F4
:103AF000FEF7AEF8642002F0C9FB012204210A4857
:103B0000FEF7A6F8C82002F0C1FB002204210648F7
:103B1000FEF79EF8642002F0B9FB0122042102485E
:103B2000FEF796F810BD0000000C014010B5002211
:103B300004210648FEF78CF8642002F0A7FB01225E
:103B400004210248FEF784F810BD0000000C01407B
:103B500010B50446A18801222068FEF779F810BD4F
:103B600010B50446A18800222068FEF771F810BD48
:103B700010B50446A1882068FEF760F810BD00006B
:103B800010B505220E49102000F07EF805220D49DF
:103B9000302000F0CDF805220949102000F074F81B
:103BA000002109E00648405C064A525C904201D080
:103BB000012010BD481CC1B20529F3DB0020F8E745
:103BC0005D0100205801002010B5C820FDF792FECD
:103BD00002E00A20FDF78EFEFFF7D2FF0128F8D0A1
:103BE00000F020F8E42102A000F0E4FF10BD000086
:103BF0005B696E746572666163655C496E745F5380
:103C000049323452312E633A25645D2053493234AF
:103C1000523120696E697420737563636573730A2A
:103C20000000000010B500224FF480711448FEF728
:103C30000FF8052213492A2000F07AF801212120EB
:103C400000F098F80121222000F094F82821252086
:103C500000F090F81121312000F08CF80621262088
:103C600000F088F80F21202000F084F8FF212720A1
:103C700000F080F8012211020148FDF7E9FF10BDB4
:103C800000080140580100202DE9F04107460D468B
:103C90001646002210210C48FDF7DAFF384600F0E6
:103CA000D3FC8046002405E0002000F0CDFC285520
:103CB000601CC4B2B442F7DB012210210248FDF7B8
:103CC000C7FF4046BDE8F0810008014070B50446DA
:103CD000002210210848FDF7BBFF204600F0B4FC8D
:103CE000002000F0B1FC0546012210210248FDF73A
:103CF000AFFF284670BD00000008014070B50446C3
:103D00000720FFF7E3FF05462946272000F032F899
:103D100005F0400050B1112221466120FFF7B4FFA9
:103D2000FF21022000F026F8002070BD0120FCE7F2
:103D30002DE9F04107460C461546002210210C489B
:103D4000FDF786FF384600F07FFC8046002605E040
:103D500014F8010B00F078FC701CC6B2AE42F7DB21
:103D6000012210210248FDF773FF4046BDE8F081B3
:103D70000008014070B505460C4600221021084895
:103D8000FDF766FF284600F05FFC0646204600F07F
:103D90005BFC012210210248FDF75AFF304670BD3E
:103DA0000008014010B50446204600F0F1F8A01DBF
:103DB00000F0A8F810BD00002DE9F04F87B00020FA
:103DC0000590069003900490824603A800F09AF8AC
:103DD0003AE005A800F096F8BDF91430BDF90CC022
:103DE000A3EB0C02002A01DB134600E05342B3F5BB
:103DF000C87F20DABDF91630BDF90EC0A3EB0C0167
:103E0000002901DB0B4600E04B42B3F5C87F12DA14
:103E1000BDF91830BDF910C0A3EB0C00002801DB80
:103E2000034600E04342B3F5C87F04DA0AF101001B
:103E300000F0FF0A01E04FF0000ADDE90501CDE9DD
:103E40000301062002F022FABAF1640FC1DB002060
:103E50000090019002900024002500260027804653
:103E6000814683461DE06846FFF79CFFBDF90000D0
:103E70000444BDF902000544BDF904000644BDF93F
:103E800014000744BDF916008044BDF91800A0F5E0
:103E900080408144062002F0F9F90BF1010000F0A6
:103EA000FF0BBBF1640FDEDB642094FBF0F00F49E5
:103EB0000860642095FBF0F00D490860642096FBD3
:103EC000F0F00C490860642097FBF0F00A490860A4
:103ED000642098FBF0F009490860642099FBF0F039
:103EE0000749086007B0BDE8F08F000064010020BA
:103EF000680100206C010020700100207401002086
:103F0000780100201CB5044600200190009001A912
:103F10003B2000F0BBF869463C2000F0B7F89DF864
:103F200000009DF8041040EA012016490988401A53
:103F300000B2208001A93D2000F0A8F869463E208B
:103F400000F0A4F89DF800009DF8041040EA01205C
:103F50000D490988401A00B2608001A93F2000F095
:103F600095F86946402000F091F89DF800009DF812
:103F7000041040EA012005490988401A00B2A080D7
:103F80001CBD000070010020740100207801002099
:103F90001CB5044600200190009001A9432000F0C8
:103FA00075F86946442000F071F89DF800009DF80E
:103FB000041040EA012016490988401A00B2208006
:103FC00001A9452000F062F86946462000F05EF83D
:103FD0009DF800009DF8041040EA01200D49098871
:103FE000401A00B2608001A9472000F04FF86946EE
:103FF000482000F04BF89DF800009DF8041040EABE
:10400000012005490988401A00B2A0801CBD0000AB
:1040100064010020680100206C01002008B58021A7
:104020006B2000F045F80020009003E069466B200B
:1040300000F02CF89DF800004028F7D100216B20FB
:1040400000F036F818211B2000F032F800211C2067
:1040500000F02EF80021382000F02AF800216A2014
:1040600000F026F80121192000F022F801211A2081
:1040700000F01EF801216B2000F01AF800216C20DE
:1040800000F016F8FFF798FE08BD00003EB50446A4
:104090000D464FF47A7001210B462246CDE90051BE
:1040A0000290D1210148FDF7C7FE3EBD84010020EA
:1040B00013B584B004464FF47A70012105AA0B466B
:1040C000CDE9002102902246D0210248FEF76EF889
:1040D00006B010BD8401002008B502F0B7FA0090C8
:1040E000002452E0601CC4B22848007830B9284847
:1040F000FFF736FD2748FFF733FD09E02348007836
:10410000012805D12248FFF723FD2248FFF720FDB3
:104110002148007830B1012811D002281DD0032891
:1041200029D121E0052094FBF0F100FB114028B9D2
:104130001A48FFF71DFD1A48FFF71AFD1BE020463D
:1041400004EBD0714910A4EB410129B91348FFF7E2
:104150000FFD1348FFF70CFD0DE01048FFF700FDC1
:104160000F48FFF7FDFC06E00C48FFF7F1FC0C4898
:10417000FFF7EEFC00BF00BF0A2C00D1002400BFF7
:104180006421684602F072F900BFABE72801002005
:104190000801002010010020290100201801002042
:1041A0002001002000B585B000200190029003900E
:1041B000049000BF3048806940F010002E498861AB
:1041C0000846806900F01000009000BF00BF00BFEB
:1041D0000846806940F0200088610846806900F048
:1041E0002000009000BF00BF00BF0846806940F07B
:1041F000040088610846806900F00400009000BF58
:1042000000BF00BF0846806940F00800886108468A
:10421000806900F00800009000BF00BF012241F655
:1042200010011648FDF714FD01224CF20401144858
:10423000FDF70EFD00224FF480711048FDF708FDD8
:1042400041F61010019001200290002003900220FE
:10425000049001A90948FDF761FB4CF204000190AC
:1042600001200290002003900220049001A904483C
:10427000FDF754FB05B000BD0010024000080140EE
:10428000000C014010B50B480B4908600B48486012
:10429000002109488160C1604FF480410161002123
:1042A00041618161C1610162FDF7DEFC08B1FDF78A
:1042B0000EFB10BD0054004084010020801A06004F
:1042C00010B50E480E4908604FF482704860002116
:1042D0000B488160C160016141614FF400718161EF
:1042E0001021C16100210162416281620A21C16223
:1042F000FEF760FC08B1FDF7EAFA10BD003001409E
:10430000D801002000B591B000200F9010901C2122
:1043100008A8FBF76AFF20216846FBF766FF2348E1
:10432000234908600320486000212148816040F251
:10433000E731C1600021016141618161FEF7A8FFA1
:1043400008B1FDF7C4FA00200F9010900FA918488B
:10435000FEF74AFE08B1FDF7BAFA60200890C820BF
:10436000099000200A900B900C900D900E9008225E
:1043700008A90F48FEF70AFF08B1FDF7A8FA0020C8
:10438000009001900290039004904FF4005005902B
:104390000020079069460648FEF7ECFD08B1FDF7DE
:1043A00096FA0348FEF762FE11B000BD002C0140F2
:1043B0003002002000B589B00020079008901C2131
:1043C0006846FBF712FF4FF0804018490860032051
:1043D000486000211548816040F2E731C16000214A
:1043E00001618161FEF754FF08B1FDF770FA00200A
:1043F0000790089007A90D48FEF7F6FD08B1FDF7F4
:1044000066FA60200090C82001900020029004907D
:10441000042269460548FEF7B9FE08B1FDF757FAD0
:104420000248FEF723FE09B000BD0000780200201C
:1044300000B589B00020079008901C216846FBF762
:10444000D4FE184818490860032048600021164827
:10445000816040F2E731C160002101618161FEF7B6
:1044600017FF08B1FDF733FA00200790089007A95D
:104470000D48FEF7B9FD08B1FDF729FA602000905C
:10448000C82001900020029004900022694606484E
:10449000FEF77CFE08B1FDF71AFA0348FEF7E6FDC9
:1044A00009B000BD00040040C002002000B589B082
:1044B0000020079008901C216846FBF796FE1848DC
:1044C000184908600320486000211648816040F2C6
:1044D000E731C160002101618161FEF7D9FE08B1B9
:1044E000FDF7F5F900200790089007A90D48FEF7A1
:1044F0007BFD08B1FDF7EBF960200090C82001902A
:104500000020029004900C2269460648FEF73EFE09
:1045100008B1FDF7DCF90348FEF7A8FD09B000BDBE
:10452000000800400803002010B50B480B49086044
:104530004FF4E1304860002108488160C1600161AA
:104540000C21416100218161C161FEF727FF08B1A3
:10455000FDF7BDF910BD00000044004050030020ED
:1045600000BFFEE700BFFEE702F070F80DE042F288
:1045700010720121002001F0B3FD044614B1FFF7D1
:10458000B3FA01E0FFF7D2FA00BFF0E72DE9F05FE0
:1045900004464FF07F594FF07C512046FBF788FED0
:1045A000824625462E460C48A0EB6606354629462F
:1045B0005046FBF77DFE83462946FBF779FE804691
:1045C0004946FBF772FE07462946FBF771FE054692
:1045D0002846BDE8F09F0000DF59375F08B508495D
:1045E0000968C9084FF47A72B1FBF2F141430091B6
:1045F00000BF00BF00994A1E00920029F9D108BDF2
:104600000C000020F8B504460E461546334601223C
:1046100002212046009500F029F828B1606D40F095
:10462000200060650320F8BD33460022802120462B
:10463000009500F01BF828B1606D40F02000606527
:104640000320F0E70020EEE701B582B000200190E2
:10465000FF20012301AA02A900900348FEF74CFBAA
:104660009DF804000EBD0000D80100202DE9F84F90
:1046700004460D4690461E46DDF82890FDF7EEFAFA
:10468000A0EB0900371AFDF7E9FA82462C480068CA
:10469000C0F3CB307843009045E0701C002842D036
:1046A000FDF7DCFAA0EB0A00B84200D2A7BB2068F5
:1046B000406820F0E000216848606068B0F5827FC3
:1046C0000DD1A068B0F5004F03D0A068B0F5806FA1
:1046D00005D12068006820F0400021680860A06AC9
:1046E000B0F5005F0DD100BF2068006820F40050D5
:1046F000216808602068006840F400502168086064
:1047000000BF012084F8510000BF002084F8500051
:1047100000BF0320BDE8F88FFFE7009800B900272D
:104720000098401E0090206880682840A84201D16F
:10473000012000E000204045AFD10020EAE7000062
:104740000C00002010B501F071FF012801D001F02C
:104750003FFEFDF717FE10BD00B58FB0282105A85C
:10476000FBF743FD14216846FBF73FFD0120059050
:1047700000040690002007900120099002200C9070
:10478000C1030D914FF4E0110E9105A8FDF7E0FF74
:1047900008B1FDF79CF80F20009002200190002046
:1047A00002904FF48060039000200490022168463C
:1047B000FDF7AAFE08B1FDF78AF80FB000BD7047FB
:1047C00010B502681C4B984208D0B0F1804F05D05C
:1047D0001A4B984202D01A4B984203D122F0700231
:1047E0004B681A43144B984208D0B0F1804F05D063
:1047F000124B984202D0124B984203D122F44072DD
:10480000CB681A4322F080034C6943EA0402026039
:104810008B68C3620B688362074B984201D10B69B6
:10482000036301234361036903F001031BB10369BF
:1048300023F00103036110BD002C0140000400407F
:104840000008004030B5026A056A25F001050562DE
:104850004368846924F0700424F003040D682C4339
:1048600022F002028D682A430D4DA84206D100BFF6
:1048700022F00802CD682A4322F00402084DA84223
:1048800007D123F4807323F400734D692B438D69A2
:104890002B43436084614D684563026230BD000074
:1048A000002C014030B5026A056A25F0100505624A
:1048B0004368846924F4E04424F440740D6844EAB5
:1048C000052422F020028D6842EA05120E4DA8420E
:1048D00007D100BF22F08002CD6842EA051222F023
:1048E0004002094DA84209D123F4806323F40063F8
:1048F0004D6943EA85038D6943EA8503436084611A
:104900004D688563026230BD002C014030B5026AFB
:10491000056A25F4807505624368C46924F0700453
:1049200024F003040D682C4322F400728D6842EADF
:1049300005220F4DA84207D100BF22F40062CD68C6
:1049400042EA052222F48062094DA84209D123F4EB
:10495000805323F400534D6943EA05138D6943EAFC
:1049600005134360C4614D68C563026230BD000039
:10497000002C014030B5036A056A25F480550562B4
:104980004468C26922F4E04222F440720D6842EAAF
:10499000052223F400538D6843EA0533064DA842EF
:1049A00004D124F480444D6944EA85144460C26112
:1049B0004D680564036230BD002C014000BF00BF9C
:1049C00002680C3252E8002F22F4907102680C3217
:1049D00042E80013002BF3D100BF00BF00BF026804
:1049E000143252E8002F22F001010268143242E82A
:1049F0000013002BF3D100BF016B01290ED100BFC2
:104A000000BF02680C3252E8002F22F01001026849
:104A10000C3242E80013002BF3D100BF202180F8B4
:104A2000421000210163704770B50446216809698E
:104A300021F44051E2681143226811612269A168A2
:104A40001143626941EA02052168C96841F20C62BA
:104A5000914329432268D1602168496921F440715A
:104A6000A2691143226851612D4A2168914202D105
:104A7000FDF726FE01E0FDF713FE00EBC00101EBA0
:104A8000001162689200B1FBF2F100EBC00202EB90
:104A9000001263689B00B2FBF3F26423B2FBF3F2F3
:104AA00002EBC20303EB0212A1EB8201322202EB02
:104AB00001116422B1FBF2F101F0F00100EBC00240
:104AC00002EB001263689B00B2FBF3F26423B2FBBB
:104AD000F3F201EB021200EBC00101EB001163687D
:104AE0009B00B1FBF3F100EBC00303EB001366681E
:104AF000B600B3FBF6F36426B3FBF6F303EBC30691
:104B000006EB0313A1EB8301322303EB01116423B2
:104B1000B1FBF3F101F00F0111442268916070BD07
:104B2000003801402DE9F84304460D4617469846E3
:104B3000089E31E0701C70B3FDF790F8A0EB080000
:104B4000B04200D816B90320BDE8F8832068C068D9
:104B500000F00400F8B1802D1ED0402D1CD020683C
:104B60000068C0F3C000B0B100BF00200090206812
:104B70000068009020684068009000BF00BF204699
:104B8000FFF71CFF0820606400BF002084F840008D
:104B900000BF0120D8E7FFE7206800682840A8424E
:104BA00001D1012000E00020B842C3D00020CBE7B3
:104BB00000BFFEE70FB4054B10B503A9044A0298E5
:104BC00000F090F910BC5DF814FB0000E15A0008F9
:104BD0007C010020490050EAC12018BF04204A0D82
:104BE00018BF40F0010040F2FF72B2EB515F08BF06
:104BF00040F00200012808BF05207047410008026C
:104C000018BF04200A0E18BF40F001004FF07F4289
:104C100032EA010108BF40F00200012808BF052068
:104C20007047000002480068C0F30220704700008F
:104C30000CED00E010B5002804DB0A07130E054A4E
:104C4000135406E00A07140E034A00F00F031B1F5B
:104C5000D45410BD00E400E018ED00E02DE9F0416F
:104C60004F1E00EBC7010446D1E9000115461E4660
:104C700037F006020DD02A463346FBF730FC7F1E84
:104C800004EBC703D3E90023FBF782FB37F00602EE
:104C9000F1D1022F25D0042F13D0062F18BFBDE865
:104CA000F0812A463346FBF71AFCD4E90A23FBF7C6
:104CB0006FFB2A463346FBF712FCD4E90823FBF7C7
:104CC00067FB2A463346FBF70AFCD4E90623FBF7C9
:104CD0005FFB2A463346FBF702FCD4E90423FBF7CB
:104CE00057FB2A463346FBF7FAFBD4E90223FBF7CE
:104CF0004FFB2A463346FBF7F2FBD4E90023BDE81D
:104D0000F041FBF745BB0122FBF751BE00221346E1
:104D100010461146FBF7DCBD024A00201107FBF7E5
:104D200046BE000001FDFFFFFBF76ABA6FF05E01AF
:104D30000807FBF795BE02E008C8121F08C1002A49
:104D4000FAD170477047002001E001C1121F002A0C
:104D5000FBD17047014908607047000080010020C6
:104D60002DE9FF5F82B00021DDE90430020DDDF89E
:104D700040B0034318D044F61050A2F2FF32424331
:104D80001514119801281FD0A5EB0B00401C5FEAF9
:104D9000000A4FF000064E4FDFF83891B0465046FB
:104DA00015D5CAF1000413E0119801244AA3012883
:104DB00001D16FEA0B010298119AC0E90031C0E9F4
:104DC000024206B0BDE8F09FCBF10000DFE70446E9
:104DD0000021404A491842EB0450CDE9001012E08E
:104DE000E00707D032463B4640464946FBF777FB93
:104DF0008046894632463B4610461946FBF76FFB14
:104E000006460F466410002CEAD1DDE90401DDE915
:104E10000023BAF1000F06DAFBF761FB42464B466E
:104E2000FBF75DFB05E0FBF753FD42464B46FBF706
:104E30004FFD04460E460022284BFBF7E7FD03D842
:104E40004FF0FF30014607E00022254B2046314657
:104E5000FBF79EFAFBF7C2FD102409E0002C0ADBE9
:104E60000A220023FBF74EFC039B30321A55641EC6
:104E700050EA0102F2D1641C039AC4F111031444F4
:104E8000119A012A03D0012208430DD10AE00843F8
:104E900004D000204FF0110B119072E7A3EB0B052B
:104EA0006D1E0DE05B4504DD4FF0000205F10105CC
:104EB00004E003DA4FF00002A5F10105002AECD06E
:104EC00002981199C0E90231C0E9004579E7000074
:104ED000000014400000F03F300000000000F043EC
:104EE0000000E03F2DE9FF4F95B09B4689460646FE
:104EF00000250FE2252877D100242746F84A012112
:104F0000059400E0044316F8013F203B01FA03F04A
:104F10001042F7D130782A2811D06FF02F03307863
:104F2000A0F13002092A16D8059A44F0020402EBD7
:104F3000820203EB42021044761C0590EFE759F819
:104F4000042B0592002A03DA504244F400540590E1
:104F500044F00204761C30782E2816D116F8010F82
:104F600044F004042A280DD06FF02F023078A0F10D
:104F70003003092B09D807EB870302EB4303C7185B
:104F8000761CF3E759F8047B761C30786C280FD038
:104F900006DC4C2817D068280DD06A2814D104E00C
:104FA000742810D07A280FD10DE044F400140AE0E0
:104FB00044F4801401E044F440147278824202D137
:104FC00004F58014761C761C307866280BD013DC30
:104FD000582877D009DC002875D04528F6D0462817
:104FE000F4D047281AD19DE118E0632835D0642811
:104FF00079D0652812D195E1702873D008DC672834
:10500000F1D069286FD06E280DD06F2806D1B5E099
:1050100073282CD0752875D0782874D05A461799E3
:1050200090476D1C75E1C4F30250022809D0032893
:105030000DD0D9F8001004280DD00D6009F1040935
:1050400067E1D9F80010EA17C1E90052F6E7D9F88C
:1050500000100D80F2E70D70F0E719F8041B8DF8D1
:10506000001000208DF80100EA46012003E059F805
:1050700004AB4FF0FF3061074FF0000102D40DE0A8
:1050800008F101018846B9420FDA8045F8DB1AF8C9
:1050900008100029F4D108E008F101018846814296
:1050A000FADB1AF808100029F6D105985B46A0EB48
:1050B000080721463846179A00F094FA284400EB76
:1050C000080507E04DE029E10DE01AF8010B5A460A
:1050D00017999047B8F10108F7D25B462146384648
:1050E000179A13E142E00A220092C4F302524FF0F1
:1050F000000A022A08D059F804CB032A4FEAEC71BF
:105100000AD00DE029E02AE009F1070121F00702A9
:10511000F2E802C1914609E00FFA8CFC4FEAEC710B
:10512000042A03D14FFA8CFC4FEAEC71002907DA0C
:105130000A460021DCF1000C61EB02012D2202E0A5
:10514000220504D52B228DF80420012203E0E2077A
:1051500001D02022F7E7904659E00A2102E0102210
:105160000DE010214FF0000A00910BE010224FF0EB
:10517000000A44F004040827009203E008224FF0DC
:10518000000A0092C4F30252022A05D059F804CB57
:105190000021032A08D009E009F1070121F00702E4
:1051A000F2E802C1914605E01FFA8CFC042A01D105
:1051B0000CF0FF0C4FF00008220728D5702806D00D
:1051C000009B83F0100353EA0A0305D00EE040224F
:1051D0008DF80420012208E05CEA010206D03022AA
:1051E0008DF804208DF8050002229046009B83F084
:1051F000080353EA0A030AD15CEA010201D16207FB
:1052000005D530228DF804204FF001087F1E582864
:1052100004D034A003900EA802900DE036A0F9E768
:1052200053466046009AFBF76DFA84460398825C09
:105230000298401E029002705CEA0100F0D10298D0
:1052400006A9081A00F1200A600702D524F4803468
:1052500000E00127574502DDA7EB0A0000E000202F
:1052600000EB0A01009005984144401A0590E003C4
:1052700006D45B462146179A059800F0B3F9054419
:10528000002706E001A85A46C05D179990476D1C9B
:105290007F1C4745F6DBE0030CD55B462146179A99
:1052A000059800F09FF9054404E030205A4617990C
:1052B00090476D1C0099481E00900029F5DC08E01D
:1052C000029802995A460078491C02911799904712
:1052D0006D1CBAF10001AAF1010AF1DC65E10000E0
:1052E00009280100303132333435363738396162BC
:1052F0006364656600000000303132333435363780
:1053000038394142434445460000000000F058F956
:105310000544761C307800287FF4ECAD19B028469F
:10532000BDE8F08F620700D4062709F1070222F0DA
:10533000070CFCE80223E14603F000485FEA080C92
:1053400002D00FF2702C0DE05FEA045C02D50FF280
:10535000682C07E05FEAC47C02D00FF2602C01E009
:10536000AFF2700C4FF0FF3823F00043CDF850C07F
:1053700065280CD006DC452809D046281DD04728D2
:105380003DD13DE0662818D067287ED138E0002165
:10539000112F01DB112000E0781CCDE9000106A9E6
:1053A0000EA8FFF7DDFCDDE90F010E9A0391002145
:1053B000009207F1010A04914DE04FF00040009780
:1053C000CDE9011006A90EA8FFF7CAFCDDE90F021E
:1053D00003920E9B11990022DDF80CA00093049219
:1053E00011B9791C00EB010AB7EB0A0004D4C0F133
:1053F000FF3007F1010A0490AAEB0700019044E096
:10540000012F00DA01270021112F01DD112000E01A
:105410003846CDE9000106A90EA8FFF7A1FCDDE999
:105420000F010E9A0391002104910092BA462107C0
:105430000CD40399514500DA8A46BAF1010F05DD13
:10544000009AAAF10101515C302908D0B84202DA71
:1054500010F1040F06DA0121CDE9011015E0AAF1DF
:105460000101E9E7002805DC049901440491AAEB55
:10547000000102E0411C514500DD8A460499401AB2
:10548000401C01904FF000400290200704D4019886
:10549000504501DBCDF8048000208DF84F000298C4
:1054A0000DF14F07B0F1004F25D02B200E90029840
:1054B0004FF0020800280CDA404202902D200E9096
:1054C00007E00A210298FBF707F93031029007F84C
:1054D000011DB8F10001A8F10108F2DC02980028D2
:1054E000EFD1791E0E980870307800F0200040F05F
:1054F000450007F8020D12A8C01B00F10708149818
:10550000007800B1012000EB0A01019801EBE07185
:1055100005984144401A401E0590E00306D45B46BE
:105520002146179A059800F05DF805441498007814
:1055300018B15A46179990476D1CE00324D55B4675
:105540002146179A059800F04DF805441CE0049890
:10555000002807DBDDE90301884203DD0098405C99
:10556000179901E0179930205A469047049805F1A1
:105570000105401C04900198401E019004D12E208A
:105580005A46179990476D1CBAF10001AAF1010A19
:10559000DDDC05E017F8010B5A46179990476D1CA2
:1055A000B8F10001A8F10108F4DC5B462146179A26
:1055B0000598ABE62D0000002B0000002000000045
:1055C0002DE9F041044600251E461746880404D400
:1055D00005E039462020B0476D1C641EF9D52846E9
:1055E000BDE8F0812DE9F041044600251E469046B5
:1055F000C80301D5302700E02027880404D505E042
:1056000041463846B0476D1C641EF9D52846BDE8B2
:10561000F08100002DE9F04D8D4F21F0004A86B059
:1056200005460C46BA452ADBAAEB070028430AD0F8
:105630008848824501DC1AD1CDB106B02846BDE8C4
:10564000F04DFFF760BB844A844B2846FAF747FFCA
:1056500007460E46824A834B28462146FAF73FFF0B
:1056600006B03A463346BDE8F04DFAF791BE012048
:10567000FFF770FB06B0BDE8F04DFFF747BB7A4877
:10568000824542DABAF1795F0BDA2846FFF7A2FACF
:10569000042808BFFFF740FB284606B02146BDE8B6
:1056A000F08D2A460B461046FAF719FF834602464C
:1056B0006E480E460B4606217844FFF7CFFA5A464D
:1056C0003346FAF70CFF804669488A465A46334605
:1056D00004217844FFF7C2FA5A463346FAF7FFFE30
:1056E00000223B46FAF754FE02460B46404651461E
:1056F000FBF7EEF82A462346FAF7F1FE06B02A46F3
:105700002346BDE8F04DFAF743BE284624F0004199
:1057100000223D463B46FAF7DFFE4FF0FF32FBF733
:1057200046F90646024653480F460B460621784482
:10573000FFF794FA32463B46FAF7D1FECDE9000175
:105740004D4832463B4604217844FFF787FA3246FB
:105750003B46FAF7C4FE00222B46FAF719FE8346B1
:1057600002913046394600F095FC804643480D468C
:10577000504517DCDDE900015A46029BFBF7A8F80B
:1057800042462B46FAF7ABFE42462B46FAF700FE9E
:105790000122FBF70CF9304A304BFAF79AFE304AF7
:1057A000304B4CE04FF0000A52460B464046FAF7A9
:1057B000EFFDCDE9031052462B4610461946FAF785
:1057C0008EFE32463B46FAF787FEDDE90332FBF7F1
:1057D0007FF806460F46DDE900015A46029BFBF7BB
:1057E00077F883460091012230463946FBF7DFF80F
:1057F000194A1A4BFAF770FE06460F460122404638
:105800002946FBF7D4F85A46009BFAF768FE324661
:105810003B46FAF75EFE06460F46012250462946F1
:10582000FBF7C5F80E4DDFF858802A464346FAF7D5
:1058300053FE32463B46FAF74FFE2A464346FAF7F6
:105840004BFE002CD8BF81F0004106B0BDE8F08DC2
:105850000000F03F0000F07F075C143326A6913C67
:10586000182D4454FB21F93F0000E03FB412000022
:10587000CA1200003E120000541200003333EF3F02
:10588000FB21E93F2DE9F0474FF0684202EB40036E
:105890000C460546B3F1654F3CBF02EB4102B2F145
:1058A000654F7CD2C0F3C753C1F3C7529A1A1B2A63
:1058B00006DD10F0004F14BF76487748BDE8F0874A
:1058C00012F11A0F17DA11F0004F06D010F0004F46
:1058D0000CBF72487248BDE8F08721462846FAF7A7
:1058E00019FD0446FFF78AF9042808BFFFF71EFADE
:1058F0002046BDE8F0874200B2EB410F25D910F0F9
:10590000004F19BF674F684E684F694E224685F0B9
:10591000004415460A4680F0004110460A1A52001B
:10592000B2F1807F40D248406249DFF88CA110F08C
:10593000004F18D04FF03F483846FAF7B3FC0746FF
:1059400051463046FAF7AEFC17E011F0004F04BFA5
:1059500000263746E2D010F0004F19BF574F584E7F
:10596000584F594EDAE74FF07C583846FAF748FC62
:10597000074651463046FAF743FC0646414628465C
:10598000FAF796FC2146FAF73BFC82462146404650
:10599000FAF78EFC2946FAF788FC514600E037E01A
:1059A000FAF7B8FC044604E021462846FAF7B2FCB0
:1059B00004460146FAF77CFC80464449FAF778FC35
:1059C0004349FAF71DFC4146FAF772FC4149FAF7E0
:1059D00017FC4146FAF76CFC3F49FAF711FC4146C7
:1059E000FAF766FC3D49FAF70BFC054641462046AE
:1059F000FAF75EFC2946FAF75BFC3146FAF700FC41
:105A00002146FAF7FDFB3946BDE8F047FAF7F8BB47
:105A10004FF07F42B2EB400F28BFB2EB410F03D2F1
:105A2000BDE8F047FFF780B940EA01035B0008BF1B
:105A300044F0FF410AD0B2EB400F08BFB2EB410F78
:105A400006D125F0804024F0804105460C4629E728
:105A5000B2EB400F12BF5FEA410245F0FF4004F095
:105A600000413FF41FAF4A0092EA40033FF51AAFEE
:105A7000002AACBF4FF09F464FF03E563146FAF732
:105A800017FC054631462046FAF712FC0446284624
:105A9000214607E7DB0FC9BFDB0FC93FDB0F4940DA
:105AA000DB0F49C00000C9BF22AAFDB90000C93FF1
:105AB00022AAFD390060ED3EC30ACE37000049C07E
:105AC00022AA7DBA0000494022AA7D3A2DAD65BDCB
:105AD0008FB8D53D0FB511BE61C84C3EA8AAAABE6D
