:020000040800F2
:10000000784D00209901000801490008B93800081E
:10001000FD48000841120008794E00080000000069
:1000200000000000000000000000000001010008C6
:10003000111C00080000000045010008E14A00080A
:10004000B3010008B3010008B3010008B3010008C0
:10005000B3010008B3010008B3010008B3010008B0
:10006000B3010008B3010008B3010008B3010008A0
:10007000B3010008B3010008B3010008B301000890
:10008000B3010008B3010008B3010008B301000880
:10009000B3010008B3010008B3010008B301000870
:1000A000B3010008B3010008B3010008B301000860
:1000B000B3010008B3010008B3010008B301000850
:1000C000B3010008B3010008B3010008B301000840
:1000D000B3010008B3010008B3010008B301000830
:1000E000B3010008B3010008B3010008DFF80CD029
:1000F00000F054FC00480047D5540008784D00201B
:10010000224B19680868B0E8F00F80F30988BFF344
:100110006F8F4FF0000080F311884EF00D0E704786
:100120000000000006480068006880F3088862B696
:1001300061B6BFF34F8FBFF36F8F00DF00BF00BF0B
:1001400008ED00E0EFF30980BFF36F8F0F4B1A68E3
:1001500020E9F00F106008B54FF0BF0080F3118860
:10016000BFF34F8FBFF36F8F05F0BCFD4FF0000062
:1001700080F31188BDE8084019680868B0E8F00FFE
:1001800080F30988BFF36F8F704700BF880000209D
:10019000EFF3058070470000064880470648004797
:1001A000FEE7FEE7FEE7FEE7FEE7FEE7FEE7FEE727
:1001B000FEE7FEE75B4B0008ED000008202A04DBA9
:1001C000203A21FA02F00021704721FA02F3D040D0
:1001D000C2F120029140084319467047D2B201E0B3
:1001E00000F8012B491EFBD270470022F6E710B53C
:1001F00013460A4604461946FFF7F0FF204610BD95
:10020000F0B480EA0102D40F4200B2EB410F02D2F7
:100210000246084611464A0042D0C30DDDB2C1F382
:10022000C752AD1A202D35DAC1F3160141F4000290
:1002300004B15242C5F1200602FA06F12A411044E7
:10024000B3EBD05F23D0C4B1012DA0EBC35009DCC8
:10025000F0BC4FF0004202EAC352DBB200F50000EE
:1002600000F0FABA400000F1807000EBC350A0F13A
:10027000807040EAD170490009E0490841EAC07144
:10028000A0EBC35000F50000400800EBC350F0BCE9
:1002900000F0D9BA6142012202EB4101001BF6E7EE
:1002A000F0BC704781F00041AAE780F00040A7E76A
:1002B00080EA010210B502F00043400022D04A005B
:1002C0001FD0010E01EB1261C0F35600C2F35602BB
:1002D00040F4000042F40002A0FB022000047F3939
:1002E000140400D0401C50EA124001D44000491EC2
:1002F000C2B20C0604EBD010401C4008802A02D089
:1003000003E0002010BD20F00100002900DA0020E9
:10031000184310BD30B480EA010202F0004530F00D
:10032000004221F0004013D090B1C30DD40DC2F3B0
:100330001601C0F31600E41A41F4000140F4000273
:100340007D34914201D3641C00E04900002C02DAA4
:1003500030BC002070474FF400000023914201D3CD
:10036000891A034340084FEA4101F7D151B1914244
:1003700002D14FF0004105E002D24FF0010101E04F
:100380006FF0010103EBC450284430BC00F05BBAAD
:100390002DE9FE4F804681EA0300C00F0C46009015
:1003A00021F0004123F00045B8EB0200A94105D23D
:1003B0004046214690461C460B46024623F000402C
:1003C000104347D0270DC7F30A00C3F30A51029028
:1003D000401A019040286BDAC3F3130040F4801BED
:1003E0000098924620B10023D2EB030A63EB0B0B7B
:1003F00001985946C0F14002504600F003FA064603
:100400000D4650465946019A00F00BFA10EB0800D1
:100410006141002487EA115284EAE7731A4340D00D
:10042000009A62B3019A012A4FEA075215DC001BB9
:1004300061EB02014FF0004202EA0752CDE90042AF
:10044000001C41F5801132462B4600F042FA03B001
:10045000BDE8F08F40462146F9E7001B61EB020141
:10046000001C41F5801300185B412018A2F500170D
:1004700047EB030140EAD570B6196D4111E06D08F4
:100480004FEA360645EAC0754FEA0752001B61EB9A
:100490000201001C41F5801149084FEA30000019A3
:1004A000514132462B4603B0BDE8F04F00F002BA8E
:1004B0000098012240000023D0EB020263EBE073BE
:1004C000009821464FEAE074B8EB000061EB0401AC
:1004D000E9E783F000435BE781F0004158E72DE94D
:1004E000FE4F81EA030404F0004421F0004100942F
:1004F0004FF0000B23F0004350EA01045ED052EAB3
:1005000003045BD0C3F30A54C1F30A552C44A4F28C
:10051000F3340194A0FB0254C1F3130141F48011A0
:10052000C3F3130343F4801301FB024400FB034EA7
:10053000840A970A44EA815447EA8357A4FB076870
:1005400002958D0A05FB07854FEA932C04FB0C549A
:100550002705029D4FEA065847EA1637B5EB08050E
:100560006EEB070C870E920E47EA811742EA831260
:10057000A7FB0201B6EB0B0164EB00042B0D43EA71
:100580000C335E1844EB1C50DA465146E7FB02017F
:10059000C5F313044FEA0B3343EA14534FEA043212
:1005A000019C43EA0603A4F10C040294009CCDE9EB
:1005B00000B400F08EF903B0BDE8F08F00200146D2
:1005C000F9E72DE9F04D81EA030404F0004B21F036
:1005D000004514464FF0000A23F0004150EA05029E
:1005E00020D054EA01021DD0C5F30A570246C5F3D4
:1005F0001303C1F31300C1F30A5640F4801543F40A
:100600008013A7EB0608101BD64608F2FD3873EBE3
:10061000050002D308F1010801E092185B41B8F12E
:10062000000F03DA00200146BDE8F08D00204FF4F2
:100630008011064684460EE0171B73EB050705D3B1
:10064000121B63EB050306434CEA010C49084FEA11
:10065000300092185B4150EA0107EDD152EA0300E5
:1006600012D082EA040083EA0501084305D0101B7A
:10067000AB4106D20122002306E000224FF00043E6
:1006800002E06FF0010253101AEB06004CEB085128
:1006900010EB0A0041EB0B01BDE8F04D00F00AB988
:1006A000C10F80EAE0700844CA079623002100F0D9
:1006B000D3B896230022114600F0CEB80EB5C10F74
:1006C00080EAE0700844CA07002140F233438DE815
:1006D0000E000A460B4600F0FCF803B000BD00F027
:1006E000004220F00040C10DC0F3160040F40000AD
:1006F0007F2901DA00207047962903DCC1F19601B9
:10070000C84001E096398840002AF4D04042704742
:1007100070B5C1F30A5201F000450024C1F3130182
:1007200040F2FF3341F480119A4201DA002070BD9B
:1007300040F233439A42A2F2334203DC5242FFF7C3
:100740003DFD00E090402C43F1D0404270BD00F0F0
:10075000004230F000400AD0C10D01F56071C0F3D5
:10076000160042EA0151C2084007114370470020B9
:100770000146704730B5041E71F1000404DB4FF0F0
:100780000044404264EB0101141E73F1000405DBD8
:100790001C464FF00043524263EB04038B4208BFF8
:1007A000824230BD01F0004330B421F0004150EAF4
:1007B000010206D00A0DA2F56072C1F31301002AEE
:1007C00002DC30BC00207047440F44EAC104C10081
:1007D000E01830BC00EBC25000F035B8002801DB57
:1007E000C0F10040002901DBC1F1004181427047A6
:1007F000002801DBC0F10040002901DBC1F100410C
:1008000088427047202A04DB203A00FA02F10020D7
:1008100070479140C2F1200320FA03F3194390403E
:100820007047202A06DBCB17203A41FA02F043EA50
:10083000E07306E041FA02F3D040C2F12002914099
:100840000843194670470029A8BF7047401C49005B
:1008500008BF20F00100704710B4B0FA80FC00FA25
:100860000CF050EA010404BF10BC704749B1CCF150
:10087000200421FA04F411FA0CF118BF01212143DC
:100880000843A3EB0C01CB1D4FEA00614FEA102097
:1008900042BF002010BC704700EBC3501044002939
:1008A000A4BF10BC7047401C490008BF20F00100E5
:1008B00010BC704710B5141E73F1000408DA401C18
:1008C00041F1000192185B411A4301D120F001006F
:1008D00010BD2DE9F04D92469B4611B1B1FA81F25F
:1008E00002E0B0FA80F220329046FFF78BFF044618
:1008F0000F4640EA0A0041EA0B0153465A460843B4
:1009000013D0114653EA010019D0C8F140025046F5
:10091000FFF754FC05460E46504659464246FFF73F
:1009200071FF084305D0012004E020463946BDE8A8
:10093000F08D0020054346EAE0762C4337430A98C1
:100940006305E40AA0EB08000022FD0A44EA4754CC
:100950000A3002D500200146E9E701051019694176
:10096000DDE9084500196941BDE8F04DA2E770B521
:1009700021F0004303430CD0C1F30A550024D5EB0A
:10098000040564EB0403D617AD1AB34102DB002063
:10099000014670BD201841EB025170BD064C074D59
:1009A00006E0E06840F0010394E80700984710343F
:1009B000AC42F6D3FFF79EFB68630008886300082B
:1009C000420005D0C0F3C7525242914201DC0020E0
:1009D000704700EBC15070472DE9F04D00231A46D7
:1009E0001B1A8A4103DB00200146BDE8F08DC1F3EC
:1009F0000A52C1F3130141F480154FF0000BD107E7
:100A000002D100186D41521E0027044640F2FF112A
:100A1000384601EB620A3E468046024600204FF40B
:100A20008011FFF7CBFBC2197141BB1846EB0100E7
:100A3000B4EB030C75EB000C04D3E41A65EB000572
:100A400017460E46241908F101006D4180463428EE
:100A5000E3DDF91946EB0600091BA84103D24FF06C
:100A6000FF32134601E0002213461BEB070046EB62
:100A70000A51BDE8F04DFFF71DBF70B58C1810F896
:100A8000015B15F0070301D110F8013B2A1106D1D3
:100A900010F8012B03E010F8016B01F8016B5B1EED
:100AA000F9D12B0705D40023521E0DD401F8013BC8
:100AB000FAE710F8013BCB1A921C03E013F8015B34
:100AC00001F8015B521EF9D5A142D8D3002070BDB8
:100AD0002DE9F0417D48007830B101280ED0022880
:100AE0007ED003287DD192E000207949C8807949E1
:100AF000C8807949C8807949C8808AE07849794AAC
:100B0000086A794900F0C0FB074678490888FFF772
:100B1000D0FD80467648016A4046FFF771FB0646E5
:100B20007448016A3046FFF7BDFB05463946FFF7BA
:100B300067FB0446FFF7D3FD00B26549C8806849EA
:100B4000684A086A684900F09FFB074667490888B9
:100B5000FFF7AFFD80466648016A4046FFF7A2FBFB
:100B600006466448016A3046FFF79CFB0546394655
:100B7000FFF798FB0446FFF7B2FD00B25549C88065
:100B80005749584A086A584900F07EFB07465749BA
:100B90000888FFF78EFD80465548016A4046FFF7FA
:100BA0002FFB06465348016A3046FFF729FB0546EE
:100BB0003946FFF777FB0446FFF791FD00B246493F
:100BC000C8804749474A086A474900F05DFB074625
:100BD00046490888FFF76DFD80464548016A01E0F7
:100BE00014E015E04046FFF75DFB06464148016A08
:100BF0003046FFF705FB05463946FFF701FB044683
:100C0000FFF76DFD00B23549C88002E001E000E069
:100C100000BF00BF2E49B1F90600FFF741FD0546B0
:100C20000022354900F030FB0446FFF758FD00B2C2
:100C30002749C8802749B1F90600FFF731FD05466D
:100C400000222D4900F020FB0446FFF748FD00B2CA
:100C50002049C8802049B1F90600FFF721FD05466B
:100C60000022254900F010FB0446FFF738FD00B2D2
:100C70001949C8801949B1F90600FFF711FD054669
:100C800000221D4900F000FB0446FFF728FD00B2DA
:100C90001249C88015480088322808DA00200C491B
:100CA000C8800C49C8800C49C8800C49C8800848D5
:100CB00003F017F9074803F014F9074803F011F996
:100CC000064803F00EF9BDE8F0810000090100209C
:100CD00018020020200200202802002030020020FC
:100CE000F40100200000C8C20000C8420A01002030
:100CF00064010020AC010020000016442DE9F04101
:100D0000324803F01FFA324AB2F900102F4AB2F902
:100D1000000000F099FB2D4908802D4AB2F902101D
:100D20002A4AB2F9020000F08FFB28494880284A7D
:100D3000B2F90410254AB2F9040000F085FB2349FA
:100D400088800846008822490880204840884880DA
:100D50001E48808888801D49B1F90600FFF7AEFC67
:100D6000064632460B461B4800F016FB0446FFF7CA
:100D7000CFFC00B21549C880B1F90800FFF79EFC0E
:100D8000064632460B461348183000F005FB044671
:100D9000FFF7BEFC01B20D4801810146B1F90A001E
:100DA000FFF78CFC064632460B460A48303000F00E
:100DB000F3FA0446FFF7ACFC01B204484181064A4D
:100DC000064900F069FBBDE8F08100005C490020A5
:100DD0003401002010000020A69BC43B684900207D
:100DE00010B503F0EBFA064803F0A4F8054803F049
:100DF000A1F8054803F09EF8044803F09BF810BDE5
:100E000018020020200200202802002030020020CA
:100E10002DE9F0473F498988A1F5FA70FFF74EFCAC
:100E2000064600223C4BFFF7CCFB0446FFF7BAFC1A
:100E30003A4908613A48406848613A49B1F90200C4
:100E4000FFF73CFC80460022374BFFF748FB064685
:100E50000022364BFFF7B5FB0446FFF7A3FC3449ED
:100E600048612E4800F08CFA2A49C988A1F5FA7029
:100E7000FFF724FC06460022274BFFF7A2FB04469F
:100E8000FFF790FC2B490861254880684861254997
:100E9000B1F90000FFF712FC80460022224BFFF759
:100EA0001EFB06460022214BFFF78BFB0446FFF793
:100EB00079FC214948611F4800F062FA15494988C8
:100EC000A1F5FA70FFF7FAFB06460022124BFFF776
:100ED00078FB0446FFF766FC184908611048006873
:100EE00048611049B1F90400FFF7E8FB064600220B
:100EF0000D4BFFF7F4FA044600220C4BFFF761FBA1
:100F00008046FFF74FFC0E4948610C4800F038FA64
:100F1000BDE8F0870A0100200000494040010020A0
:100F2000684900205C49002000409F400000E040EC
:100F30006401002088010020AC010020D0010020C5
:100F4000F40100201CB51548042100238022CDE9BE
:100F5000001013A1154804F029FF154803210023B0
:100F60008022CDE9001013A1174804F01FFF174895
:100F7000012100238022CDE9001015A1184804F0BA
:100F800015FF1848022100238022CDE9001016A188
:100F9000184804F00BFF04F067FE1CBD140100208C
:100FA000506F776572205461736B0000054900082B
:100FB00018010020466C69676874204D6F746F7269
:100FC000205461736B000000191C00081C010020F4
:100FD0004C454420537461747573205461736B00E5
:100FE0007944000820010020436F6D205461736B29
:100FF000000000004512000810B52048007830B10C
:1010000001280ED002281ED0032834D12CE000F095
:101010003DF828B9012019490870002018490870C6
:1010200029E01848407A012805D1022013490870A8
:1010300000201449487214480078012802D1032086
:101040000E49087017E00F48407A012804D10B4977
:10105000087000200B4948720B480078012802D123
:1010600003200649087006E0012004F0E3FD00209B
:101070000249087000BF00BF10BD00000901002038
:10108000240100200A0100200801002010B52A4890
:10109000007805284AD2DFE800F003331127470023
:1010A0002648008840F28A21884206DD0220224933
:1010B000087004F09FFF2249086039E01F4800884B
:1010C00040F28A2188420EDA04F094FF1C49096834
:1010D000401AB0F57A7F03D303201749087002E065
:1010E00000201549087023E014480088642806DCB5
:1010F00001201149087004F07DFF1249086017E0D3
:1011000004F078FF0F490968401AB0F57A7F07D2DA
:101110000A480088642806DD00200749087002E0BC
:1011200004200549087003E0002010BD0120FCE701
:1011300000BF0120F9E70000240100200A0100207F
:10114000280100202C01002070B511213848FFF73C
:101150004CF8374802F096FF04462CB90020354978
:101160000870354908700EE033480078401C324959
:10117000087008460078642805DB01202D490870B6
:1011800000202D4908700CB1012070BD284800785E
:10119000772807D126484078722803D124488078E0
:1011A0006A2801D00120F0E7002004E02049095C12
:1011B0000D44411CC8B20D28F8DB1D48407B0006D9
:1011C0001B49897B40EA01401949C97B40EA01205B
:1011D0001749097C40EA0106B54201D00120D4E755
:1011E000134800791249C97840EA01201349088060
:1011F0000F4880790E49497940EA01200F4948801B
:101200000B48007A0A49C97940EA01200B498880D5
:101210000748807A0649497A40EA01200749C88090
:101220000348C07A08720248007B48720020ACE78D
:101230004849002008010020300100200A01002058
:1012400000BFFEE71CB504F0D5FE019016E0FFF7E5
:101250007BFF0B48007A012808D1002002230246B8
:10126000014600900748006804F00EFEFFF7C4FE38
:1012700000BF062101A804F0CDFD00BFE7E7000094
:101280000A0100201401002070B506460D461446E0
:1012900029463046FFF7ACFA01D22E4605E021463A
:1012A0003046FFF79BFA00D22646304670BD00005C
:1012B0002DE9F04F89B08246DAE90410FEF7F2FF1B
:1012C000CAF80C00DAF80C10DAF81C00FEF798FFE8
:1012D000CAF81C000021DAF81800FFF77FFA03D1E2
:1012E000DAF80C00CAF81800DAF81810DAF80C006E
:1012F000FEF7D8FF83465946DAF80800FEF7D8FF14
:101300000646FFF724FA04461B4A1C4BFFF759F91F
:10131000CDE90401DAF81C10DAF80400FEF7C8FF82
:101320000190FFF714FA8046134A144BFFF7D7F8E1
:1013300004460D46DAF80C10DAF80000FEF7B8FFA4
:101340008046FFF704FA064622462B46FFF720F8B0
:10135000CDE90201DDE90423FFF71AF8CDE9060122
:10136000FFF720FACAF82000DAF80C00CAF81800D3
:1013700009B0BDE8F08F0000FA7E6ABC7493783F34
:1013800070B505460C462846FFF792FF286A206193
:101390002046FFF78DFF70BD2DE9F04788B08246EB
:1013A00014461D46DAF81010DAF80000FEF728FFA0
:1013B000CAF80400DAF81410DAF80400FEF720FF87
:1013C00006463146DAF80400FEF7A4FFCAF80C001E
:1013D000DAF80800FFF7BBF922462B46CDE90001F9
:1013E000FFF77AF8CDE90201DAF80C00FFF7AFF960
:1013F0000646DDE90223FFF772F880468946DAF8EF
:101400000800FFF7A4F942464B46CDE90401FEF778
:10141000BFFFCDE90601FFF7C5F9CAF808004FF094
:101420007E50DAF80C10FEF73DFF0646DAF804109D
:10143000FEF73EFFCAF80000DAF80800FFF787F968
:1014400008B0BDE8F08700002DE9FC5F83460C463C
:101450002046FFF733F907464FF033320C4BFFF7C6
:101460003EF881468A465846FFF728F907464FF06E
:101470003332084BFFF733F84A465346CDE90001B3
:10148000FEF786FF0546FFF743F900B2BDE8FC9F73
:101490003333EB3F3333C33F07B5A0B04FF07C513C
:1014A0002298FEF705FF0E90FE4880680690FD48E2
:1014B000006805900699FEF7FBFE0890F948C068A1
:1014C0000690F848406805900699FEF7F1FE0790EF
:1014D0000899FEF7E7FE4FF080410990FEF7E8FE1D
:1014E0001D90F048C0680690EE4880680590069907
:1014F000FEF7DEFE0890EB4840680690E948006879
:1015000005900699FEF7D4FE07900899FEF778FE3D
:101510004FF080410990FEF7CBFE1E90E1488068B5
:101520000590E048806804900599FEF7C1FE079099
:10153000DC4840680590DB48406804900599FEF758
:10154000B7FE06900799FEF75BFE4FF080410890CA
:10155000FEF7AEFE4FF07E510990FEF7A6FE1F90FB
:101560002098B0F90A000490FFF79AF806902098A6
:10157000B0F90A000490FFF793F805900699FEF77A
:1015800097FE08902098B0F908000290FFF788F8BD
:1015900004902098B0F908000290FFF781F80390BA
:1015A0000499FEF785FE06902098B0F90600029097
:1015B000FFF776F804902098B0F906000290FFF744
:1015C0006FF803900499FEF773FE05900699FEF7F5
:1015D00017FE07900899FEF713FE099003F0A4F98F
:1015E0000F902098B0F906000890FFF759F809907D
:1015F0000F99FEF75DFE1A902098B0F90800089048
:10160000FFF74EF809900F99FEF752FE1B902098B5
:10161000B0F90A000890FFF743F809900F99FEF718
:1016200047FE1C901E9807901C9806900799FEF79D
:101630003FFE09901F9807901B9806900799FEF7A8
:1016400037FE08900999FEF72DFE14901F98079019
:101650001A9806900799FEF72BFE09901D9807909F
:101660001C9806900799FEF723FE08900999FEF74B
:1016700019FE15901D9807901B9806900799FEF784
:1016800017FE09901E9807901A9806900799FEF782
:101690000FFE08900999FEF705FE16901498089021
:1016A000814801680898FEF703FE09907F480068AA
:1016B000014608900998FEF7A3FD7C49086015983B
:1016C0000890794801680898FEF7F2FD099077487C
:1016D0004068014608900998FEF792FD73494860FA
:1016E00016980890704801680898FEF7E1FD099087
:1016F0006E488068014608900998FEF781FD6B49A5
:10170000886014980146069069480068FEF7D0FD8D
:1017100008902098B0F900000590FEF7C1FF0690F0
:10172000644801680698FEF7C3FD07900899FEF724
:1017300067FD09905D480068014608900998FEF72A
:101740005FFD179015980146069059480068FEF70E
:10175000AFFD08902098B0F902000590FEF7A0FFB9
:101760000690544801680698FEF7A2FD0790089974
:10177000FEF746FD09904D484068014608900998DB
:10178000FEF73EFD189016980146069048480068FE
:10179000FEF78EFD08902098B0F904000590FEF742
:1017A0007FFF0690434801680698FEF781FD079089
:1017B0000899FEF725FD09903C488068014608908D
:1017C0000998FEF71DFD1990199806903548C068D4
:1017D00005900699FEF76CFD089018980490314822
:1017E000806803900499FEF763FD06902D484068D9
:1017F00080F0004004901798014603900498FEF78B
:1018000057FD05900699FEF74DFD07900899FEF7E4
:1018100049FD09900E99FEF74BFD1390199806901B
:101820002048806805900699FEF742FD08901898B8
:1018300004901C48C06803900499FEF739FD069097
:10184000179804901748006803900499FEF730FD3C
:1018500005900699FEF726FD07900899FEF7D0FC43
:1018600009900E99FEF724FD1290199806900D48E4
:10187000406805900699FEF71BFD089018980490A3
:101880000848006803900499FEF712FD0690179827
:1018900004900448C06803900499FEF709FD059080
:1018A000069909E0780000207400002074040020EC
:1018B0007000002060000020FEF7A2FC079008994D
:1018C000FEF7F0FC09900E99FEF7F2FC11901998C2
:1018D0000690CA48006805900699FEF7E9FC089052
:1018E00018980490C548406803900499FEF7E0FCFE
:1018F0000690C248806880F0004004901798014626
:1019000003900498FEF7D4FC05900699FEF778FC46
:1019100007900899FEF774FC09900E99FEF7C8FC31
:101920001090B648006809901399FEF769FCB34916
:1019300008600846406809901299FEF761FCAF49BB
:1019400048600846806809901199FEF759FCAB4938
:1019500088600846C06809901099FEF751FCA749B5
:10196000C8600846C06806900846C0680590069999
:10197000FEF79EFC0890A148806804909F4880680C
:1019800003900499FEF794FC06909C4840680290EE
:101990009A48406801900299FEF78AFC04909748A3
:1019A000006802909548006801900299FEF780FC5B
:1019B00003900499FEF724FC05900699FEF720FC9D
:1019C00007900899FEF71CFC099002F0ADFF0F90FC
:1019D0008A48006809900F99FEF76AFC87490860F9
:1019E0000846406809900F99FEF762FC83494860F9
:1019F0000846806809900F99FEF75AFC7F49886075
:101A00000846C06809900F99FEF752FC7B49C860F0
:101A100008464068014606904FF08040FEF748FCBB
:101A200007907648C068014606900798FEF740FC8C
:101A3000099072480068014606904FF08040FEF71A
:101A400037FC07906D488068014606900798FEF7BE
:101A50002FFC08900999FEF725FC0D906748006857
:101A6000014606904FF08040FEF722FC0790634845
:101A70004068014606900798FEF71AFC09905F48F7
:101A80008068014606904FF08040FEF711FC0790F9
:101A90005A48C068014606900798FEF709FC08906E
:101AA0000999FEF7ADFB0C905448806801460690FA
:101AB0004FF08040FEF7FCFB0790504880680146DD
:101AC00006900798FEF7F4FB09904C4840680146E1
:101AD00005904FF08040FEF7EBFB069047484068CA
:101AE000014605900698FEF7E3FB4FF07E51079004
:101AF000FEF7DBFB08900999FEF7D4FB0B902098CA
:101B0000B0F904000890FEF7CBFD09903C4801684D
:101B10000998FEF7CDFB0A904FF07C510A98FEF72A
:101B200067FE09D30A98FEF712FE0022354BCDE975
:101B30000801FEF71FFE0DD222990A98FEF7B8FBA6
:101B4000099021980068014608900998FEF758FB13
:101B5000219908602C480068FEF7F9FDCDE90601DF
:101B60000D98FEF7F4FDCDE9020103F04DFACDE941
:101B70000401DDE90623FEF7B2FCCDE90801FEF71A
:101B800011FE21994860DDE90B1003F075FB099007
:101B90001D4801680998FEF78BFB21998860209801
:101BA000B0F90A000590FEF77BFD06900B99FEF751
:101BB0007FFB08902098B0F908000390FEF770FDB5
:101BC00004900C99FEF774FB06902098B0F906007B
:101BD0000390FEF765FD04900D99FEF769FB0590F3
:101BE0000699FEF70DFB07900899FEF709FB09908F
:101BF000FEF7ADFD054A03C223B000BD780000200A
:101C00005C0000200000E0BF5800002068000020B9
:101C1000704772B600BFFEE708B504F0EBF900901C
:101C2000FFF7DEF80BE0FFF769F8FFF7F1F8FEF7D2
:101C30004FFF00BF0621684604F0ECF800BFF2E752
:101C400070B5044600F0B0F906462546681C10B190
:101C500004480078054400BF00F0A6F9801BA842A4
:101C6000FAD370BD080000202DE9F8470346002292
:101C700094466EE14FF0010808FA02F4D1F80080B2
:101C800008EA0400A0427DD1DFF8DCA2D1F804808C
:101C9000A8EB0A09D0453AD014DCB8F1030F50D0B4
:101CA00009DCB8F1000F31D0B8F1010F1CD0B8F148
:101CB000020F49D120E0B8F1110F18D0B8F1120F7E
:101CC00042D11EE0B9F5881F25D006DCB9F5803F6A
:101CD00020D0B9F5801F37D11AE0B9F5001F18D010
:101CE000B9F5041F30D117E0D1F80CC02DE0D1F8C0
:101CF0000C8008F1040C28E0D1F80C8008F1080CE5
:101D000023E0D1F80C8008F10C0C1EE000BF00BFEE
:101D100000BF00BF00BF00BFD1F80880B8F1000FBE
:101D200002D14FF0040C0BE0D1F80880B8F1010F9C
:101D300003D14FF0080C1C6102E04FF0080C5C610D
:101D400003E04FF0000C00E000BF00BFFF2801D807
:101D5000984601E003F104084646FF2802D84FEAFE
:101D6000820803E0A2F108084FEA88084746D6F83F
:101D700000804FF00F0909FA07F928EA09080CFA60
:101D800007F900E088E048EA0908C6F80080D1F8C1
:101D9000048008F08058B8F1805F7DD100BFDFF883
:101DA000CC81D8F8188048F00108DFF8C091C9F854
:101DB0001880C846D8F8188008F00108CDF80080CF
:101DC00000BF00BF4FEAB9384FEA920958F82950CE
:101DD0004FEA82784FEA18794FF00F0808FA09F8AD
:101DE00025EA0805DFF88881434502D14FF0000855
:101DF00016E0DFF88081434502D14FF001080FE083
:101E0000DFF87481434502D14FF0020808E0DFF8A3
:101E10006C81434502D14FF0030801E04FF0040804
:101E20004FEA82794FEA197908FA09F848EA050574
:101E3000DFF84C814FEA920948F82950D1F8048024
:101E400008F48018B8F5801F0AD1DFF83881D8F877
:101E5000008048EA0008DFF82C91C9F8008009E00A
:101E6000DFF82081D8F8008028EA0008DFF8149114
:101E7000C9F80080D1F8048008F40018B8F5001FF4
:101E800010D1DFF8008108F10408D8F8008048EA92
:101E90000008DFF8F09000E05AE009F10409C9F801
:101EA00000800DE0DFF8DC8008F10408D8F800803D
:101EB00028EA0008DFF8CC9009F10409C9F800808D
:101EC000D1F8048008F40038B8F5003F0ED1DFF8EF
:101ED000B480A8F10408D8F8008048EA0008DFF8C8
:101EE000A490A9F10409C9F800800DE0DFF89480FE
:101EF000A8F10408D8F8008028EA0008DFF88490E8
:101F0000A9F10409C9F80080D1F8048008F48038E8
:101F1000B8F5803F0ED1DFF86C80A8F10808D8F83A
:101F2000008048EA0008DFF85C90A9F10809C9F8C8
:101F300000800DE0DFF84C80A8F10808D8F8008098
:101F400028EA0008DFF83C90A9F10809C9F80080E8
:101F5000521CD1F8008028FA02F8B8F1000F7FF483
:101F600089AEBDE8F88700000000111000100240A3
:101F700000080140000C0140001001400014014025
:101F8000080001400804014010B5C26821EA0203BC
:101F900002EA010443EA0443036110BD0AB101618E
:101FA00001E00B04036170470148006870470000BE
:101FB0000000002070B504460CB9012070BD94F8F3
:101FC0003D0028B9002084F83C00204600F046FB84
:101FD000242084F83D002068006820F0010021687A
:101FE00008602068006840F40040216808602068AC
:101FF000006820F400402168086000F0F7FC054606
:102000005C496068884206D85B48854201D201205D
:1020100007E0002005E05948854201D2012000E098
:102020000020012800D1C9E75548B5FBF0F620682B
:10203000406820F03F003043216848604D496068A7
:10204000884201D8701C07E04FF4967070434FF43B
:102050007A71B0FBF1F0401C2168096A21F03F0160
:1020600008432168086243496068884214D8681EA2
:1020700061684900B0FBF1F0401CC0F30B0004287C
:1020800001D204203DE0681E61684900B0FBF1F018
:10209000401CC0F30B0034E0A06838B9681E6168CA
:1020A00001EB4101B0FBF1F0401C0AE0681E6168E1
:1020B00001EBC10202EB0111B0FBF1F0401C40F456
:1020C0008040C0F30B0008B901201AE0A06848B9AD
:1020D000681E616801EB4101B0FBF1F0401CC0F3E8
:1020E0000B000CE0681E616801EBC10202EB0111FC
:1020F000B0FBF1F0401CC0F30B0040F4804040F412
:1021000000402168C9694CF6FF7291430843216879
:10211000C861D4E9070108432168096821F0C001BA
:10212000084321680860D4E90310084321688968DE
:1021300048F2FF329143084321688860D4E90501E1
:1021400008432168C96821F0FF0108432168C8607D
:102150002068006840F001002168086000202064C9
:10216000202084F83D000020206384F83E0000BF5A
:1021700024E70000A086010080841E0000093D00C5
:1021800040420F002DE9FE4F04460F469046994607
:10219000DDE90CAB0E9E00200290FFF705FF05461F
:1021A00094F83D00202872D119230122CE492046FF
:1021B000009501F0F6FC10B10220BDE8FE8F00BFD3
:1021C00094F83C00012801D10220F6E7012084F8B0
:1021D0003C0000BF2068006800F0010028B92068BA
:1021E000006840F00100216808602068006820F461
:1021F000006021680860222084F83D00402084F8B7
:102200003E0000202064C4F824A0A4F82AB0608D09
:102210002085B648E0624B46424639462046CDE925
:10222000006501F06BFB08B10120C6E7208D88B97D
:1022300000BF0020019020684069019020688069FB
:10224000019000BF00BF2068006840F40070216862
:1022500008604BE0208D01281AD12068006820F426
:1022600080602168086072B600BF0020019020687D
:102270004069019020688069019000BF00BF20681C
:10228000006840F400702168086062B62EE029E121
:10229000208D022819D12068006840F40060216870
:1022A000086072B600BF002001902068406901906C
:1022B00020688069019000BF00BF2068006820F49A
:1022C00080602168086062B610E02068006840F411
:1022D00080602168086000BF00200190206840698C
:1022E000019020688069019000BF00BFEBE0208D65
:1022F00003287DD8208D012815D12A463146204655
:1023000001F02BFD08B1012057E720680069616AE0
:102310000870606A401C6062208D401E2085608DC0
:10232000401E6085CFE0208D02282CD1334600224C
:102330006F492046009501F034FC08B101203CE7CC
:1023400072B62068006840F4007021680860206858
:102350000069616A0870606A401C6062208D401EDE
:102360002085608D401E608562B620680069616AC4
:102370000870606A401C6062208D401E2085608D60
:10238000401E60859FE03346002259492046009553
:1023900001F007FC08B101200FE72068006820F475
:1023A00080602168086072B620680069616A087000
:1023B000606A401C6062208D401E2085608D401E3A
:1023C00060854C4800681921B0FBF1F04FF47A7138
:1023D000B0FBF1F0C0EBC00000EB8000029000BF4A
:1023E0000298401E02900298A8B90020206300E0E5
:1023F00039E0202084F83D00002084F83E00206C65
:1024000040F02000206462B600BF002084F83C0049
:1024100000BF0120D1E620684069C0F38000002899
:10242000DED02068006840F40070216808602068F1
:102430000069616A0870606A401C6062208D401EFD
:102440002085608D401E608562B620680069616AE3
:102450000870606A401C6062208D401E2085608D7F
:10246000401E60852FE02A463146204601F075FC6B
:1024700008B10120A1E620680069616A0870606AFD
:10248000401C6062208D401E2085608D401E60854E
:1024900020684069C0F38000A8B1208D032805D1D1
:1024A0002068006820F48060216808602068006966
:1024B000616A0870606A401C6062208D401E208541
:1024C000608D401E6085208D00287FF410AF202095
:1024D00084F83D00002084F83E0000BF84F83C00F2
:1024E00000BF6AE6022068E6020010000000FFFF5D
:1024F000040001000C0000202DE9FC5F04460F469B
:1025000090469946DDE90CAB0E9EFFF74DFD054662
:1025100094F83D0020287DD1192301224D49204601
:10252000009501F03EFB10B10220BDE8FC9F00BF0A
:1025300094F83C00012801D10220F6E7012084F83C
:102540003C0000BF2068006800F0010028B9206846
:10255000006840F00100216808602068006820F4ED
:10256000006021680860212084F83D00402084F844
:102570003E0000202064C4F824A0A4F82AB0608D96
:1025800020853548E0624B46424639462046CDE933
:10259000006501F063FA08B10120C6E731E02A4680
:1025A0003146204601F01EFC50B1206C042805D1B4
:1025B0002068006840F40070216808600120B4E7DA
:1025C000606A007821680861606A401C6062208D42
:1025D000401E2085608D401E608520684069C0F3E4
:1025E000800070B1208D60B1606A00782168086158
:1025F000606A401C6062208D401E2085608D401EF8
:102600006085208D0028CAD12A463146204601F037
:1026100095FA00E01CE050B1206C042805D1206838
:10262000006840F400702168086001207DE72068A0
:10263000006840F4007021680860202084F83D00A4
:10264000002084F83E0000BF84F83C0000BF6CE727
:1026500002206AE7020010000000FFFF10B586B0FC
:1026600004460020029003900490059015492068CC
:10267000884225D100BF1448806940F00800124903
:1026800088610846806900F00800019000BF00BF23
:10269000C0200290122003900320059002A90B484D
:1026A000FFF7E2FA00BF0848C06940F4001006498D
:1026B000C8610846C06900F40010019000BF00BF67
:1026C00006B010BD0054004000100240000C014054
:1026D00003480068034909780844014908607047C5
:1026E000000000200800002010B50848006840F0F5
:1026F000100006490860032000F098F80F2000F051
:1027000007F800F02BF8002010BD00000020024068
:1027100070B504460E4800784FF47A71B1FBF0F0C2
:102720000C490968B1FBF0F5284600F0AFFD08B18F
:10273000012070BD102C07D200222146501E00F04F
:1027400037F80548046001E00120F2E70020F0E7D7
:10275000080000200C0000200400002008B500BF85
:102760001148806940F001000F498861084680697E
:1027700000F00100009000BF00BF00BF0846C06924
:1027800040F08050C8610846C06900F08050009059
:1027900000BF00BF00BF0549486820F0E06040F07E
:1027A0000070486000BF08BD0010024000000140FA
:1027B0002DE9F05F80460D461646002702F086FBA5
:1027C000074639462A46334601F00700C0F1070A9A
:1027D000BAF1040F02D94FF0040A01E0C0F1070A70
:1027E000D14600F1040ABAF1070F02D24FF0000AF5
:1027F00001E0A0F1030AD4464FF0010A0AFA09FAEF
:10280000AAF1010A0AEA020A0AFA0CFA4FF0010BCD
:102810000BFA0CFBABF1010B0BEA030B4AEA0B04BE
:102820002146404602F05AFBBDE8F09F00BF00F091
:102830000702064B19684FF6FF031940044B0B4380
:1028400043EA0221014B196000BF70470CED00E024
:102850000000FA0570B504460D460CB9012070BDA4
:102860005A48006800F00700A8420ED25748006896
:1028700020F007002843554908600846006800F02A
:102880000700A84201D00120E9E7207800F002000B
:1028900002281DD1207800F00400042805D14C48FE
:1028A000406840F4E0604A494860207800F0080041
:1028B000082805D14648406840F4605044494860C3
:1028C0004348406820F0F000A16808434049486050
:1028D000207800F0010078B36068012806D13C48F8
:1028E000006800F4003090B90120B8E76068022861
:1028F00006D13748006800F0007040B90120AEE70B
:102900003348006800F0020008B90120A7E730480A
:10291000406820F00300616808432D494860FFF7D4
:1029200043FB064609E0FFF73FFB801B41F288317D
:10293000884202D9032092E707E02548406800F06A
:102940000C006168B0EB810FEDD12048006800F009
:102950000700A8420ED91D48006820F00700284350
:102960001A4908600846006800F00700A84201D034
:10297000012074E7207800F00400042807D11448EF
:10298000406820F4E060E16808431149486020781D
:1029900000F00800082808D10D48406820F4605075
:1029A000216940EAC1000A49486000F03FF808493F
:1029B0004968C1F30311074A515CC84006490860E1
:1029C00006480068FFF7A4FE002048E70020024008
:1029D00000100240FE6200080C00002004000020ED
:1029E00001480068704700000C00002000B5FFF7A8
:1029F000F7FF04494968C1F30221034A515CC8400A
:102A000000BD0000001002400E63000800B5FFF793
:102A1000E7FF04494968C1F3C221034A515CC84039
:102A200000BD0000001002400E63000870B50021D8
:102A30000022002400230020134D696801F00C05DA
:102A4000F5B1042D02D0082D19D101E00F4819E08D
:102A50000F4DC1F38346AB5D01F4803555B10A4D8E
:102A60006D68C5F340450B4E725D084D5D43B5FB87
:102A7000F2F402E0084D03FB05F4204602E000BF3B
:102A8000024800BF00BF70BD0010024000127A0073
:102A9000EC620008FC62000800093D00F8B504463D
:102AA0000CB90120F8BD207800F00100002878D092
:102AB000F848406800F00C0004280CD0F548406845
:102AC00000F00C00082811D1F248406800F4803072
:102AD000B0F5803F0AD1EF48006800F400300028CC
:102AE0005FD0606800285CD10120DBE700BF606830
:102AF000B0F5803F06D1E748006840F48030E549F2
:102B0000086028E0606858B9E248006820F4803026
:102B1000E04908600846006820F4802008601AE058
:102B20006068B0F5A02F0BD1DA48006840F480202F
:102B3000D84908600846006840F4803008600AE020
:102B4000D448006820F48030D24908600846006804
:102B500020F48020086000BF606888B1FFF724FA85
:102B6000054606E0FFF720FA401B642801D9032040
:102B700098E7C848006800F400300028F2D010E060
:102B8000FFF712FA054606E0FFF70EFA401B64282D
:102B900001D9032086E7BF48006800F40030002810
:102BA000F2D1207800F00200022857D1B9484068DD
:102BB00000F00C0050B1B748406800F00C00082845
:102BC00018D1B448406800F4803098B9B148006822
:102BD00000F0020020B12069012801D0012061E746
:102BE000AC48006820F0F800616940EAC100A949DA
:102BF000086033E02069E8B10120A7490860FFF7C9
:102C0000D3F9054606E0FFF7CFF9401B022801D9AA
:102C1000032047E79F48006800F002000028F2D038
:102C20009C48006820F0F800616940EAC1009949B9
:102C3000086013E0002098490860FFF7B5F90546E1
:102C400006E0FFF7B1F9401B022801D9032029E76C
:102C50009048006800F002000028F2D1207800F0CF
:102C6000080008282DD1A069B8B101208B4908605F
:102C7000FFF79AF9054606E0FFF796F9401B022890
:102C800001D903200EE78348406A00F002000028C3
:102C9000F2D0012001F070FE13E000207F490860AF
:102CA000FFF782F9054606E0FFF77EF9401B022890
:102CB00001D90320F6E67748406A00F002000028B8
:102CC000F2D1207800F00400042873D10027714865
:102CD000C06900F0805070B900BF6E48C06940F014
:102CE00080506C49C8610846C06900F0805000906F
:102CF00000BF00BF01276A48006800F48070B0B9C7
:102D00006748006840F4807065490860FFF74CF937
:102D1000054606E0FFF748F9401B642801D9032067
:102D2000C0E65F48006800F480700028F2D000BF61
:102D3000E068012806D15748006A40F00100554973
:102D4000086227E0E06858B95248006A20F00100A4
:102D5000504908620846006A20F00400086219E041
:102D6000E06805280BD14B48006A40F0040049494F
:102D700008620846006A40F0010008620AE045481F
:102D8000006A20F00100434908620846006A20F00A
:102D90000400086200BFE068A0B1FFF705F905462E
:102DA00009E0FFF701F9401B41F28831884202D95E
:102DB000032077E622E03748006A00F0020000288E
:102DC000EFD012E0FFF7F0F8054608E0FFF7ECF867
:102DD000401B41F28831884201D9032062E62D4828
:102DE000006A00F002000028F0D1012F05D1294827
:102DF000C06920F080502749C86100BFE069C8B3AE
:102E00002448406800F00C00082860D0E0690228DF
:102E100048D1002020490866FFF7C6F8054606E0BD
:102E2000FFF7C2F8401B022801D903203AE61948EF
:102E3000006800F000700028F2D1206AB0F5803FF1
:102E400007D11448406820F40030A16808431149B4
:102E50004860D4E9080108430E49496821F4741117
:102E600008430C49486001200B490866FFF79CF8AD
:102E7000054607E03DE0FFF797F8401B022801D91F
:102E800003200FE60348006800F000700028F2D02D
:102E90002FE0000000100240000042428004424245
:102EA00000700040002014490866FFF77DF80546D1
:102EB00006E0FFF779F8401B022801D90320F1E56D
:102EC0000E48006800F000700028F2D111E0E069BF
:102ED000012800D1E6E50948466806F48031206AF9
:102EE000814204D106F47011606A814201D0012050
:102EF000D8E50020D6E50000000042420010024064
:102F000010B504460CB9012010BD606A38B960687C
:102F1000B0F5827F00D105E00021E16102E00021EF
:102F2000216161610021A16294F8510028B900205B
:102F300084F85000204600F043F8022084F8510045
:102F40002068006820F0400021680860A08800F434
:102F50008270218901F404410843A18901F40061D0
:102F60000843217C01F002010843217D01F00101A9
:102F70000843218B01F400710843217F01F03801DF
:102F800008432021095D01F080010843218D01F4EF
:102F900000510843216808600421A06901EA10403B
:102FA000216848602068C06920F400602168C86119
:102FB00000206065012084F851000020A4E7000093
:102FC00010B586B00446002002900390049005904E
:102FD0001949206888422DD100BF1848806940F403
:102FE0008050164988610846806900F4805001903D
:102FF00000BF00BF00BF0846806940F00400886140
:103000000846806900F00400019000BF00BFA020C6
:103010000290022003900320059002A90848FEF7C1
:1030200023FE4020029000200390049002A904484F
:10303000FEF71AFE06B010BD00300140001002403D
:10304000000801402DE9FE4F04460F4690461D46FC
:103050000C9E01200190FEF7A7FF814694F851B025
:1030600060680290AA46BBF1010F0BD00298B0F540
:10307000827F04D1A06810B9BBF1040F02D00220F6
:10308000BDE8FE8F1FB1B8F1000F00D00DB90120CF
:10309000F6E700BF94F85000012801D10220EFE7C5
:1030A000012084F8500000BF94F85100042802D099
:1030B000052084F8510000206065C4F83880E58759
:1030C000A5872763E586A58620646064206800687C
:1030D00000F04000402805D02068006840F0400023
:1030E00021680860E068B0F5006F52D1606810B1E7
:1030F000BAF1010F09D1206B00882168C860206BEC
:10310000801C2063E08E401EE0863BE020688068E3
:1031100000F00200022810D1E08E70B10198012861
:103120000BD1206B00882168C860206B801C206355
:10313000E08E401EE086002001902068806800F04C
:10314000010068B1E08F58B12068C068A16B0880A9
:10315000A06B801CA063E08F401EE08701200190DF
:10316000FEF722FFA0EB0900B0420BD3701C48B160
:10317000012084F8510000BF002084F8500000BFF7
:1031800003207DE7E08E0028C0D1E08F0028BDD16C
:1031900052E0606810B1BAF1010F09D1206B0078DC
:1031A00021680873206B401C2063E08E401EE0867F
:1031B0003CE02068806800F00200022810D1E08E18
:1031C00070B1019801280BD1206B00782168087339
:1031D000206B401C2063E08E401EE08600200190A2
:1031E0002068806800F0010068B1E08F58B1206865
:1031F000C068A16B0870A06B401CA063E08F401EEC
:10320000E08701200190FEF7CFFEA0EB0900B0425D
:1032100001D3701C00B94EB9012084F8510000BFE1
:10322000002084F8500000BF032029E7E08E00282A
:10323000BFD1E08F0028BCD14A463146204601F07C
:10324000AFFB40B12020606500BF002084F8500033
:1032500000BF012014E7A06850B900BF0020009013
:103260002068C068009020688068009000BF00BFA0
:10327000012084F8510000BF002084F8500000BFF6
:10328000606D08B10120FBE60020F9E670B5044648
:103290002546681EB0F1807F01D301200FE0681E33
:1032A0004FF0E02148610F214FF0FF3001F016FE92
:1032B00000204FF0E021886107200861002070BDE8
:1032C00010B50346002200BF93F83C00012801D14D
:1032D000022010BD012083F83C0000BF22F0FF0057
:1032E000CC6840EA040222F440708C6840EA040290
:1032F00022F480604C6840EA040222F400600C680A
:1033000040EA040222F480500C6940EA040222F4EC
:1033100000504C6940EA040222F48040CC6940EA43
:1033200004021868426400BF002083F83C0000BF1C
:1033300000BFCEE730B502460B4600BF92F83C0016
:10334000012801D1022030BD012082F83C0000BFDD
:10335000022082F83D00106844681068816824F0FB
:1033600070041868044310684460104D1068A84247
:103370000BD01068B0F1804F07D00D4D1068A842F7
:1033800003D00C4D1068A84205D121F08001586887
:10339000014310688160012082F83D0000BF0020D9
:1033A00082F83C0000BF00BFCDE70000002C0140C8
:1033B000000400400008004010B586B0044600201C
:1033C00002900390049005903C492068884217D1F0
:1033D00000BF3B48806940F00400394988610846D5
:1033E000806900F00400019000BF00BF0815029042
:1033F00002200390059002A93248FEF735FC5BE0FD
:103400002068B0F1804F16D100BF2D48806940F090
:1034100004002B4988610846806900F0040001908F
:1034200000BF00BF022002900390059002A925482A
:10343000FEF71AFC40E024492068884221D100BFF1
:103440001F48806940F008001D498861084680696E
:1034500000F00800019000BF00BF10200290022081
:103460000390059002A91948FEF7FEFB00BF18491A
:10347000486820F4406040F0E06040F4006048603C
:103480001AE014492068884216D100BF0C488069B0
:1034900040F008000A4988610846806900F0080089
:1034A000019000BF00BF48150290022003900590D4
:1034B00002A90648FEF7D8FB06B010BD002C01405B
:1034C000001002400008014000040040000C0140D0
:1034D00000000140000800402DE9F04104460D467F
:1034E0001646002700BF94F83C00012802D10220B4
:1034F000BDE8F081012084F83C0000BF36B1042E05
:103500001BD0082E31D00C2E5ED145E02946206814
:1035100001F078FB2068806940F00800216888612C
:103520002068806920F00400216888612068806933
:10353000296908432168886148E02946206801F02C
:1035400091FB2068806940F40060216888612068F0
:10355000806920F480602168886120688069296919
:1035600040EA01202168886130E02946206801F0A6
:10357000ADFB2068C06940F008002168C861206880
:10358000C06920F004002168C8612068C069296909
:1035900008432168C86119E02946206801F0CAFB88
:1035A0002068C06940F400602168C8612068C06973
:1035B00020F480602168C8612068C069296940EAF8
:1035C00001202168C86101E0012700BF00BF00BFE2
:1035D000002084F83C0000BF384689E710B5044657
:1035E0000CB9012010BD94F83D0028B9002084F8E2
:1035F0003C00204600F026F8022084F83D00211D02
:10360000206801F0ABFA012084F8460000BF84F87E
:103610003E0001213F200155402001554120015528
:1036200000BF00BF012084F8420043200155442020
:1036300001554520015500BF012084F83D000020C0
:10364000D0E7000008B5244A016891420DD100BFBF
:103650002249896941F40061204A916111468969D2
:1036600001F40061009100BF35E00168B1F1804FC5
:103670000DD100BF1949C96941F00101174AD16153
:103680001146C96901F00101009100BF23E0144A0D
:10369000016891420DD100BF1049C96941F0020192
:1036A0000E4AD1611146C96901F00201009100BFC3
:1036B00011E00C4A016891420DD100BF0749C96968
:1036C00041F00401054AD1611146C96901F00401C4
:1036D000009100BF00BF08BD002C01400010024057
:1036E000000400400008004070B504460D4615B9BE
:1036F00094F83E000BE0042D02D13F20005D06E06F
:10370000082D02D14020005D01E04120005D01282C
:1037100001D0012070BD1DB9022084F83E000EE0EA
:10372000042D03D102213F20015508E0082D03D1CB
:1037300002214020015502E00221412001550122D1
:103740002946206801F04CFA19492068884201D1C5
:10375000012000E0002028B12068406C40F40040C7
:10376000216848641249206888420BD02068B0F173
:10377000804F07D00F492068884203D00E49206847
:1037800088420CD12068806800F00706062E0CD015
:103790002068006840F001002168086005E02068AA
:1037A000006840F00100216808600020B2E70000D6
:1037B000002C0140000400400008004010B5044601
:1037C0000CB9012010BDA06900B100E000BF94F861
:1037D000410028B9002084F84000204600F02AF873
:1037E000242084F841002068C06820F4005021683B
:1037F000C860204601F0C2FA2068006920F49040B9
:10380000216808612068406920F02A002168486129
:103810002068C06840F400502168C86000206064DF
:10382000202084F8410084F842000020606300BF3B
:10383000C8E7000010B586B004460020029003904F
:10384000049005901949206888422DD100BF18487E
:10385000C06940F400301649C8610846C06900F4E8
:103860000030019000BF00BF00BF0846806940F0F3
:10387000040088610846806900F00400019000BFE0
:1038800000BF04200290022003900320059002A9AB
:103890000848FEF7E9F90820029000200390049000
:1038A00002A90448FEF7E0F906B010BD004400404C
:1038B000001002400008014000BFFEE70146086812
:1038C0004069C0F38020B0B16FF480600A68506135
:1038D00000200863202081F83D00002081F83E0090
:1038E000086C40F00400086400BF002081F83C0030
:1038F00000BF012070470020FCE700002DE9F843DD
:1039000004460F4615469946DDE90886206800689A
:1039100040F48060216808602068006840F480708E
:1039200021680860434600224FF0011120460096AE
:1039300000F037F960B12068006800F48070B0F5DD
:10394000807F02D14FF4007020640320BDE8F8832B
:1039500007F0FE0021680861334642463E49204692
:1039600000F07EF908B10120F0E700BF00200090D0
:1039700020684069009020688069009000BF00BF07
:1039800032464146204600F02DFA50B1206C042802
:1039900005D12068006840F40070216808600120AB
:1039A000D4E7B9F1010F03D1E8B22168086117E04B
:1039B000C5F307202168086132464146204600F0E1
:1039C00011FA50B1206C042805D12068006840F439
:1039D0000070216808600120B8E7E8B2216808613A
:1039E00032464146204600F0FDF950B1206C0428D3
:1039F00005D12068006840F400702168086001204B
:103A0000A4E72068006840F480702168086043469D
:103A100000224FF001112046009600F0C2F858B184
:103A20002068006800F48070B0F5807F02D14FF408
:103A300000702064032089E7F8B240F0010021689B
:103A40000861334642460449204600F009F908B1AE
:103A500001207BE7002079E7020001002DE9F8430F
:103A60000446884615469946DDE9086720680068DF
:103A700040F4807021680860334600224FF0011145
:103A80002046009700F08DF860B12068006800F4CF
:103A90008070B0F5807F02D14FF400702064032065
:103AA000BDE8F88308F0FE00216808613B46324615
:103AB0002149204600F0D4F808B10120F0E700BF0A
:103AC0000020009020684069009020688069009084
:103AD00000BF00BF3A463146204600F083F950B19E
:103AE000206C042805D12068006840F4007021682B
:103AF00008600120D4E7B9F1010F03D1E8B22168D1
:103B0000086117E0C5F30720216808613A4631468D
:103B1000204600F067F950B1206C042805D12068D8
:103B2000006840F40070216808600120B8E7E8B23E
:103B3000216808610020B3E70200010070B5044667
:103B40000D46164625E02046FFF7B8FE08B10120D5
:103B500070BD681CE8B1FEF727FA801BA84200D8A8
:103B6000BDB920684069C0F3800090B9002020638F
:103B7000202084F83D00002084F83E00206C40F0B6
:103B80002000206400BF002084F83C0000BF01201A
:103B9000DEE720684069C0F380000028D3D0002011
:103BA000D6E72DE9F04104460D4617461E46DDF8DE
:103BB000188038E0701CA8B3FEF7F6F9A0EB0800F7
:103BC000B04200D876BBC5F3074001280AD120686F
:103BD0004069A9B20840A9B2884201D101200BE096
:103BE000002009E020688069A9B20840A9B2884293
:103BF00001D1012000E00020B84214D10020206350
:103C0000202084F83D00002084F83E00206C40F025
:103C10002000206400BF002084F83C0000BF012089
:103C2000BDE8F081FFE7C5F3074001280AD120680D
:103C30004069A9B20840A9B2884201D101200BE035
:103C4000002009E020688069A9B20840A9B2884232
:103C500001D1012000E00020B842ABD00020DFE716
:103C60002DE9F04104460D4616461F4658E02068EF
:103C70004069C0F38020E8B12068006840F400701B
:103C8000216808606FF4806021684861002020632B
:103C9000202084F83D00002084F83E00206C40F095
:103CA0000400206400BF002084F83C0000BF012015
:103CB000BDE8F081701C90B3FEF776F9C01BB042EE
:103CC00000D866BBC5F3074001280AD120684069C7
:103CD000A9B20840A9B2884201D101200BE000201E
:103CE00009E020688069A9B20840A9B2884201D1E0
:103CF000012000E0002090B900202063202084F8FB
:103D00003D00002084F83E00206C40F0200020643C
:103D100000BF002084F83C0000BF0120C8E7FFE797
:103D2000C5F3074001280AD120684069A9B20840BC
:103D3000A9B2884201D101200BE0002009E02068EF
:103D40008069A9B20840A9B2884201D1012000E0EF
:103D5000002000288BD00020AAE770B504460D464D
:103D6000164637E020684069C0F30010A0B16FF03C
:103D700010002168486100202063202084F83D0065
:103D8000002084F83E00206C206400BF002084F8EE
:103D90003C0000BF012070BDFEF706F9801BA84261
:103DA00000D8BDB920684069C0F3801090B90020E8
:103DB0002063202084F83D00002084F83E00206C21
:103DC00040F02000206400BF002084F83C0000BFC9
:103DD0000120E0E720684069C0F380100028C1D0CE
:103DE0000020D8E770B504460D46164625E020466B
:103DF000FFF764FD08B1012070BD681CE8B1FEF753
:103E0000D3F8801BA84200D8BDB920684069C0F330
:103E1000C01090B900202063202084F83D000020CD
:103E200084F83E00206C40F02000206400BF002099
:103E300084F83C0000BF0120DEE720684069C0F341
:103E4000C0100028D3D00020D6E7000010B5002213
:103E500004210E48FEF7A2F8642001F0EBFE0122D7
:103E600004210A48FEF79AF8C82001F0E3FE002278
:103E700004210648FEF792F8642001F0DBFE0122DF
:103E800004210248FEF78AF810BD0000000C014032
:103E900010B5002204210648FEF780F8642001F0E6
:103EA000C9FE012204210248FEF778F810BD000087
:103EB000000C014010B50446A18801222068FEF7DD
:103EC0006DF810BD10B50446A18800222068FEF7E9
:103ED00065F810BD10B50446A1882068FEF754F8B7
:103EE00010BDB0F90610B1F57A7F03DD4FF47A7199
:103EF000C1801EE0818829B9B0F9061002681268F5
:103F0000516316E08188042905D1B0F906100268D2
:103F1000126891630DE08188082905D1B0F9061077
:103F200002681268D16304E0B0F9061002681268F2
:103F30001164704710B50446A1882068FFF7D4FBD0
:103F400010BD000010B505220E49102000F060F8E9
:103F500005220D49302000F0BBF805220949102048
:103F600000F056F8002109E00648405C064A525C21
:103F7000904201D0012010BD481CC1B20529F3DBDD
:103F80000020F8E73D0200203802002010B5C820CC
:103F9000FDF756FE02E00A20FDF752FEFFF7D2FFC2
:103FA0000128F8D000F002F810BD000010B5002282
:103FB0004FF480711448FDF7F1FF052213492A20C0
:103FC00000F086F80121212000F0A4F80121222030
:103FD00000F0A0F82821252000F09CF811213120C4
:103FE00000F098F80621262000F094F80F212020F8
:103FF00000F090F8FF21272000F08CF80122110238
:104000000148FDF7CBFF10BD000801403802002039
:104010002DE9F04107460D461646002210210C48B6
:10402000FDF7BCFF384600F0DDFC8046002405E0CB
:10403000002000F0D7FC2855601CC4B2B442F7DB66
:10404000012210210248FDF7A9FF4046BDE8F0819A
:104050000008014070B50446002210210848FDF711
:104060009DFF204600F0BEFC002000F0BBFC054692
:10407000012210210248FDF791FF284670BD000083
:104080000008014070B504460720FFF7E3FF05462E
:1040900005F04000B8B1112221466120FFF7B8FFBA
:1040A000002210210948FDF779FFE22000F09AFC78
:1040B000012210210548FDF771FF2946272000F055
:1040C00029F8002070BD0120FCE700000008014035
:1040D0002DE9F04107460C461546002210210C48F8
:1040E000FDF75CFF384600F07DFC8046002605E0C9
:1040F00014F8010B00F076FC701CC6B2AE42F7DB80
:10410000012210210248FDF749FF4046BDE8F08139
:104110000008014070B505460C46002210210848F1
:10412000FDF73CFF284600F05DFC0646204600F007
:1041300059FC012210210248FDF730FF304670BDC6
:104140000008014010B50446204600F0F1F8A01D1B
:1041500000F0A8F810BD00002DE9F04F87B0002056
:104160000590069003900490824603A800F09AF808
:104170003AE005A800F096F8BDF91430BDF90CC07E
:10418000A3EB0C02002A01DB134600E05342B3F517
:10419000C87F20DABDF91630BDF90EC0A3EB0C01C3
:1041A000002901DB0B4600E04B42B3F5C87F12DA71
:1041B000BDF91830BDF910C0A3EB0C00002801DBDD
:1041C000034600E04342B3F5C87F04DA0AF1010078
:1041D00000F0FF0A01E04FF0000ADDE90501CDE93A
:1041E0000301062001F026FDBAF1640FC1DB0020B7
:1041F00000900190029000240025002600278046B0
:10420000814683461DE06846FFF79CFFBDF900002C
:104210000444BDF902000544BDF904000644BDF99B
:1042200014000744BDF916008044BDF91800A0F53C
:1042300080408144062001F0FDFC0BF1010000F0FC
:10424000FF0BBBF1640FDEDB642094FBF0F00F4941
:104250000860642095FBF0F00D490860642096FB2F
:10426000F0F00C490860642097FBF0F00A49086000
:10427000642098FBF0F009490860642099FBF0F095
:104280000749086007B0BDE8F08F00004402002035
:10429000480200204C02002050020020540200205E
:1042A000580200201CB5044600200190009001A98E
:1042B0003B2000F0BBF869463C2000F0B7F89DF8C1
:1042C00000009DF8041040EA012016490988401AB0
:1042D00000B2208001A93D2000F0A8F869463E20E8
:1042E00000F0A4F89DF800009DF8041040EA0120B9
:1042F0000D490988401A00B2608001A93F2000F0F2
:1043000095F86946402000F091F89DF800009DF86E
:10431000041040EA012005490988401A00B2A08033
:104320001CBD000050020020540200205802002052
:104330001CB5044600200190009001A9432000F024
:1043400075F86946442000F071F89DF800009DF86A
:10435000041040EA012016490988401A00B2208062
:1043600001A9452000F062F86946462000F05EF899
:104370009DF800009DF8041040EA01200D490988CD
:10438000401A00B2608001A9472000F04FF869464A
:10439000482000F04BF89DF800009DF8041040EA1A
:1043A000012005490988401A00B2A0801CBD000008
:1043B00044020020480200204C02002008B5802161
:1043C0006B2000F045F80020009003E069466B2068
:1043D00000F02CF89DF800004028F7D100216B2058
:1043E00000F036F818211B2000F032F800211C20C4
:1043F00000F02EF80021382000F02AF800216A2071
:1044000000F026F80121192000F022F801211A20DD
:1044100000F01EF801216B2000F01AF800216C203A
:1044200000F016F8FFF798FE08BD00003EB5044600
:104430000D464FF47A7001210B462246CDE900511A
:104440000290D1210148FDF79DFE3EBD6002002093
:1044500013B584B004464FF47A70012105AA0B46C7
:10446000CDE9002102902246D0210248FEF744F80F
:1044700006B010BD6002002008B501F0BBFD009041
:10448000002452E0601CC4B22848007830B92848A3
:10449000FFF718FD2748FFF715FD09E023480078CE
:1044A000012805D12248FFF705FD2248FFF702FD4C
:1044B0002148007830B1012811D002281DD00328EE
:1044C00029D121E0052094FBF0F100FB114028B92F
:1044D0001A48FFF7FFFC1A48FFF7FCFC1BE02046D8
:1044E00004EBD0714910A4EB410129B91348FFF73F
:1044F000F1FC1348FFF7EEFC0DE01048FFF7E2FC7B
:104500000F48FFF7DFFC06E00C48FFF7D3FC0C4830
:10451000FFF7D0FC00BF00BF0A2C00D1002400BF71
:104520006421684601F076FC00BFABE7080100207B
:10453000E8000020F000002009010020F800002021
:104540000001002000B585B000200190029003908A
:10455000049000BF3048806940F010002E49886107
:104560000846806900F01000009000BF00BF00BF47
:104570000846806940F0200088610846806900F0A4
:104580002000009000BF00BF00BF0846806940F0D7
:10459000040088610846806900F00400009000BFB4
:1045A00000BF00BF0846806940F0080088610846E7
:1045B000806900F00800009000BF00BF012241F6B2
:1045C00010011648FDF7EAFC01224CF204011448E0
:1045D000FDF7E4FC00224FF480711048FDF7DEFC8B
:1045E00041F610100190012002900020039002205B
:1045F000049001A90948FDF737FB4CF20400019033
:1046000001200290002003900220049001A9044898
:10461000FDF72AFB05B000BD001002400008014074
:10462000000C014010B50B480B4908600B4848606E
:10463000002109488160C1604FF48041016100217F
:1046400041618161C1610162FDF7B4FC08B1FDF710
:10465000E0FA10BD0054004060020020801A0600FD
:1046600010B50E480E4908604FF482704860002172
:104670000B488160C160016141614FF4007181614B
:104680001021C16100210162416281620A21C1627F
:10469000FEF736FC08B1FDF7BCFA10BD0030014052
:1046A000B402002000B591B000200F9010901C21A2
:1046B00008A8FBF79AFD20216846FBF796FD2348E2
:1046C000234908600320486000212148816040F2AE
:1046D000E731C1600021016141618161FEF77EFF28
:1046E00008B1FDF796FA00200F9010900FA9184816
:1046F000FEF720FE08B1FDF78CFA6020089000203C
:1047000009900A900B900C900D900E90082208A929
:104710000F48FEF7E1FE08B1FDF77BFA002000909C
:1047200001900290039004904FF4005005900020F7
:10473000079069460648FEF7C3FD08B1FDF769FA20
:104740000348FEF739FE11B000BD0000002C014007
:104750000C03002000B589B00020079008901C21B0
:104760006846FBF742FD4FF0804017490860032080
:10477000486000211448816040F2E731C1600021A7
:1047800001618161FEF72AFF08B1FDF742FA0020BE
:104790000790089007A90C48FEF7CCFD08B1FDF77B
:1047A00038FA6020009000200190029004900422CA
:1047B00069460548FEF790FE08B1FDF72AFA02485F
:1047C000FEF7FAFD09B000BD5403002000B589B022
:1047D0000020079008901C216846FBF706FD18484A
:1047E000184908600320486000211648816040F2A3
:1047F000E731C160002101618161FEF7EFFE08B180
:10480000FDF707FA00200790089007A90D48FEF76A
:1048100091FD08B1FDF7FDF96020009000200190A6
:1048200002900490002269460648FEF755FE08B142
:10483000FDF7EFF90348FEF7BFFD09B000BD00002A
:10484000000400409C03002000B589B000200790C0
:1048500008901C216846FBF7C8FC184818490860F6
:104860000320486000211648816040F2E731C160B2
:10487000002101618161FEF7B1FE08B1FDF7C9F9C0
:1048800000200790089007A90D48FEF753FD08B1D6
:10489000FDF7BFF960200090002001900290049085
:1048A0000C2269460648FEF717FE08B1FDF7B1F97C
:1048B0000348FEF781FD09B000BD0000000800407C
:1048C000E403002010B50B480B4908604FF4E130B9
:1048D0004860002108488160C16001610C2141618C
:1048E00000218161C161FEF769FF08B1FDF791F90F
:1048F00010BD0000004400402C04002000BFFEE773
:1049000000BFFEE701F076FB0DE042F210720121DC
:10491000002001F0B9F8044614B1FFF797FA01E05E
:10492000FFF7B6FA00BFF0E72DE9F05F04464FF05D
:104930007F594FF07C512046FBF7BAFC8246254652
:104940002E460C48A0EB6606354629465046FBF736
:10495000AFFC83462946FBF7ABFC80464946FBF794
:10496000A4FC07462946FBF7A3FC05462846BDE8FC
:10497000F09F0000DF59375F08B508490968C9088A
:104980004FF47A72B1FBF2F14143009100BF00BFD6
:1049900000994A1E00920029F9D108BD0C000020A0
:1049A000F8B504460E46154633460122022120463C
:1049B000009500F029F828B1606D40F02000606596
:1049C0000320F8BD3346002280212046009500F0E8
:1049D0001BF828B1606D40F0200060650320F0E70F
:1049E0000020EEE701B582B000200190FF200123F6
:1049F00001AA02A900900348FEF724FB9DF80400D9
:104A00000EBD0000B40200202DE9F84F04460D460B
:104A100090461E46DDF82890FDF7C6FAA0EB090087
:104A2000371AFDF7C1FA82462C480068C0F3CB3034
:104A30007843009045E0701C002842D0FDF7B4FA9E
:104A4000A0EB0A00B84200D2A7BB2068406820F063
:104A5000E000216848606068B0F5827F0DD1A068F1
:104A6000B0F5004F03D0A068B0F5806F05D1206885
:104A7000006820F0400021680860A06AB0F5005F7F
:104A80000DD100BF2068006820F400502168086044
:104A90002068006840F400502168086000BF0120D1
:104AA00084F8510000BF002084F8500000BF0320AC
:104AB000BDE8F88FFFE7009800B900270098401E76
:104AC0000090206880682840A84201D1012000E0C1
:104AD00000204045AFD10020EAE700000C00002094
:104AE00010B501F077FA012801D001F045F9FDF782
:104AF000EFFD10BD00B58FB0282105A8FBF775FBB1
:104B000014216846FBF771FB012005900004069014
:104B1000002007900120099002200C90C1030D9104
:104B20004FF4E0110E9105A8FDF7B8FF08B1FDF7AD
:104B300070F80F20009002200190002002904FF4A6
:104B4000806003900020049002216846FDF782FEF9
:104B500008B1FDF75EF80FB000BD704710B50268F0
:104B60001C4B984208D0B0F1804F05D01A4B9842A8
:104B700002D01A4B984203D122F070024B681A43BC
:104B8000144B984208D0B0F1804F05D0124B984298
:104B900002D0124B984203D122F44072CB681A43E0
:104BA00022F080034C6943EA040202608B68C3620E
:104BB0000B688362074B984201D10B6903630123A1
:104BC0004361036903F001031BB1036923F001038F
:104BD000036110BD002C01400004004000080040AB
:104BE00030B501F01F05012404FA05F3046A9C4363
:104BF0000462046A01F01F0502FA05F52C43046201
:104C000030BD000030B5026A056A25F00105056275
:104C10004368846924F0700424F003040D682C4375
:104C200022F002028D682A430D4DA84206D100BF32
:104C300022F00802CD682A4322F00402084DA8425F
:104C400007D123F4807323F400734D692B438D69DE
:104C50002B43436084614D684563026230BD0000B0
:104C6000002C014030B5026A056A25F01005056286
:104C70004368846924F4E04424F440740D6844EAF1
:104C8000052422F020028D6842EA05120E4DA8424A
:104C900007D100BF22F08002CD6842EA051222F05F
:104CA0004002094DA84209D123F4806323F4006334
:104CB0004D6943EA85038D6943EA85034360846156
:104CC0004D688563026230BD002C014030B5026A38
:104CD000056A25F4807505624368C46924F0700490
:104CE00024F003040D682C4322F400728D6842EA1C
:104CF00005220F4DA84207D100BF22F40062CD6803
:104D000042EA052222F48062094DA84209D123F427
:104D1000805323F400534D6943EA05138D6943EA38
:104D200005134360C4614D68C563026230BD000075
:104D3000002C014030B5036A056A25F480550562F0
:104D40004468C26922F4E04222F440720D6842EAEB
:104D5000052223F400538D6843EA0533064DA8422B
:104D600004D124F480444D6944EA85144460C2614E
:104D70004D680564036230BD002C014070B50446E7
:104D80002168096921F44051E268114322681161E8
:104D90002269A1681143626941EA02052168C96874
:104DA00041F20C62914329432268D160216849692C
:104DB00021F44071A2691143226851612D4A216892
:104DC000914202D1FDF722FE01E0FDF70FFE00EB5C
:104DD000C00101EB001162689200B1FBF2F100EB3F
:104DE000C00202EB001263689B00B2FBF3F2642383
:104DF000B2FBF3F202EBC20303EB0212A1EB82015E
:104E0000322202EB01116422B1FBF2F101F0F00158
:104E100000EBC00202EB001263689B00B2FBF3F2EE
:104E20006423B2FBF3F201EB021200EBC00101EBD1
:104E3000001163689B00B1FBF3F100EBC00303EBCF
:104E400000136668B600B3FBF6F36426B3FBF6F313
:104E500003EBC30606EB0313A1EB8301322303EB41
:104E600001116423B1FBF3F101F00F011144226839
:104E7000916070BD0038014000BFFEE7490050EA74
:104E8000C12018BF04204A0D18BF40F0010040F2B5
:104E9000FF72B2EB515F08BF40F00200012808BF6B
:104EA000052070474100080218BF04200A0E18BFF1
:104EB00040F001004FF07F4232EA010108BF40F0AC
:104EC0000200012808BF0520704700000248006862
:104ED000C0F30220704700000CED00E010B5002880
:104EE00004DB0A07130E054A135406E00A07140EE2
:104EF000034A00F00F031B1FD45410BD00E400E070
:104F000018ED00E02DE9F0414F1E00EBC70104460B
:104F1000D1E9000115461E4637F006020DD02A469B
:104F20003346FBF7DCFA7F1E04EBC703D3E900230B
:104F3000FBF72EFA37F00602F1D1022F25D0042F0D
:104F400013D0062F18BFBDE8F0812A463346FBF781
:104F5000C6FAD4E90A23FBF71BFA2A463346FBF7C5
:104F6000BEFAD4E90823FBF713FA2A463346FBF7C7
:104F7000B6FAD4E90623FBF70BFA2A463346FBF7C9
:104F8000AEFAD4E90423FBF703FA2A463346FBF7CB
:104F9000A6FAD4E90223FBF7FBF92A463346FBF7CE
:104FA0009EFAD4E90023BDE8F041FBF7F1B90122F4
:104FB000FBF7DDBC0022134610461146FBF701BB90
:104FC000024A00201107FBF7D2BC000001FDFFFFE1
:104FD000FBF716B96FF05E010807FBF7F1BC02E0C2
:104FE00008C8121F08C1002AFAD170477047002074
:104FF00001E001C1121F002AFBD17047014908607E
:10500000704700005C0200202DE9F04D8D4F21F02B
:10501000004A86B005460C46BA452ADBAAEB0700D3
:1050200028430AD08848824501DC1AD1CDB106B0A8
:105030002846BDE8F04DFFF7BABF844A844B2846A6
:10504000FBF74DFA07460E46824A834B2846214617
:10505000FBF745FA06B03A463346BDE8F04DFBF79C
:1050600097B90120FFF7CAFF06B0BDE8F04DFFF782
:10507000A1BF7A48824542DABAF1795F0BDA284655
:10508000FFF7FCFE042808BFFFF79AFF284606B08A
:105090002146BDE8F08D2A460B461046FBF71FFA65
:1050A000834602466E480E460B4606217844FFF7BB
:1050B00029FF5A463346FBF712FA804669488A466A
:1050C0005A46334604217844FFF71CFF5A463346BC
:1050D000FBF705FA00223B46FBF75AF902460B465E
:1050E00040465146FBF76DFA2A462346FBF7F7F98F
:1050F00006B02A462346BDE8F04DFBF749B92846DD
:1051000024F0004100223D463B46FBF7E5F94FF015
:10511000FF32FBF72CFC0646024653480F460B466F
:1051200006217844FFF7EEFE32463B46FBF7D7F9FF
:10513000CDE900014D4832463B4604217844FFF753
:10514000E1FE32463B46FBF7CAF900222B46FBF74D
:105150001FF9834602913046394600F06FFC8046C5
:1051600043480D46504517DCDDE900015A46029BD5
:10517000FBF727FA42462B46FBF7B1F942462B468E
:10518000FBF706F90122FBF7F2FB304A304BFBF745
:10519000A0F9304A304B4CE04FF0000A52460B4623
:1051A0004046FBF7F5F8CDE9031052462B46104672
:1051B0001946FBF794F932463B46FBF78DF9DDE9DA
:1051C0000332FBF7FEF906460F46DDE900015A46B9
:1051D000029BFBF7F6F983460091012230463946DF
:1051E000FBF7C5FB194A1A4BFBF776F906460F4643
:1051F000012240462946FBF7BAFB5A46009BFBF7C3
:105200006EF932463B46FBF764F906460F4601222B
:1052100050462946FBF7ABFB0E4DDFF858802A4677
:105220004346FBF759F932463B46FBF755F92A4608
:105230004346FBF751F9002CD8BF81F0004106B07E
:10524000BDE8F08D0000F03F0000F07F075C1433F4
:1052500026A6913C182D4454FB21F93F0000E03F65
:10526000681200007E120000F21100000812000017
:105270003333EF3FFB21E93F2DE9F0474FF0684220
:1052800002EB40030C460546B3F1654F3CBF02EB11
:105290004102B2F1654F7CD2C0F3C753C1F3C7528C
:1052A0009A1A1B2A06DD10F0004F14BF7648774883
:1052B000BDE8F08712F11A0F17DA11F0004F06D08F
:1052C00010F0004F0CBF72487248BDE8F0872146CD
:1052D0002846FBF71FF80446FFF7E4FD042808BF43
:1052E000FFF778FE2046BDE8F0874200B2EB410FA1
:1052F00025D910F0004F19BF674F684E684F694EAF
:10530000224685F0004415460A4680F000411046CA
:105310000A1A5200B2F1807F40D248406249DFF859
:105320008CA110F0004F18D04FF03F483846FAF7E4
:10533000B9FF074651463046FAF7B4FF17E011F0BF
:10534000004F04BF00263746E2D010F0004F19BFCF
:10535000574F584E584F594EDAE74FF07C58384661
:10536000FAF74EFF074651463046FAF749FF064620
:1053700041462846FAF79CFF2146FAF741FF82464C
:1053800021464046FAF794FF2946FAF78EFF514628
:1053900000E037E0FAF7BEFF044604E02146284665
:1053A000FAF7B8FF04460146FAF782FF80464449FF
:1053B000FAF77EFF4349FAF723FF4146FAF778FFF1
:1053C0004149FAF71DFF4146FAF772FF3F49FAF7E4
:1053D00017FF4146FAF76CFF3D49FAF711FF054602
:1053E00041462046FAF764FF2946FAF761FF314645
:1053F000FAF706FF2146FAF703FF3946BDE8F04702
:10540000FAF7FEBE4FF07F42B2EB400F28BFB2EB7F
:10541000410F03D2BDE8F047FFF7DABD40EA0103D0
:105420005B0008BF44F0FF410AD0B2EB400F08BF59
:10543000B2EB410F06D125F0804024F080410546B3
:105440000C4629E7B2EB400F12BF5FEA410245F07C
:10545000FF4004F000413FF41FAF4A0092EA4003CE
:105460003FF51AAF002AACBF4FF09F464FF03E56B3
:105470003146FAF71DFF054631462046FAF718FF78
:1054800004462846214607E7DB0FC9BFDB0FC93FAB
:10549000DB0F4940DB0F49C00000C9BF22AAFDB99C
:1054A0000000C93F22AAFD390060ED3EC30ACE3795
:1054B000000049C022AA7DBA0000494022AA7D3AD4
:1054C0002DAD65BD8FB8D53D0FB511BE61C84C3E41
:1054D000A8AAAABEFDF708F9FFF70CFBFFF732F800
:1054E000FFF7F0F9FFF7DEF8FFF734F9FFF76EF991
:1054F000FFF7AAF9FFF7B4F8FFF794F8FEF746FDB7
:10550000FBF720FD00BFFEE72DE9F04105460E4602
:105510002648076826480068001D00F0F9FA50B9CF
:105520002348006890F82C10012088402149096820
:10553000814320480160681CD8B9D6B11E4948682B
:105540001B49096888601A4982680968CA60184955
:105550000968091D8268516015490968091D816043
:10556000154A134909684A6111460968491C1160C6
:105570001AE07C190E4800684460BC4207D20C480F
:105580000168091D0D48006800F0E6FA0CE00848C3
:105590000168091D0A48006800F0DEFA0948006841
:1055A000844201D207480460BDE8F0819C000020DD
:1055B00088000020A000002034050020900000207A
:1055C0008C000020B800002010B5044600F0DEFA80
:1055D0002F480068401C2E4908602E48006840B9DA
:1055E0002C4804600846006801280DD100F016F927
:1055F0000AE02948006838B926480068C06AE16AAC
:10560000884201D82348046024480068401C23498C
:10561000086094F82C10012088402149096808434B
:105620001F490860E16A01EB81011E4A02EB81011A
:105630004868A0608268E260211D826851608160D4
:10564000E16A01EB8101174A02EB81026261E16AC2
:1056500001EB8101134A52F82110491CE26A02EB66
:105660008202104B43F8221000F0A2FA0A480068A8
:1056700068B108480068C06AE16A884207D24FF002
:10568000805009490860BFF34F8FBFF36F8F10BD83
:105690009800002088000020A4000020B400002012
:1056A000A00000208004002004ED00E010B516E00A
:1056B00000F06CFA0C48C068C468201D00F028FA9D
:1056C0000A480068401E0949086009480068401EF1
:1056D0000749086000F06CFA204600F00BF8044817
:1056E00000680028E4D110BD2005002098000020AB
:1056F0009400002010B50446206B00F069FA2046A3
:1057000000F066FA10BD000030B54FF4884315482C
:1057100000F007042CB1C01D20F00700114C041B41
:105720001B1B0246104C226000240F4D6C60D018E9
:10573000083820F007000D4C206000240B4D2D6828
:105740006C600A4D2D682C601146441A4C60074C61
:1057500024680C60064D4C682C60064D4C682C602B
:1057600030BD000048050020C8000020D000002007
:10577000D8000020D400002000BFFFF797FF0648A4
:1057800000680128F9D94FF0805004490860BFF340
:105790004F8FBFF36F8FF0E78004002004ED00E02F
:1057A0002DE9FF5F80460E469146DDE90E7A109C9A
:1057B000A9F10100216B01EB800B2BF0070B7EB1EF
:1057C000002507E0715D04F134004155705D00B9BA
:1057D00002E06D1C102DF5D300BF002143200155C0
:1057E000052F00D30427E762201D00F0B2F904F171
:1057F000180000F0AEF92461C7F10500A0616462F1
:1058000041465846039A00F007F92060BAF1000FAC
:1058100001D0CAF80040BDE8FF9F000010B5002489
:1058200007E004EB84010F4A02EB810000F084F9E9
:10583000641C052CF5D30C4800F07EF90B4800F0F1
:105840007BF90B4800F078F90A4800F075F90A482E
:1058500000F072F9044809490860044808490860E2
:1058600010BD000080040020E4040020F8040020A3
:105870000C05002020050020340500208C000020AD
:105880009000002010B50146164800E0006803684B
:105890008B42FBD30246436813448B4204D14368D6
:1058A0004C682344436001460A464B68134404682D
:1058B000A34211D10C4C03682468A34208D04B6862
:1058C0000468646823444B6003681B680B6005E050
:1058D000054B1B680B6001E003680B60884200D039
:1058E000016010BDC8000020D000002009480068F9
:1058F000006808B9012000E0002020B14FF0FF301F
:105900000549086005E003480068C068006802496E
:10591000086070478C000020B800002000BFBF2046
:1059200080F31188BFF34F8FBFF36F8F00BF00BFAD
:10593000FEE700002DE9F04705464FF0000900F0B2
:10594000C9F93048006808B9FFF7DEFE75B105F007
:105950000700C0F11008C8F1FF30A84201D20120B1
:1059600000E0002008B9454400E00025012000EBDC
:10597000E570002841D0002D3FD0234800688542C3
:105980003BD8224E3046046801E026462468606811
:10599000A84202D220680028F7D11A480068844241
:1059A0002BD0306800F10809206830606068401B27
:1059B000102807D967196068401B78606560384611
:1059C000FFF760FF104960680968081A0E4908600F
:1059D000084600680E490968884203D20A480068F0
:1059E0000B490860606840F0004060600020206063
:1059F00008480068401C0749086000F0C9FB484699
:105A0000BDE8F087D0000020D4000020C8000020AE
:105A1000D8000020DC000020001F4FF080730360DE
:105A2000001F21F001030360001F034B03601438C3
:105A300002602038704700001D5900082DE9F04130
:105A400006460F46FAF7C8FF041E0D4618BF012090
:105A5000284320F00040C0F17F6000F1E040C00F1B
:105A60000ED0301C18BF0120384320F00040C0F198
:105A70007F6000F1E040C00F04BF0120FFF7BEFAD5
:105A800020462946BDE8F0812DE9F04104460F4645
:105A9000164600F07BF81C480068443050F824009B
:105AA00080B90121184800684830015556B1304688
:105AB000FFF72AFD4FF0805014490860BFF34F8F65
:105AC000BFF36F8F00F074F800F060F80E480068C4
:105AD000443050F824506DB137B100210A480068B5
