:020000040800F2
:10000000284E002099010008C15200085F3F0008F7
:10001000BD5200085D1700083159000800000000BB
:1000200000000000000000000000000001010008C6
:10003000712100080000000045010008A1540008DB
:10004000B3010008B3010008B3010008B3010008C0
:10005000B3010008B3010008B3010008B3010008B0
:10006000B3010008B3010008B3010008B3010008A0
:10007000B3010008B3010008B3010008B301000890
:10008000B3010008B3010008B3010008B301000880
:10009000B3010008B3010008B3010008B301000870
:1000A000B3010008B3010008B3010008B301000860
:1000B000B3010008B3010008B3010008B301000850
:1000C000B3010008B3010008B3010008B301000840
:1000D000B3010008B3010008B3010008B301000830
:1000E000B3010008B3010008B3010008DFF80CD029
:1000F00000F0ACFC00480047D1680008284E002002
:10010000224B19680868B0E8F00F80F30988BFF344
:100110006F8F4FF0000080F311884EF00D0E704786
:100120000000000006480068006880F3088862B696
:1001300061B6BFF34F8FBFF36F8F00DF00BF00BF0B
:1001400008ED00E0EFF30980BFF36F8F0F4B1A68E3
:1001500020E9F00F106008B54FF0BF0080F3118860
:10016000BFF34F8FBFF36F8F06F0BCFF4FF000005F
:1001700080F31188BDE8084019680868B0E8F00FFE
:1001800080F30988BFF36F8F704700BF880000209D
:10019000EFF3058070470000064880470648004797
:1001A000FEE7FEE7FEE7FEE7FEE7FEE7FEE7FEE727
:1001B000FEE7FEE71B550008ED000008202A04DBDF
:1001C000203A21FA02F00021704721FA02F3D040D0
:1001D000C2F120029140084319467047D2B201E0B3
:1001E00000F8012B491EFBD270470022F6E710B53C
:1001F00013460A4604461946FFF7F0FF204610BD95
:10020000F0B480EA0102D40F4200B2EB410F02D2F7
:100210000246084611464A0042D0C30DDDB2C1F382
:10022000C752AD1A202D35DAC1F3160141F4000290
:1002300004B15242C5F1200602FA06F12A411044E7
:10024000B3EBD05F23D0C4B1012DA0EBC35009DCC8
:10025000F0BC4FF0004202EAC352DBB200F50000EE
:1002600000F051BB400000F1807000EBC350A0F1E2
:10027000807040EAD170490009E0490841EAC07144
:10028000A0EBC35000F50000400800EBC350F0BCE9
:1002900000F030BB6142012202EB4101001BF6E796
:1002A000F0BC704781F00041AAE780F00040A7E76A
:1002B00080EA010210B502F00043400022D04A005B
:1002C0001FD0010E01EB1261C0F35600C2F35602BB
:1002D00040F4000042F40002A0FB022000047F3939
:1002E000140400D0401C50EA124001D44000491EC2
:1002F000C2B20C0604EBD010401C4008802A02D089
:1003000003E0002010BD20F00100002900DA0020E9
:10031000184310BD30B480EA010202F0004530F00D
:10032000004221F0004013D090B1C30DD40DC2F3B0
:100330001601C0F31600E41A41F4000140F4000273
:100340007D34914201D3641C00E04900002C02DAA4
:1003500030BC002070474FF400000023914201D3CD
:10036000891A034340084FEA4101F7D151B1914244
:1003700002D14FF0004105E002D24FF0010101E04F
:100380006FF0010103EBC450284430BC00F0B2BA56
:100390002DE9FE4F804681EA0300C00F0C46009015
:1003A00021F0004123F00045B8EB0200A94105D23D
:1003B0004046214690461C460B46024623F000402C
:1003C000104347D0270DC7F30A00C3F30A51029028
:1003D000401A019040286BDAC3F3130040F4801BED
:1003E0000098924620B10023D2EB030A63EB0B0B7B
:1003F00001985946C0F14002504600F05AFA0646AC
:100400000D4650465946019A00F062FA10EB08007A
:100410006141002487EA115284EAE7731A4340D00D
:10042000009A62B3019A012A4FEA075215DC001BB9
:1004300061EB02014FF0004202EA0752CDE90042AF
:10044000001C41F5801132462B4600F099FA03B0AA
:10045000BDE8F08F40462146F9E7001B61EB020141
:10046000001C41F5801300185B412018A2F500170D
:1004700047EB030140EAD570B6196D4111E06D08F4
:100480004FEA360645EAC0754FEA0752001B61EB9A
:100490000201001C41F5801149084FEA30000019A3
:1004A000514132462B4603B0BDE8F04F00F059BA37
:1004B0000098012240000023D0EB020263EBE073BE
:1004C000009821464FEAE074B8EB000061EB0401AC
:1004D000E9E783F000435BE781F0004158E72DE94D
:1004E000FE4F81EA030404F0004421F0004100942F
:1004F0004FF0000B23F0004350EA01045ED052EAB3
:1005000003045BD0C3F30A54C1F30A552C44A4F28C
:10051000F3340194A0FB0254C1F3130141F48011A0
:10052000C3F3130343F4801301FB024400FB034EA7
:10053000840A970A44EA815447EA8357A4FB076870
:1005400002958D0A05FB07854FEA932C04FB0C549A
:100550002705029D4FEA065847EA1637B5EB08050E
:100560006EEB070C870E920E47EA811742EA831260
:10057000A7FB0201B6EB0B0164EB00042B0D43EA71
:100580000C335E1844EB1C50DA465146E7FB02017F
:10059000C5F313044FEA0B3343EA14534FEA043212
:1005A000019C43EA0603A4F10C040294009CCDE9EB
:1005B00000B400F0E5F903B0BDE8F08F002001467B
:1005C000F9E72DE9F04D81EA030404F0004B21F036
:1005D000004514464FF0000A23F0004150EA05029E
:1005E00020D054EA01021DD0C5F30A570246C5F3D4
:1005F0001303C1F31300C1F30A5640F4801543F40A
:100600008013A7EB0608101BD64608F2FD3873EBE3
:10061000050002D308F1010801E092185B41B8F12E
:10062000000F03DA00200146BDE8F08D00204FF4F2
:100630008011064684460EE0171B73EB050705D3B1
:10064000121B63EB050306434CEA010C49084FEA11
:10065000300092185B4150EA0107EDD152EA0300E5
:1006600012D082EA040083EA0501084305D0101B7A
:10067000AB4106D20122002306E000224FF00043E6
:1006800002E06FF0010253101AEB06004CEB085128
:1006900010EB0A0041EB0B01BDE8F04D00F061B931
:1006A000C10F80EAE0700844CA079623002100F0D9
:1006B0002AB996230022114600F025B90EB5C10FC4
:1006C00080EAE0700844CA07002140F233438DE815
:1006D0000E000A460B4600F053F903B000BD0EB5FC
:1006E00040F2334102910021CDE900110A460B4648
:1006F00000F046F903B000BD00F0004220F00040D9
:10070000C10DC0F3160040F400007F2901DA00207B
:100710007047962903DCC1F19601C84001E0963983
:100720008840002AF4D04042704770B5C1F30A52A5
:1007300001F000450024C1F3130140F2FF3341F4FE
:1007400080119A4201DA002070BD40F233439A4290
:10075000A2F2334203DC5242FFF730FD00E090404A
:100760002C43F1D0404270BDC1F30A5210B5C1F321
:10077000130140F2FF3341F480119A4201DA002064
:1007800010BD40F233439A42A2F2334203DC52429C
:10079000FFF714FD10BD904010BD00F0004230F096
:1007A00000400AD0C10D01F56071C0F3160042EAA5
:1007B0000151C208400711437047002001467047AD
:1007C00030B5041E71F1000404DB4FF000444042D8
:1007D00064EB0101141E73F1000405DB1C464FF0AD
:1007E0000043524263EB04038B4208BF824230BD98
:1007F00001F0004330B421F0004150EA010206D07C
:100800000A0DA2F56072C1F31301002A02DC30BCAC
:1008100000207047440F44EAC104C100E01830BC16
:1008200000EBC25000F066B8002801DBC0F10040C8
:10083000002901DBC1F1004181427047002801DB42
:10084000C0F10040002901DBC1F10041884270473E
:100850002DE9F05F0546002092469B4688460646F5
:10086000814640241BE02846414647462246FFF782
:10087000A5FC53465A46C01A914110D3114618465A
:10088000224600F016F82D1A67EB01084F46224663
:100890000120002100F00DF817EB00094E41201E49
:1008A000A4F10104DFDC484631462A464346BDE850
:1008B000F09F202A04DB203A00FA02F10020704762
:1008C0009140C2F1200320FA03F31943904070478E
:1008D000202A06DBCB17203A41FA02F043EAE07304
:1008E00006E041FA02F3D040C2F1200291400843F1
:1008F000194670470029A8BF7047401C490008BF2F
:1009000020F00100704710B4B0FA80FC00FA0CF03F
:1009100050EA010404BF10BC704749B1CCF1200477
:1009200021FA04F411FA0CF118BF01212143084304
:10093000A3EB0C01CB1D4FEA00614FEA102042BF30
:10094000002010BC704700EBC35010440029A4BF26
:1009500010BC7047401C490008BF20F0010010BCCB
:10096000704710B5141E73F1000408DA401C41F101
:10097000000192185B411A4301D120F0010010BD23
:100980002DE9F04D92469B4611B1B1FA81F202E099
:10099000B0FA80F220329046FFF78BFF04460F46F4
:1009A00040EA0A0041EA0B0153465A46084313D075
:1009B000114653EA010019D0C8F140025046FFF732
:1009C000FDFB05460E46504659464246FFF771FF6D
:1009D000084305D0012004E020463946BDE8F08DEB
:1009E0000020054346EAE0762C4337430A98630526
:1009F000E40AA0EB08000022FD0A44EA47540A304A
:100A000002D500200146E9E7010510196941DDE939
:100A1000084500196941BDE8F04DA2E770B521F025
:100A2000004303430CD0C1F30A550024D5EB040561
:100A300064EB0403D617AD1AB34102DB0020014674
:100A400070BD201841EB025170BD0000064C074DEF
:100A500006E0E06840F0010394E80700984710348E
:100A6000AC42F6D3FFF746FBE077000800780008B9
:100A7000420005D0C0F3C7525242914201DC00202F
:100A8000704700EBC15070472DE9F04D00231A4626
:100A90001B1A8A4103DB00200146BDE8F08DC1F33B
:100AA0000A52C1F3130141F480154FF0000BD10736
:100AB00002D100186D41521E0027044640F2FF117A
:100AC000384601EB620A3E468046024600204FF45B
:100AD0008011FFF773FBC2197141BB1846EB01008F
:100AE000B4EB030C75EB000C04D3E41A65EB0005C2
:100AF00017460E46241908F101006D41804634283E
:100B0000E3DDF91946EB0600091BA84103D24FF0BB
:100B1000FF32134601E0002213461BEB070046EBB1
:100B20000A51BDE8F04DFFF71CBF70B58C1810F8E6
:100B3000015B15F0070301D110F8013B2A1106D122
:100B400010F8012B03E010F8016B01F8016B5B1E3C
:100B5000F9D12B0705D40023521E0DD401F8013B17
:100B6000FAE710F8013BCB1A921C03E013F8015B83
:100B700001F8015B521EF9D5A142D8D3002070BD07
:100B800000B587B0FE48007830B1012812D00228A5
:100B90007ED003287DD174E10020FA49C880FA494B
:100BA000C880FA49C880FA49C880FA490870FA49E9
:100BB00008803CE20020F7490870F7490880F748B0
:100BC000006AF74AF749039000F002FE0590F648E4
:100BD00000880190FFF76DFD0290F448006A01461D
:100BE00001900298FFF70CFB0390F148006A014660
:100BF00002900398FFF756FB04900599FFF700FB5E
:100C00000690FFF779FD00B2DE49C880E348006A2C
:100C1000E34AE449039000F0DBFD0590E2480088D8
:100C20000190FFF746FD0290E048006A01460190FE
:100C30000298FFF737FB0390DD48006A01460290F7
:100C40000398FFF72FFB04900599FFF72BFB069005
:100C5000FFF752FD00B2CC49C880D048006AD04AA4
:100C6000D049039000F0B4FD0590CF480088019072
:100C7000FFF71FFD0290CD48006A014601900298DF
:100C8000FFF7BEFA0390CA48006A0146029001E0ED
:100C900035E0CBE10398FFF7B3FA04900599FFF72D
:100CA00001FB0690FFF728FD00B2B849C880BB4899
:100CB000006ABB4ABB49039000F08AFD0590BA4820
:100CC00000880190FFF7F5FC0290B848006A0146E1
:100CD00001900298FFF7E6FA0390B548006A0146D2
:100CE00002900398FFF78CFA04900599FFF788FAB1
:100CF0000690FFF701FD00B2A549C88097E10020EA
:100D0000A4490870A4490880A448006AA44AA549D7
:100D1000029000F05DFD0490A34800880090FFF76A
:100D2000C8FC0190A148006A014600900198FFF7B5
:100D300067FA02909E48006A014601900298FFF708
:100D4000B1FA03900499FFF75BFA05909948006A9D
:100D5000014604900598FFF753FA0690FFF7CCFC84
:100D600000B28849C8808D48006A8D4A8D4902903A
:100D700000F02EFD04908C4800880090FFF799FC4D
:100D800001908A48006A014600900198FFF78AFAAC
:100D900002908748006A014601900298FFF782FAA4
:100DA00003900499FFF77EFA05908248006A014695
:100DB00004900598FFF724FA0690FFF79DFC00B217
:100DC0007149C8807548006A754A7649029000F0FA
:100DD000FFFC0490744800880090FFF76AFC0190C3
:100DE0007248006A014600900198FFF709FA0290E4
:100DF0006F48006A014601900298FFF701FA0390DC
:100E00000499FFF74FFA05906A48006A014604907A
:100E10000598FFF7F5F90690FFF76EFC00B25B4905
:100E2000C8805E48006A5E4A5E49029000F0D0FCCD
:100E300004905D4800880090FFF73BFC01905B4800
:100E4000006A014600900198FFF72CFA029058487A
:100E5000006A014601900298FFF7D2F903900499C5
:100E6000FFF7CEF905905348006A014604900598B3
:100E7000FFF7C6F90690FFF73FFC00B24449C8806F
:100E8000D5E04448007840B9474800884249088086
:100E900001204049087000F0B5FA3F4800880A2850
:100EA00005DD3D4800880A383B49088002E0002003
:100EB000394908803948006A394A3A49039000F0B4
:100EC00087FC059034480088FFF7F3FB0290374811
:100ED000006A014601900298FFF792F903903448A6
:100EE000006A014602900398FFF7DCF90490059927
:100EF000FFF786F90690FFF7FFFB00B22149C88093
:100F00002648006A264A2749039000F061FC0590B4
:100F100021480088FFF7CDFB02902448006A014673
:100F200001900298FFF7BEF903902148006A01463C
:100F300002900398FFF7B6F904900599FFF7B2F90C
:100F40000690FFF7D9FB00B20F49C8801348006A2A
:100F5000134A1449039000F03BFC05900E480088AA
:100F6000FFF7A7FB02901148006A01460190029822
:100F7000FFF746F903900E48006A014602901BE015
:100F800009010020480200205002002058020020E1
:100F9000600200206A020020680200200002002097
:100FA0000000C8C20000C8420A01002070010020F1
:100FB000B8010020240200200398FFF721F90490D3
:100FC0000599FFF76FF90690FFF796FB00B24A49C3
:100FD000C8804A48006A4A4A4A49039000F0F8FB30
:100FE000059049480088FFF764FB02904748006A73
:100FF000014601900298FFF755F903904448006AB2
:10100000014602900398FFF7FBF804900599FFF75B
:10101000F7F80690FFF770FB00B23E49C8803A48E7
:10102000008810B900203C49087000E000BF00BFF4
:101030003A48B0F906000490FFF732FB0022384925
:10104000059000F0C5FB0690FFF756FB00B2334950
:10105000C8803448B0F906000490FFF721FB002255
:101060002F49059000F0B4FB0690FFF745FB00B256
:101070002C49C8802048B0F906000490FFF710FB07
:1010800000222749059000F0A3FB0690FFF734FBF0
:1010900000B21949C8801F48B0F906000490FFF754
:1010A000FFFA00221E49059000F092FB0690FFF720
:1010B00023FB00B21749C8801748007803280CD0DA
:1010C00019480088322808DA00201449C8801549D8
:1010D000C8800949C8800F49C880104803F053FAF6
:1010E000104803F050FA044803F04DFA094803F0A1
:1010F0004AFA07B000BD000058020020000200209C
:101100000000C8C20000C842680200207001002030
:10111000B8010020600200200901002048020020E0
:1011200000001644500200200A01002010B50848B3
:101130000088FFF7BEFA0749086103F0DFFB0446A9
:10114000FFF7B7FA03494861084600F085FB10BD78
:1011500034010020240200202DE9F041324803F040
:1011600087FC324AB2F900102F4AB2F9000000F0B1
:101170001BFC2D4908802D4AB2F902102A4AB2F907
:10118000020000F011FC28494880284AB2F90410F6
:10119000254AB2F9040000F007FC2349888008467C
:1011A0000088224908802048408848801E4880885E
:1011B00088801D49B1F90600FFF780FA06463246DD
:1011C0000B461B4800F098FB0446FFF7AEFA00B24E
:1011D0001549C880B1F90800FFF770FA0646324693
:1011E0000B461348183000F087FB0446FFF79DFAC2
:1011F00001B20D4801810146B1F90A00FFF75EFA1C
:10120000064632460B460A48303000F075FB04466D
:10121000FFF78BFA01B204484181064A064900F003
:10122000EBFBBDE8F0810000004A002040010020F7
:1012300010000020A69BC43B0C4A002010B503F010
:101240001BFD074803F0C8F9064803F0C5F9064836
:1012500003F0C2F9054803F0BFF903F05DFB10BDD0
:1012600048020020500200205802002060020020A6
:101270002DE9F0473F498988A1F5FA70FFF71EFA7A
:10128000064600223C4BFFF79CF90446FFF7B0FAF4
:101290003A4908613A48406848613A49B1F9020060
:1012A000FFF70CFA80460022374BFFF718F9064685
:1012B0000022364BFFF785F90446FFF799FA3449C7
:1012C00048612E4800F006FB2A49C988A1F5FA704A
:1012D000FFF7F4F906460022274BFFF772F90446A0
:1012E000FFF786FA2B49086125488068486125493F
:1012F000B1F90000FFF7E2F980460022224BFFF728
:10130000EEF806460022214BFFF75BF90446FFF793
:101310006FFA214948611F4800F0DCFA15494988F5
:10132000A1F5FA70FFF7CAF906460022124BFFF743
:1013300048F90446FFF75CFA18490861104800684C
:1013400048611049B1F90400FFF7B8F906460022D8
:101350000D4BFFF7C4F8044600220C4BFFF731F9A0
:101360008046FFF745FA0E4948610C4800F0B2FA92
:10137000BDE8F0870A010020000049404C01002030
:101380000C4A0020004A002000409F400000E0403E
:101390007001002094010020B8010020DC01002031
:1013A0000002002070B50446134948681349FEF74F
:1013B0007FFF0546FFF7A0F900B220800E4988683C
:1013C0000E49FEF775FF0546FFF796F900B26080FB
:1013D000094908680949FEF76BFF0546FFF78CF9D4
:1013E00000B2A08003F08AFAE080054800782072FD
:1013F00003F062FB607270BD0C4A00200000C8421E
:101400000901002010B50B4800F070FA0A4800F0FE
:101410006DFA0A4800F06AFA094800F067FA0948CC
:1014200000F064FA084800F061FA084800F05EFA3B
:1014300010BD00004C01002070010020940100202C
:10144000B8010020DC01002000020020240200205E
:101450001CB51648042100238022CDE9001014A1F8
:10146000164805F0A3FE1648032100234FF48072AE
:10147000CDE9001013A1184805F098FE1748012186
:1014800000238022CDE9001015A1194805F08EFE39
:101490001848032100238022CDE9001016A1194825
:1014A00005F084FE05F0E0FD1CBD000018010020E1
:1014B000506F776572205461736B0000C55200084D
:1014C0001C010020466C69676874204D6F746F7250
:1014D000205461736B000000792100082001002076
:1014E0004C454420537461747573205461736B00D0
:1014F000FD4D000824010020436F6D205461736B83
:10150000000000006117000810B51F48007830B1D6
:10151000012810D0022823D0032832D130E000F077
:101520003DF838B9012018490870FFF76BFF00201B
:101530001649087025E01648407A012809D1022092
:101540001149087000201249487203F0D7F9114977
:1015500008801148007810B103200B49087010E092
:101560000B48407A012804D1074908700020084937
:1015700048720948007810B103200349087000E060
:1015800000BF00BF10BD000009010020280100209D
:101590000A010020340100203C01002010B52A4837
:1015A000007805284AD2DFE800F00333112747000E
:1015B0002648008840F28A21884206DD022022491E
:1015C000087005F017FF2249086039E01F480088BD
:1015D00040F28A2188420EDA05F00CFF1C490968A6
:1015E000401AB0F57A7F03D303201749087002E050
:1015F00000201549087023E014480088642806DCA0
:1016000001201149087005F0F5FE1249086017E045
:1016100005F0F0FE0F490968401AB0F57A7F07D24D
:101620000A480088642806DD00200749087002E0A7
:1016300004200549087003E0002010BD0120FCE7EC
:1016400000BF0120F9E70000280100200A01002066
:101650002C0100203001002070B511213A48FEF71E
:10166000C4FD394803F05CF8064656BB364800789E
:10167000772807D134484078722803D132488078DF
:101680006A2801D001261CE00021002004E02E4B36
:101690001B5C1944431CD8B20D28F8DB2A48407B58
:1016A0000006294B9B7B40EA0340274BDB7B40EA4B
:1016B0000320254B1B7C40EA0302914200D0012607
:1016C00000BF05F097FE04466EBB1F4800791E4917
:1016D000C97840EA01201D4908801B4880791A49D1
:1016E000497940EA0120194948801748007A16498B
:1016F000C97940EA0120154988801348807A124947
:10170000497A40EA01201149C8800F48C07A08721E
:101710000D48007B48720E48046000200D49087097
:101720000D49087070BD0A480068251AB5F5967F06
:1017300002D3012007490870B5F57A7F02D3012052
:10174000054908700120EDE7ED4900200A0100205D
:1017500038010020080100203C01002000BFFEE706
:1017600086B005F047FE05902BE0FFF775FF08B93E
:10177000012000E0002004466CB102A8FFF712FE31
:10178000104902A800F037F802F0E8FF0D4803F016
:1017900019F802F05DFF0C48007A012808D10020FA
:1017A00002230246014600900848006805F06CFDDF
:1017B000FFF7AAFE00BF062105A805F02BFD00BF1C
:1017C00000BFD2E7DC4900200A01002018010020F8
:1017D00070B506460D46144629463046FFF72EF8EA
:1017E00001D22E4605E021463046FFF71DF800D213
:1017F0002646304670BD10B5002264240C7061246A
:101800004C7074248C700488240ACC7004780C7199
:101810004488240A4C7184788C718488240ACC71A1
:1018200004790C72C48824124C7284798C72047A04
:10183000CC72447A0C73002303E0CC5C22445C1C21
:10184000E3B20D2BF9DB140E4C73140C8C73140AD9
:10185000CC730A7410BD00002DE9F0470446D4E9AA
:101860000401FEF71FFDE060E168E069FEF7C8FCD7
:10187000E0610021A069FEF7D7FF01D1E068A06117
:10188000A169E068FEF70EFD80464146A068FEF7BC
:101890000FFD07460E49FEF73DFD0546E16960680C
:1018A000FEF706FD82460A49FEF702FD0746E1689B
:1018B0002068FEF7FDFC81463946FEF7A1FC06468E
:1018C0002946FEF79DFC2062E068A061BDE8F08734
:1018D000A69BC43B70B505460C462846FFF7BCFFE7
:1018E000286A20612046FFF7B7FF70BD0021C16163
:1018F0008161C160016270472DE9F04788B082467E
:1019000014461D46DAF81010DAF80000FEF778FCED
:10191000CAF80400DAF81410DAF80400FEF770FCD4
:1019200006463146DAF80400FEF7F4FCCAF80C006B
:10193000DAF80800FEF731FF22462B46CDE9000118
:10194000FEF7CAFDCDE90201DAF80C00FEF725FF2B
:101950000646DDE90223FEF7C2FD80468946DAF835
:101960000800FEF71AFF42464B46CDE90401FEF798
:101970000FFDCDE90601FEF73BFFCAF808004FF066
:101980007E50DAF80C10FEF78DFC0646DAF80410EB
:10199000FEF78EFCCAF80000DAF80800FEF7FDFE3C
:1019A00008B0BDE8F08700002DE9FC5F83460C46D7
:1019B0002046FEF783FE07464FF033320C4BFEF70E
:1019C0008EFD81468A465846FEF778FE07464FF060
:1019D0003332084BFEF783FD4A465346CDE90001FA
:1019E000FEF7D6FC0546FEF7A0FE00B2BDE8FC9F60
:1019F0003333EB3F3333C33F07B5A0B04FF07C51D7
:101A00002298FEF755FC0E90FE4880680690FD482F
:101A1000006805900699FEF74BFC0890F948C068ED
:101A20000690F848406805900699FEF741FC07903B
:101A30000899FEF737FC4FF080410990FEF738FC1B
:101A40001D90F048C0680690EE48806805900699A1
:101A5000FEF72EFC0890EB4840680690E9480068C5
:101A600005900699FEF724FC07900899FEF7C8FB3D
:101A70004FF080410990FEF71BFC1E90E148806802
:101A80000590E048806804900599FEF711FC0790E6
:101A9000DC4840680590DB48406804900599FEF7F3
:101AA00007FC06900799FEF7ABFB4FF080410890CA
:101AB000FEF7FEFB4FF07E510990FEF7F6FB1F90FC
:101AC0002098B0F90A000490FEF7EAFD06902098ED
:101AD000B0F90A000490FEF7E3FD05900699FEF7C1
:101AE000E7FB08902098B0F908000290FEF7D8FDB7
:101AF00004902098B0F908000290FEF7D1FD039001
:101B00000499FEF7D5FB06902098B0F906000290E4
:101B1000FEF7C6FD04902098B0F906000290FEF78B
:101B2000BFFD03900499FEF7C3FB05900699FEF7ED
:101B300067FB07900899FEF763FB099003F0D4FB5D
:101B40000F902098B0F906000890FEF7A9FD0990C3
:101B50000F99FEF7ADFB1A902098B0F90800089095
:101B6000FEF79EFD09900F99FEF7A2FB1B902098AF
:101B7000B0F90A000890FEF793FD09900F99FEF75F
:101B800097FB1C901E9807901C9806900799FEF7EB
:101B90008FFB09901F9807901B9806900799FEF7F6
:101BA00087FB08900999FEF77DFB14901F9807901A
:101BB0001A9806900799FEF77BFB09901D980790ED
:101BC0001C9806900799FEF773FB08900999FEF799
:101BD00069FB15901D9807901B9806900799FEF7D2
:101BE00067FB09901E9807901A9806900799FEF7D0
:101BF0005FFB08900999FEF755FB16901498089022
:101C0000814801680898FEF753FB09907F480068F7
:101C1000014608900998FEF7F3FA7C490860159888
:101C20000890794801680898FEF742FB09907748C8
:101C30004068014608900998FEF7E2FA7349486047
:101C400016980890704801680898FEF731FB0990D3
:101C50006E488068014608900998FEF7D1FA6B49F2
:101C6000886014980146069069480068FEF720FBDA
:101C700008902098B0F900000590FEF711FD06903D
:101C8000644801680698FEF713FB07900899FEF771
:101C9000B7FA09905D480068014608900998FEF778
:101CA000AFFA179015980146069059480068FEF75C
:101CB000FFFA08902098B0F902000590FEF7F0FCBA
:101CC0000690544801680698FEF7F2FA07900899C2
:101CD000FEF796FA09904D48406801460890099829
:101CE000FEF78EFA1890169801460690484800684C
:101CF000FEF7DEFA08902098B0F904000590FEF790
:101D0000CFFC0690434801680698FEF7D1FA079089
:101D10000899FEF775FA09903C48806801460890DA
:101D20000998FEF76DFA1990199806903548C06821
:101D300005900699FEF7BCFA08901898049031486F
:101D4000806803900499FEF7B3FA06902D48406826
:101D500080F0004004901798014603900498FEF725
:101D6000A7FA05900699FEF79DFA07900899FEF7E5
:101D700099FA09900E99FEF79BFA1390199806901C
:101D80002048806805900699FEF792FA0890189806
:101D900004901C48C06803900499FEF789FA0690E5
:101DA000179804901748006803900499FEF780FA8A
:101DB00005900699FEF776FA07900899FEF720FA43
:101DC00009900E99FEF774FA1290199806900D4832
:101DD000406805900699FEF76BFA089018980490F1
:101DE0000848006803900499FEF762FA0690179875
:101DF00004900448C06803900499FEF759FA0590CE
:101E0000069909E0780000207400002008050020F1
:101E10007000002060000020FEF7F2F9079008999A
:101E2000FEF740FA09900E99FEF742FA11901998C0
:101E30000690CA48006805900699FEF739FA08909E
:101E400018980490C548406803900499FEF730FA4A
:101E50000690C248806880F00040049017980146C0
:101E600003900498FEF724FA05900699FEF7C8F946
:101E700007900899FEF7C4F909900E99FEF718FA31
:101E80001090B648006809901399FEF7B9F9B34964
:101E900008600846406809901299FEF7B1F9AF4909
:101EA00048600846806809901199FEF7A9F9AB4986
:101EB00088600846C06809901099FEF7A1F9A74903
:101EC000C8600846C06806900846C0680590069934
:101ED000FEF7EEF90890A148806804909F4880685A
:101EE00003900499FEF7E4F906909C48406802903C
:101EF0009A48406801900299FEF7DAF904909748F1
:101F0000006802909548006801900299FEF7D0F9A8
:101F100003900499FEF774F905900699FEF770F99D
:101F200007900899FEF76CF9099003F0DDF90F901E
:101F30008A48006809900F99FEF7BAF98749086046
:101F40000846406809900F99FEF7B2F98349486046
:101F50000846806809900F99FEF7AAF97F498860C2
:101F60000846C06809900F99FEF7A2F97B49C8603E
:101F700008464068014606904FF08040FEF798F909
:101F800007907648C068014606900798FEF790F9DA
:101F9000099072480068014606904FF08040FEF7B5
:101FA00087F907906D488068014606900798FEF70C
:101FB0007FF908900999FEF775F90D906748006858
:101FC000014606904FF08040FEF772F90790634893
:101FD0004068014606900798FEF76AF909905F4845
:101FE0008068014606904FF08040FEF761F9079047
:101FF0005A48C068014606900798FEF759F90890BC
:102000000999FEF7FDF80C90544880680146069047
:102010004FF08040FEF74CF9079050488068014629
:1020200006900798FEF744F909904C48406801462D
:1020300005904FF08040FEF73BF906904748406816
:10204000014605900698FEF733F94FF07E51079050
:10205000FEF72BF908900999FEF724F90B902098C8
:10206000B0F904000890FEF71BFB09903C4801689A
:102070000998FEF71DF90A904FF07C510A98FEF777
:10208000DDFB09D30A98FEF788FB0022354BCDE92A
:102090000801FEF795FB0DD222990A98FEF708F980
:1020A000099021980068014608900998FEF7A8F861
:1020B000219908602C480068FEF76FFBCDE9060106
:1020C0000D98FEF76AFBCDE9020104F08DF9CDE928
:1020D0000401DDE90623FEF702FACDE90801FEF767
:1020E00087FB21994860DDE90B1004F0B5FA0990EF
:1020F0001D4801680998FEF7DBF82199886020984F
:10210000B0F90A000590FEF7CBFA06900B99FEF79E
:10211000CFF808902098B0F908000390FEF7C0FAB5
:1021200004900C99FEF7C4F806902098B0F90600C8
:102130000390FEF7B5FA04900D99FEF7B9F80590F3
:102140000699FEF75DF807900899FEF759F809908F
:10215000FEF723FB054A03C223B000BD7800002030
:102160005C0000200000E0BF580000206800002054
:10217000704772B600BFFEE708B505F03BF9009066
:10218000FFF75CF81DE0FEF7E7FFFFF771F80D4879
:10219000007802280DD10C480078401C0A490870CC
:1021A00008460078042804DBFEF7C0FF002006493B
:1021B0000870FEF7E5FC00BF0621684605F02AF826
:1021C00000BFE0E7090100201401002070B50446BB
:1021D00000F0B0F906462546681C10B104480078A6
:1021E000054400BF00F0A6F9801BA842FAD370BDD9
:1021F000080000202DE9F8470346002294466EE1CE
:102200004FF0010808FA02F4D1F8008008EA04004F
:10221000A0427DD1DFF8DCA2D1F80480A8EB0A0946
:10222000D0453AD014DCB8F1030F50D009DCB8F136
:10223000000F31D0B8F1010F1CD0B8F1020F49D115
:1022400020E0B8F1110F18D0B8F1120F42D11EE002
:10225000B9F5881F25D006DCB9F5803F20D0B9F547
:10226000801F37D11AE0B9F5001F18D0B9F5041F47
:1022700030D117E0D1F80CC02DE0D1F80C8008F176
:10228000040C28E0D1F80C8008F1080C23E0D1F808
:102290000C8008F10C0C1EE000BF00BF00BF00BFA7
:1022A00000BF00BFD1F80880B8F1000F02D14FF095
:1022B000040C0BE0D1F80880B8F1010F03D14FF006
:1022C000080C1C6102E04FF0080C5C6103E04FF069
:1022D000000C00E000BF00BFFF2801D8984601E0D5
:1022E00003F104084646FF2802D84FEA820803E0BB
:1022F000A2F108084FEA88084746D6F800804FF058
:102300000F0909FA07F928EA09080CFA07F900E0A9
:1023100088E048EA0908C6F80080D1F8048008F08F
:102320008058B8F1805F7DD100BFDFF8CC81D8F84C
:10233000188048F00108DFF8C091C9F81880C84635
:10234000D8F8188008F00108CDF8008000BF00BF61
:102350004FEAB9384FEA920958F829504FEA827883
:102360004FEA18794FF00F0808FA09F825EA08052E
:10237000DFF88881434502D14FF0000816E0DFF80E
:102380008081434502D14FF001080FE0DFF87481EE
:10239000434502D14FF0020808E0DFF86C81434565
:1023A00002D14FF0030801E04FF004084FEA8279B0
:1023B0004FEA197908FA09F848EA0505DFF84C816F
:1023C0004FEA920948F82950D1F8048008F480189F
:1023D000B8F5801F0AD1DFF83881D8F8008048EAC4
:1023E0000008DFF82C91C9F8008009E0DFF82081AF
:1023F000D8F8008028EA0008DFF81491C9F80080B6
:10240000D1F8048008F40018B8F5001F10D1DFF8E7
:10241000008108F10408D8F8008048EA0008DFF8D5
:10242000F09000E05AE009F10409C9F800800DE0DD
:10243000DFF8DC8008F10408D8F8008028EA0008FA
:10244000DFF8CC9009F10409C9F80080D1F80480C4
:1024500008F40038B8F5003F0ED1DFF8B480A8F1D9
:102460000408D8F8008048EA0008DFF8A490A9F131
:102470000409C9F800800DE0DFF89480A8F1040891
:10248000D8F8008028EA0008DFF88490A9F1040950
:10249000C9F80080D1F8048008F48038B8F5803F8E
:1024A0000ED1DFF86C80A8F10808D8F8008048EA5F
:1024B0000008DFF85C90A9F10809C9F800800DE078
:1024C000DFF84C80A8F10808D8F8008028EA000856
:1024D000DFF83C90A9F10809C9F80080521CD1F836
:1024E000008028FA02F8B8F1000F7FF489AEBDE849
:1024F000F8870000000011100010024000080140A1
:10250000000C01400010014000140140080001408F
:102510000804014010B5C26821EA020302EA01047E
:1025200043EA0443036110BD0AB1016101E00B04F9
:1025300003617047014800687047000000000020F8
:1025400070B504460CB9012070BD94F83D0028B95F
:10255000002084F83C00204600F046FB242084F84C
:102560003D002068006820F00100216808602068B4
:10257000006840F40040216808602068006820F48A
:1025800000402168086000F025FD05465C49606850
:10259000884206D85B48854201D2012007E000202E
:1025A00005E05948854201D2012000E000200128C1
:1025B00000D1C9E75548B5FBF0F62068406820F027
:1025C0003F003043216848604D496068884201D827
:1025D000701C07E04FF4967070434FF47A71B0FBB3
:1025E000F1F0401C2168096A21F03F01084321688D
:1025F000086243496068884214D8681E61684900CF
:10260000B0FBF1F0401CC0F30B00042801D2042001
:102610003DE0681E61684900B0FBF1F0401CC0F36A
:102620000B0034E0A06838B9681E616801EB410115
:10263000B0FBF1F0401C0AE0681E616801EBC102CA
:1026400002EB0111B0FBF1F0401C40F48040C0F3FC
:102650000B0008B901201AE0A06848B9681E61683B
:1026600001EB4101B0FBF1F0401CC0F30B000CE0AA
:10267000681E616801EBC10202EB0111B0FBF1F0D1
:10268000401CC0F30B0040F4804040F4004021683F
:10269000C9694CF6FF72914308432168C861D4E9C7
:1026A000070108432168096821F0C0010843216837
:1026B0000860D4E9031008432168896848F2FF32B2
:1026C0009143084321688860D4E9050108432168E3
:1026D000C96821F0FF0108432168C86020680068CC
:1026E00040F001002168086000202064202084F868
:1026F0003D000020206384F83E0000BF24E7000076
:10270000A086010080841E0000093D0040420F00A9
:102710002DE9FE4F04460F4690469946DDE90CAB85
:102720000E9E00200290FFF705FF054694F83D003D
:10273000202872D119230122CE492046009501F0AC
:1027400082FD10B10220BDE8FE8F00BF94F83C006E
:10275000012801D10220F6E7012084F83C0000BFE7
:102760002068006800F0010028B92068006840F087
:102770000100216808602068006820F4006021687A
:102780000860222084F83D00402084F83E000020AC
:102790002064C4F824A0A4F82AB0608D2085B6482F
:1027A000E0624B46424639462046CDE9006501F0DD
:1027B000F7FB08B10120C6E7208D88B900BF0020D3
:1027C000019020684069019020688069019000BFF5
:1027D00000BF2068006840F40070216808604BE08A
:1027E000208D01281AD12068006820F480602168BB
:1027F000086072B600BF0020019020684069019017
:1028000020688069019000BF00BF2068006840F424
:1028100000702168086062B62EE029E1208D022850
:1028200019D12068006840F400602168086072B621
:1028300000BF0020019020684069019020688069F5
:10284000019000BF00BF2068006820F4806021680C
:10285000086062B610E02068006840F4806021687B
:10286000086000BF00200190206840690190206846
:102870008069019000BF00BFEBE0208D03287DD868
:10288000208D012815D12A463146204601F0B7FD9A
:1028900008B1012057E720680069616A0870606A22
:1028A000401C6062208D401E2085608D401E60852A
:1028B000CFE0208D02282CD1334600226F492046DC
:1028C000009501F0C0FC08B101203CE772B6206819
:1028D000006840F400702168086020680069616A3F
:1028E0000870606A401C6062208D401E2085608DEB
:1028F000401E608562B620680069616A0870606A7F
:10290000401C6062208D401E2085608D401E6085C9
:102910009FE03346002259492046009501F093FC80
:1029200008B101200FE72068006820F4806021686A
:10293000086072B620680069616A0870606A401CAD
:102940006062208D401E2085608D401E60854C4851
:1029500000681921B0FBF1F04FF47A71B0FBF1F08F
:10296000C0EBC00000EB8000029000BF0298401E48
:1029700002900298A8B90020206300E039E02020EE
:1029800084F83D00002084F83E00206C40F02000D8
:10299000206462B600BF002084F83C0000BF012024
:1029A000D1E620684069C0F380000028DED02068AE
:1029B000006840F400702168086020680069616A5E
:1029C0000870606A401C6062208D401E2085608D0A
:1029D000401E608562B620680069616A0870606A9E
:1029E000401C6062208D401E2085608D401E6085E9
:1029F0002FE02A463146204601F001FD08B10120B2
:102A0000A1E620680069616A0870606A401C606223
:102A1000208D401E2085608D401E608520684069A5
:102A2000C0F38000A8B1208D032805D1206800687C
:102A300020F480602168086020680069616A08707D
:102A4000606A401C6062208D401E2085608D401EA3
:102A50006085208D00287FF410AF202084F83D0091
:102A6000002084F83E0000BF84F83C0000BF6AE606
:102A7000022068E6020010000000FFFF04000100D1
:102A80000C0000202DE9FC5F04460F469046994655
:102A9000DDE90CAB0E9EFFF74DFD054694F83D00B9
:102AA00020287DD1192301224D492046009501F0AF
:102AB000CAFB10B10220BDE8FC9F00BF94F83C00A7
:102AC000012801D10220F6E7012084F83C0000BF74
:102AD0002068006800F0010028B92068006840F014
:102AE0000100216808602068006820F40060216807
:102AF0000860212084F83D00402084F83E0000203A
:102B00002064C4F824A0A4F82AB0608D208535483C
:102B1000E0624B46424639462046CDE9006501F069
:102B2000EFFA08B10120C6E731E02A4631462046D7
:102B300001F0AAFC50B1206C042805D1206800687F
:102B400040F40070216808600120B4E7606A0078F2
:102B500021680861606A401C6062208D401E2085EB
:102B6000608D401E608520684069C0F3800070B1B0
:102B7000208D60B1606A007821680861606A401C3D
:102B80006062208D401E2085608D401E6085208DF6
:102B90000028CAD12A463146204601F021FB00E038
:102BA0001CE050B1206C042805D12068006840F476
:102BB00000702168086001207DE72068006840F40B
:102BC000007021680860202084F83D00002084F80F
:102BD0003E0000BF84F83C0000BF6CE702206AE7BB
:102BE000020010000000FFFF10B586B00446002070
:102BF00002900390049005902B492068884225D1CB
:102C000000BF2A48806940F00800284988610846CA
:102C1000806900F00800019000BF00BFC020029052
:102C2000122003900320059002A92148FFF7E2FA41
:102C300000BF1E48C06940F400101C49C861084626
:102C4000C06900F40010019000BF2AE01949206813
:102C5000884226D100BF1548806940F0080013491A
:102C600088610846806900F00800019000BF00BF3D
:102C70004FF440600290122003900320059002A9B7
:102C80000B48FFF7B7FA00BF0848C06940F480005E
:102C90000649C8610846C06900F48000019000BF81
:102CA00000BF06B010BD00000054004000100240FC
:102CB000000C0140005800400348006803490978AF
:102CC0000844014908607047000000200800002007
:102CD00010B50848006840F010000649086003205D
:102CE00000F098F80F2000F007F800F02BF8002013
:102CF00010BD00000020024070B504460E48007868
:102D00004FF47A71B1FBF0F00C490968B1FBF0F5B2
:102D1000284600F0AFFD08B1012070BD102C07D28D
:102D200000222146501E00F037F80548046001E0FB
:102D30000120F2E70020F0E7080000200C0000204E
:102D40000400002008B500BF1148806940F0010070
:102D50000F4988610846806900F00100009000BFBB
:102D600000BF00BF0846C06940F08050C8610846F7
:102D7000C06900F08050009000BF00BF00BF05494F
:102D8000486820F0E06040F00070486000BF08BD77
:102D900000100240000001402DE9F05F80460D4622
:102DA0001646002703F022F9074639462A463346DD
:102DB00001F00700C0F1070ABAF1040F02D94FF081
:102DC000040A01E0C0F1070AD14600F1040ABAF191
:102DD000070F02D24FF0000A01E0A0F1030AD44627
:102DE0004FF0010A0AFA09FAAAF1010A0AEA020AEC
:102DF0000AFA0CFA4FF0010B0BFA0CFBABF1010BCA
:102E00000BEA030B4AEA0B042146404603F0F6F8AE
:102E1000BDE8F09F00BF00F00702064B19684FF6AF
:102E2000FF031940044B0B4343EA0221014B196095
:102E300000BF70470CED00E00000FA0570B50446D5
:102E40000D460CB9012070BD5A48006800F007001B
:102E5000A8420ED25748006820F007002843554981
:102E600008600846006800F00700A84201D0012071
:102E7000E9E7207800F0020002281DD1207800F058
:102E80000400042805D14C48406840F4E0604A49F9
:102E90004860207800F00800082805D146484068BE
:102EA00040F46050444948604348406820F0F000D6
:102EB000A168084340494860207800F0010078B3D9
:102EC0006068012806D13C48006800F4003090B9E1
:102ED0000120B8E76068022806D13748006800F092
:102EE000007040B90120AEE73348006800F00200EE
:102EF00008B90120A7E73048406820F00300616866
:102F000008432D494860FFF715FB064609E0FFF727
:102F100011FB801B41F28831884202D9032092E7DD
:102F200007E02548406800F00C006168B0EB810FB5
:102F3000EDD12048006800F00700A8420ED91D48D6
:102F4000006820F0070028431A4908600846006816
:102F500000F00700A84201D0012074E7207800F0BB
:102F60000400042807D11448406820F4E060E168B8
:102F7000084311494860207800F00800082808D16B
:102F80000D48406820F46050216940EAC1000A49B8
:102F9000486000F03FF808494968C1F30311074A47
:102FA000515CC8400649086006480068FFF7A4FE67
:102FB000002048E70020024000100240FE76000892
:102FC0000C00002004000020014800687047000049
:102FD0000C00002000B5FFF7F7FF04494968C1F372
:102FE0000221034A515CC84000BD000000100240AD
:102FF0000E77000800B5FFF7E7FF04494968C1F301
:10300000C221034A515CC84000BD000000100240CC
:103010000E77000870B50021002200240023002054
:10302000134D696801F00C05F5B1042D02D0082D8F
:1030300019D101E00F4819E00F4DC1F38346AB5D94
:1030400001F4803555B10A4D6D68C5F340450B4E0E
:10305000725D084D5D43B5FBF2F402E0084D03FBE1
:1030600005F4204602E000BF024800BF00BF70BD6B
:103070000010024000127A00EC760008FC7600088E
:1030800000093D00F8B504460CB90120F8BD2078D0
:1030900000F00100002878D0F848406800F00C00EB
:1030A00004280CD0F548406800F00C00082811D125
:1030B000F248406800F48030B0F5803F0AD1EF4814
:1030C000006800F4003000285FD0606800285CD100
:1030D0000120DBE700BF6068B0F5803F06D1E7481C
:1030E000006840F48030E549086028E0606858B91D
:1030F000E248006820F48030E04908600846006833
:1031000020F4802008601AE06068B0F5A02F0BD191
:10311000DA48006840F48020D84908600846006812
:1031200040F4803008600AE0D448006820F4803021
:10313000D24908600846006820F48020086000BF7B
:10314000606888B1FFF7F6F9054606E0FFF7F2F987
:10315000401B642801D9032098E7C848006800F4A0
:1031600000300028F2D010E0FFF7E4F9054606E051
:10317000FFF7E0F9401B642801D9032086E7BF4828
:10318000006800F400300028F2D1207800F002003E
:10319000022857D1B948406800F00C0050B1B74838
:1031A000406800F00C00082818D1B448406800F4CA
:1031B000803098B9B148006800F0020020B1206961
:1031C000012801D0012061E7AC48006820F0F80038
:1031D000616940EAC100A949086033E02069E8B1AB
:1031E0000120A7490860FFF7A5F9054606E0FFF7AB
:1031F000A1F9401B022801D9032047E79F48006836
:1032000000F002000028F2D09C48006820F0F8008E
:10321000616940EAC1009949086013E000209849BB
:103220000860FFF787F9054606E0FFF783F9401BC2
:10323000022801D9032029E79048006800F0020025
:103240000028F2D1207800F0080008282DD1A069CC
:10325000B8B101208B490860FFF76CF9054606E01C
:10326000FFF768F9401B022801D903200EE78348C5
:10327000406A00F002000028F2D0012002F05CF861
:1032800013E000207F490860FFF754F9054606E087
:10329000FFF750F9401B022801D90320F6E67748D2
:1032A000406A00F002000028F2D1207800F004000B
:1032B000042873D100277148C06900F0805070B9AC
:1032C00000BF6E48C06940F080506C49C861084634
:1032D000C06900F08050009000BF00BF01276A481D
:1032E000006800F48070B0B96748006840F48070EE
:1032F00065490860FFF71EF9054606E0FFF71AF971
:10330000401B642801D90320C0E65F48006800F430
:1033100080700028F2D000BFE068012806D157482D
:10332000006A40F001005549086227E0E06858B99A
:103330005248006A20F00100504908620846006ABD
:1033400020F00400086219E0E06805280BD14B4822
:10335000006A40F00400494908620846006A40F0EB
:10336000010008620AE04548006A20F00100434974
:1033700008620846006A20F00400086200BFE068A6
:10338000A0B1FFF7D7F8054609E0FFF7D3F8401BD7
:1033900041F28831884202D9032077E622E037489B
:1033A000006A00F002000028EFD012E0FFF7C2F838
:1033B000054608E0FFF7BEF8401B41F2883188421D
:1033C00001D9032062E62D48006A00F002000028BF
:1033D000F0D1012F05D12948C06920F0805027493C
:1033E000C86100BFE069C8B32448406800F00C0021
:1033F000082860D0E069022848D1002020490866EA
:10340000FFF798F8054606E0FFF794F8401B0228FE
:1034100001D903203AE61948006800F0007000283E
:10342000F2D1206AB0F5803F07D11448406820F4FB
:103430000030A168084311494860D4E908010843F5
:103440000E49496821F4741108430C494860012071
:103450000B490866FFF76EF8054607E03DE0FFF709
:1034600069F8401B022801D903200FE603480068D1
:1034700000F000700028F2D02FE0000000100240A1
:103480000000424280044242007000400020144983
:103490000866FFF74FF8054606E0FFF74BF8401BBC
:1034A000022801D90320F1E50E48006800F0007001
:1034B0000028F2D111E0E069012800D1E6E50948D1
:1034C000466806F48031206A814204D106F4701106
:1034D000606A814201D00120D8E50020D6E50000D5
:1034E000000042420010024010B504460CB9012011
:1034F00010BD606A38B96068B0F5827F00D105E020
:103500000021E16102E00021216161610021A162ED
:1035100094F8510028B9002084F85000204600F0AB
:1035200043F8022084F851002068006820F0400031
:1035300021680860A08800F48270218901F40441A8
:103540000843A18901F400610843217C01F00201D4
:103550000843217D01F001010843218B01F4007132
:103560000843217F01F0380108432021095D01F063
:1035700080010843218D01F400510843216808604F
:103580000421A06901EA1040216848602068C069F0
:1035900020F400602168C86100206065012084F883
:1035A00051000020A4E7000010B586B004460020BA
:1035B00002900390049005901949206888422DD10B
:1035C00000BF1848806940F4805016498861084659
:1035D000806900F48050019000BF00BF00BF084622
:1035E000806940F0040088610846806900F00400AA
:1035F000019000BF00BFA020029002200390032092
:10360000059002A90848FEF7F5FD40200290002031
:103610000390049002A90448FEF7ECFD06B010BD2B
:103620000030014000100240000801402DE9FE4F2B
:1036300004460F4690461D460C9E01200190FEF761
:1036400079FF814694F851B060680290AA46BBF1B8
:10365000010F0BD00298B0F5827F04D1A06810B999
:10366000BBF1040F02D00220BDE8FE8F1FB1B8F1FC
:10367000000F00D00DB90120F6E700BF94F850000C
:10368000012801D10220EFE7012084F8500000BF9B
:1036900094F85100042802D0052084F8510000203D
:1036A0006065C4F83880E587A5872763E586A58629
:1036B000206460642068006800F04000402805D065
:1036C0002068006840F0400021680860E068B0F5BC
:1036D000006F52D1606810B1BAF1010F09D1206BAF
:1036E00000882168C860206B801C2063E08E401E2B
:1036F000E0863BE02068806800F00200022810D1DC
:10370000E08E70B1019801280BD1206B00882168F0
:10371000C860206B801C2063E08E401EE086002085
:1037200001902068806800F0010068B1E08F58B116
:103730002068C068A16B0880A06B801CA063E08F2C
:10374000401EE08701200190FEF7F4FEA0EB090087
:10375000B0420BD3701C48B1012084F8510000BF67
:10376000002084F8500000BF03207DE7E08E002891
:10377000C0D1E08F0028BDD152E0606810B1BAF12D
:10378000010F09D1206B007821680873206B401C61
:103790002063E08E401EE0863CE02068806800F0F8
:1037A0000200022810D1E08E70B1019801280BD1DF
:1037B000206B007821680873206B401C2063E08E2A
:1037C000401EE086002001902068806800F0010023
:1037D00068B1E08F58B12068C068A16B0870A06B19
:1037E000401CA063E08F401EE08701200190FEF79F
:1037F000A1FEA0EB0900B04201D3701C00B94EB984
:10380000012084F8510000BF002084F8500000BF60
:10381000032029E7E08E0028BFD1E08F0028BCD12B
:103820004A463146204601F09BFD40B120206065AC
:1038300000BF002084F8500000BF012014E7A068FA
:1038400050B900BF002000902068C0680090206838
:103850008068009000BF00BF012084F8510000BFC5
:10386000002084F8500000BF606D08B10120FBE625
:103870000020F9E670B504462546681EB0F1807F49
:1038800001D301200FE0681E4FF0E02148610F21B5
:103890004FF0FF3002F0B2FB00204FF0E0218861D2
:1038A00007200861002070BD10B50346002200BF4C
:1038B00093F83C00012801D1022010BD012083F8BB
:1038C0003C0000BF22F0FF00CC6840EA040222F472
:1038D00040708C6840EA040222F480604C6840EA40
:1038E000040222F400600C6840EA040222F48050D2
:1038F0000C6940EA040222F400504C6940EA0402D8
:1039000022F48040CC6940EA04021868426400BF97
:10391000002083F83C0000BF00BFCEE730B5024670
:103920000B4600BF92F83C00012801D1022030BDB7
:10393000012082F83C0000BF022082F83D001068A0
:1039400044681068816824F07004186804431068A3
:103950004460104D1068A8420BD01068B0F1804F41
:1039600007D00D4D1068A84203D00C4D1068A84236
:1039700005D121F080015868014310688160012061
:1039800082F83D0000BF002082F83C0000BF00BF6D
:10399000CDE70000002C014000040040000800407A
:1039A00010B586B004460020029003900490059064
:1039B0003C492068884217D100BF3B48806940F0ED
:1039C0000400394988610846806900F004000190CC
:1039D00000BF00BF0815029002200390059002A9C5
:1039E0003248FEF707FC5BE02068B0F1804F16D14B
:1039F00000BF2D48806940F004002B4988610846CB
:103A0000806900F00400019000BF00BF0220029016
:103A10000390059002A92548FEF7ECFB40E02449FD
:103A20002068884221D100BF1F48806940F008000B
:103A30001D4988610846806900F00800019000BFB8
:103A400000BF1020029002200390059002A919489F
:103A5000FEF7D0FB00BF1849486820F4406040F0F2
:103A6000E06040F4006048601AE014492068884231
:103A700016D100BF0C48806940F008000A498861EF
:103A80000846806900F00800019000BF00BF48159B
:103A9000029002200390059002A90648FEF7AAFBB7
:103AA00006B010BD002C014000100240000801408B
:103AB00000040040000C01400000014000080040EC
:103AC0002DE9F04104460D461646002700BF94F844
:103AD0003C00012802D10220BDE8F081012084F8D9
:103AE0003C0000BF36B1042E1BD0082E31D00C2E66
:103AF0005ED145E02946206801F064FD20688069B8
:103B000040F00800216888612068806920F0040086
:103B10002168886120688069296908432168886173
:103B200048E02946206801F07DFD2068806940F466
:103B30000060216888612068806920F480602168C5
:103B4000886120688069296940EA012021688861CC
:103B500030E02946206801F099FD2068C06940F0F6
:103B600008002168C8612068C06920F0040021684D
:103B7000C8612068C069296908432168C86119E0E3
:103B80002946206801F0B6FD2068C06940F4006055
:103B90002168C8612068C06920F480602168C8611C
:103BA0002068C069296940EA01202168C86101E0F4
:103BB000012700BF00BF00BF002084F83C0000BF09
:103BC000384689E710B504460CB9012010BD94F8B9
:103BD0003D0028B9002084F83C00204600F026F87B
:103BE000022084F83D00211D206801F097FC01208F
:103BF00084F8460000BF84F83E0001213F200155B3
:103C0000402001554120015500BF00BF012084F82C
:103C1000420043200155442001554520015500BF75
:103C2000012084F83D000020D0E7000008B5244AB8
:103C3000016891420DD100BF2249896941F40061B8
:103C4000204A91611146896901F40061009100BF29
:103C500035E00168B1F1804F0DD100BF1949C96944
:103C600041F00101174AD1611146C96901F0010112
:103C7000009100BF23E0144A016891420DD100BFBA
:103C80001049C96941F002010E4AD1611146C96962
:103C900001F00201009100BF11E00C4A016891425D
:103CA0000DD100BF0749C96941F00401054AD1613E
:103CB0001146C96901F00401009100BF00BF08BDB1
:103CC000002C0140001002400004004000080040A9
:103CD00070B504460D4615B994F83E000BE0042D6E
:103CE00002D13F20005D06E0082D02D14020005D9A
:103CF00001E04120005D012801D0012070BD1DB907
:103D0000022084F83E000EE0042D03D102213F2062
:103D1000015508E0082D03D102214020015502E0A1
:103D200002214120015501222946206801F038FC7A
:103D300019492068884201D1012000E0002028B103
:103D40002068406C40F400402168486412492068B3
:103D500088420BD02068B0F1804F07D00F4920680F
:103D6000884203D00E49206888420CD120688068C0
:103D700000F00706062E0CD02068006840F0010015
:103D80002168086005E02068006840F001002168B3
:103D900008600020B2E70000002C01400004004051
:103DA0000008004010B504460CB9012010BDA06900
:103DB00000B100E000BF94F8410028B9002084F869
:103DC0004000204600F02AF8242084F841002068B2
:103DD000C06820F400502168C860204601F0E4FC6F
:103DE0002068006920F490402168086120684069DB
:103DF00020F02A00216848612068C06840F4005023
:103E00002168C86000206064202084F8410084F8A4
:103E100042000020606300BFC8E7000010B586B014
:103E200004460020029003900490059019492068F0
:103E300088422DD100BF1848C06940F400301649AF
:103E4000C8610846C06900F40030019000BF00BF9F
:103E500000BF0846806940F0040088610846806918
:103E600000F00400019000BF00BF04200290022077
:103E700003900320059002A90848FEF7BBF908202B
:103E8000029000200390049002A90448FEF7B2F9C2
:103E900006B010BD00440040001002400008014080
:103EA0002DE9F84F04460E46174699464FF0000A92
:103EB00094F84100202850D106B117B90120BDE87F
:103EC000F88F00206064212084F84100FEF732FB67
:103ED0008246A784E784A068B0F5805F04D120699A
:103EE00010B90025B04602E035464FF000081EE04C
:103EF0005346002280212046CDF8009001F0D2FCEC
:103F000020B1202084F841000320D8E745B9B8F853
:103F10000000C0F308002168486008F1020803E0CF
:103F20002878216848606D1CE08C401EE084E08C9D
:103F30000028DDD15346002240212046CDF80090D4
:103F400001F0B0FC20B1202084F841000320B6E746
:103F5000202084F841000020B1E70220AFE700BF35
:103F6000FEE7014608684069C0F38020B0B16FF4F5
:103F700080600A68506100200863202081F83D00BD
:103F8000002081F83E00086C40F00400086400BF87
:103F9000002081F83C0000BF012070470020FCE7B2
:103FA0002DE9F84304460F4615469946DDE9088693
:103FB0002068006840F4806021680860206800681C
:103FC00040F4807021680860434600224FF00111E0
:103FD0002046009600F037F960B12068006800F4D0
:103FE0008070B0F5807F02D14FF400702064032010
:103FF000BDE8F88307F0FE002168086133464246B9
:104000003E49204600F07EF908B10120F0E700BFEC
:10401000002000902068406900902068806900902E
:1040200000BF00BF32464146204600F02DFA50B195
:10403000206C042805D12068006840F400702168D5
:1040400008600120D4E7B9F1010F03D1E8B221687B
:10405000086117E0C5F30720216808613246414630
:10406000204600F011FA50B1206C042805D12068D8
:10407000006840F40070216808600120B8E7E8B2E9
:104080002168086132464146204600F0FDF950B1F2
:10409000206C042805D12068006840F40070216875
:1040A00008600120A4E72068006840F4807021685F
:1040B0000860434600224FF001112046009600F0B0
:1040C000C2F858B12068006800F48070B0F5807FB5
:1040D00002D14FF400702064032089E7F8B240F069
:1040E000010021680861334642460449204600F039
:1040F00009F908B101207BE7002079E702000100FF
:104100002DE9F8430446884615469946DDE90867D7
:104110002068006840F480702168086033460022FF
:104120004FF001112046009700F08DF860B1206833
:10413000006800F48070B0F5807F02D14FF4007009
:1041400020640320BDE8F88308F0FE0021680861C0
:104150003B4632462149204600F0D4F808B1012000
:10416000F0E700BF002000902068406900902068C0
:104170008069009000BF00BF3A463146204600F0FB
:1041800083F950B1206C042805D12068006840F400
:104190000070216808600120D4E7B9F1010F03D154
:1041A000E8B22168086117E0C5F3072021680861BB
:1041B0003A463146204600F067F950B1206C042899
:1041C00005D12068006840F4007021680860012073
:1041D000B8E7E8B2216808610020B3E702000100F7
:1041E00070B504460D46164625E02046FFF7B9FE99
:1041F00008B1012070BD681CE8B1FEF79BF9801B77
:10420000A84200D8BDB920684069C0F3800090B9C9
:1042100000202063202084F83D00002084F83E0028
:10422000206C40F02000206400BF002084F83C0097
:1042300000BF0120DEE720684069C0F3800000284D
:10424000D3D00020D6E72DE9F04104460D461746AD
:104250001E46DDF8188038E0701CA8B3FEF76AF936
:10426000A0EB0800B04200D876BBC5F30740012898
:104270000AD120684069A9B20840A9B2884201D198
:1042800001200BE0002009E020688069A9B2084005
:10429000A9B2884201D1012000E00020B84214D127
:1042A00000202063202084F83D00002084F83E0098
:1042B000206C40F02000206400BF002084F83C0007
:1042C00000BF0120BDE8F081FFE7C5F307400128EA
:1042D0000AD120684069A9B20840A9B2884201D138
:1042E00001200BE0002009E020688069A9B20840A5
:1042F000A9B2884201D1012000E00020B842ABD031
:104300000020DFE72DE9F04104460D4616461F4622
:1043100058E020684069C0F38020E8B12068006858
:1043200040F40070216808606FF480602168486183
:1043300000202063202084F83D00002084F83E0007
:10434000206C40F00400206400BF002084F83C0092
:1043500000BF0120BDE8F081701C90B3FEF7EAF8C1
:10436000C01BB04200D866BBC5F3074001280AD184
:1043700020684069A9B20840A9B2884201D1012051
:104380000BE0002009E020688069A9B20840A9B2CA
:10439000884201D1012000E0002090B90020206374
:1043A000202084F83D00002084F83E00206C40F07E
:1043B0002000206400BF002084F83C0000BF0120E2
:1043C000C8E7FFE7C5F3074001280AD12068406924
:1043D000A9B20840A9B2884201D101200BE0002017
:1043E00009E020688069A9B20840A9B2884201D1D9
:1043F000012000E0002000288BD00020AAE770B543
:1044000004460D46164637E020684069C0F30010A8
:10441000A0B16FF0100021684861002020632020C7
:1044200084F83D00002084F83E00206C206400BF2A
:10443000002084F83C0000BF012070BDFEF77AF830
:10444000801BA84200D8BDB920684069C0F3801025
:1044500090B900202063202084F83D00002084F8DB
:104460003E00206C40F02000206400BF002084F853
:104470003C0000BF0120E0E720684069C0F38010E5
:104480000028C1D00020D8E770B504460D46164676
:1044900025E02046FFF765FD08B1012070BD681CCE
:1044A000E8B1FEF747F8801BA84200D8BDB92068E4
:1044B0004069C0F3C01090B900202063202084F828
:1044C0003D00002084F83E00206C40F02000206475
:1044D00000BF002084F83C0000BF0120DEE7206818
:1044E0004069C0F3C0100028D3D00020D6E70000F8
:1044F00010B5002204210E48FEF716F8642002F0E1
:1045000099FD012204210A48FEF70EF8C82002F0A6
:1045100091FD002204210648FEF706F8642002F00F
:1045200089FD012204210248FDF7FEFF10BD0000B5
:10453000000C014010B5002204210648FDF7F4FFED
:10454000642002F077FD012204210248FDF7ECFF10
:1045500010BD0000000C014010B50446A1880122E6
:104560002068FDF7E1FF10BD10B50446A1880022C8
:104570002068FDF7D9FF10BD10B50446A18820685A
:10458000FDF7C8FF10BDB0F90610B1F57A7F03DD65
:104590004FF47A71C1801EE0818829B9B0F9061004
:1045A00002681268516316E08188042905D1B0F9C8
:1045B00006100268126891630DE08188082905D110
:1045C000B0F9061002681268D16304E0B0F9061071
:1045D000026812681164704710B50446A18820680B
:1045E000FFF776FB10BD000010B505220E49102024
:1045F00000F05CF805220D49302000F045F9052255
:104600000949102000F052F8002109E00648405CFA
:10461000064A525C904201D0012010BD481CC1B234
:104620000529F3DB0020F8E7700200206B02002070
:1046300010B5C820FDF7CAFD02E00A20FDF7C6FD4F
:10464000FFF7D2FF0128F8D000F002F810BD0000FB
:1046500010B500224FF480711248FDF765FF052266
:1046600011492A2000F010F90121212000F02EF933
:104670000121222000F02AF91C21252000F026F932
:104680001121312000F022F90721262000F01EF927
:104690000F21202000F01AF9012211020148FDF734
:1046A00043FF10BD000801406B0200202DE9F041DE
:1046B00007460D461646002210210C48FDF734FF30
:1046C000384600F06FFE8046002405E0002000F030
:1046D00069FE2855601CC4B2B442F7DB01221021E8
:1046E0000248FDF721FF4046BDE8F0810008014087
:1046F00070B50446002210210848FDF715FF20463A
:1047000000F050FE002000F04DFE05460122102171
:104710000248FDF709FF284670BD0000000801406F
:1047200070B504460720FFF7E3FF054605F040009B
:1047300070B1112221466120FFF7B8FF40212720E8
:1047400000F0C4F8FF21E22000F0C0F8002070BDA6
:104750007021272000F0BAF80120F8E710B50022F8
:104760004FF480711548FDF7DFFE05221449302013
:1047700000F08AF8052212492A2000F085F801216C
:10478000212000F0A3F80121222000F09FF82A2127
:10479000242000F09BF81C21252000F097F8072129
:1047A000262000F093F80E21202000F08FF801223F
:1047B00011020248FDF7B8FE10BD000000080140DC
:1047C0006B02002070B505464FF47A7600224FF454
:1047D00080712C48FDF7A8FE11222946A02000F088
:1047E00053F8012211022748FDF79EFE0720FFF72C
:1047F0007FFF044606E0012002F01CFC0720FFF7C3
:1048000077FF044604F0200030B904F0100018B916
:10481000701E80B2061EEED1A6B900224FF4807140
:104820001848FDF781FEFF21E12000F04FF801223A
:1048300011021448FDF778FE1021272000F046F8F9
:10484000012070BD04F03001272000F03FF804F093
:10485000100080B100224FF480710A48FDF764FE19
:10486000FF21E12000F032F8012211020548FDF796
:104870005BFE0120E5E704F0200008B10020E0E73E
:104880000120DEE7000801402DE9F04107460C4613
:104890001546002210210C48FDF746FE384600F070
:1048A00081FD8046002605E014F8010B00F07AFD3A
:1048B000701CC6B2AE42F7DB012210210248FDF7A0
:1048C00033FE4046BDE8F0810008014070B5054662
:1048D0000C46002210210848FDF726FE284600F06D
:1048E00061FD0646204600F05DFD012210210248D0
:1048F000FDF71AFE304670BD0008014008B50020E3
:10490000009069460348008801F04FF8BDF80000A8
:1049100008BD0000940200200EB500224FF4805123
:104920003048FDF701FE022002F084FB0122110352
:104930002C48FDF7F9FD022002F07CFB00200290DC
:104940000190009002AA40F20F112748008801F060
:1049500089FA9DF8081025A001F010FB02AA4FF477
:1049600088712148008801F07DFA9DF8081025A083
:1049700001F004FB01AA40F20F111B48008801F06E
:1049800085FABDF8041026A001F0F8FA07E06946A0
:104990001548008800F0CEFF022002F04BFB9DF886
:1049A00000000028F3D022A001F0E8FA0E480088A9
:1049B00001F094F802210C48008801F0CBF8142192
:1049C0000948008801F05EF914210748008801F0C9
:1049D0002DF91BA001F0D2FA0348008801F02BFA50
:1049E0000EBD0000000C014094020020564C3533EF
:1049F0004C3158204D6F64656C5F49443A2025580E
:104A00000A000000564C35334C3158204D6F647508
:104A10006C655F547970653A2025580A00000000E3
:104A2000564C35334C31583A2025580A00000000C6
:104A30004368697020626F6F7465640A000000004B
:104A4000564C35334C315820556C747261204C698A
:104A5000746520447269766572204578616D706C6A
:104A6000652072756E6E696E67202E2E2E0A00000C
:104A70001FB50446684600F025F858B92146684637
:104A800000F052F90A482168016061684160A1683C
:104A900081600BE007480068401C06490860044834
:104AA00001682160416861608068A0601FBD0000EE
:104AB000184A00209002002001480068704700005A
:104AC000900200203EB5044664200E2101233B22C3
:104AD000CDE900410290D1210148FDF719FE3EBD0C
:104AE000A00200202DE9F04F87B00020059006902D
:104AF00003900490824603A800F09AF83AE005A8D3
:104B000000F096F8BDF91430BDF90CC0A3EB0C020F
:104B1000002A01DB134600E05342B3F5C87F20DAD8
:104B2000BDF91630BDF90EC0A3EB0C01002901DB65
:104B30000B4600E04B42B3F5C87F12DABDF91830DE
:104B4000BDF910C0A3EB0C00002801DB034600E018
:104B50004342B3F5C87F04DA0AF1010000F0FF0A0E
:104B600001E04FF0000ADDE90501CDE9030106206F
:104B700002F060FABAF1640FC1DB002000900190EE
:104B800002900024002500260027804681468346A7
:104B90001DE06846FFF76CFFBDF900000444BDF955
:104BA00002000544BDF904000644BDF906000744AF
:104BB000BDF908008044BDF90A00A0F58040814499
:104BC000062002F037FA0BF1010000F0FF0BBBF1F9
:104BD000640FDEDB642094FBF0F00F490860642072
:104BE00095FBF0F00D490860642096FBF0F00C494D
:104BF0000860642097FBF0F00A490860642098FB85
:104C0000F0F009490860642099FBF0F0074908605A
:104C100007B0BDE8F08F0000780200207C02002081
:104C20008002002084020020880200208C020020E4
:104C300010B588B0044604A8FFF744FF50B901A995
:104C400004A800F071F8DDF80A002060BDF80E003D
:104C5000A0800AE006480068401C05490860054835
:104C6000D0F8061021604089A08008B010BD000077
:104C700090020020184A002038B500240AE0802164
:104C80006B2000F0A7F800B906E00A2002F0D2F984
:104C9000601CC4B2052CF2DB00BF322002F0CAF95E
:104CA0000020009000240EE069466B2000F080F8A0
:104CB00020B99DF80000402800D106E0052002F050
:104CC000B9F9601CC4B2142CEEDB00BF00216B20CC
:104CD00000F080F80A2002F0ADF918211B2000F046
:104CE00079F800211C2000F075F80021382000F030
:104CF00071F800216A2000F06DF80121192000F000
:104D000069F801211A2000F065F801216B2000F0FC
:104D100061F800216C2000F05DF80A2002F08AF9A9
:104D2000FFF7E0FE38BD00004278037842EA032234
:104D3000194B1B88D21A12B2CA80C278837842EA11
:104D40000322164B1B88D21A13B20B8142790379C6
:104D500042EA0322124B1B88D21A13B24B81427AC9
:104D6000037A42EA03220F4B1B88D21A12B20A803E
:104D7000C27A837A42EA03220B4B1B88D21A12B200
:104D80004A80427B037B42EA0322084B1B88D21AEB
:104D900012B28A807047000084020020880200203E
:104DA0008C020020780200207C020020800200207B
:104DB0003EB504460D464FF47A7001210B4622465B
:104DC000CDE900510290D1210148FDF7A1FC3EBD83
:104DD000A002002013B584B004464FF47A7001217C
:104DE00005AA0B46CDE9002102902246D0210248B7
:104DF000FDF748FE06B010BDA002002008B502F085
:104E0000F9FA0090002452E0601CC4B228480078EF
:104E100030B92848FFF7A8FB2748FFF7A5FB09E0B2
:104E200023480078012805D12248FFF795FB224846
:104E3000FFF792FB2148007830B1012811D00228F9
:104E40001DD0032829D121E0052094FBF0F100FBBF
:104E5000114028B91A48FFF78FFB1A48FFF78CFB5F
:104E60001BE0204604EBD0714910A4EB410129B9A5
:104E70001348FFF781FB1348FFF77EFB0DE0104856
:104E8000FFF772FB0F48FFF76FFB06E00C48FFF7D8
:104E900063FB0C48FFF760FB00BF00BF0A2C00D18A
:104EA000002400BF6421684602F0B4F900BFABE7FC
:104EB00008010020E8000020F00000200901002087
:104EC000F80000200001002000B585B0002001900E
:104ED00002900390049000BF3048806940F01000B9
:104EE0002E4988610846806900F01000009000BFDC
:104EF00000BF00BF0846806940F020008861084676
:104F0000806900F02000009000BF00BF00BF08468D
:104F1000806940F0040088610846806900F0040060
:104F2000009000BF00BF00BF0846806940F0080045
:104F300088610846806900F00800009000BF00BF4B
:104F4000012241F610011648FDF7EEFA01224DF25A
:104F500004011448FDF7E8FA00224FF4807110486C
:104F6000FDF7E2FA41F610100190012002900020B6
:104F700003900220049001A90948FDF73BF94DF286
:104F80000400019001200290002003900220049070
:104F900001A90448FDF72EF905B000BD001002403C
:104FA00000080140000C014010B50B480B49086097
:104FB0000B484860002109488160C1604FF480417E
:104FC0000161002141618161C1610162FDF7B8FAAF
:104FD00008B1FDF7CEF810BD00540040A00200203B
:104FE000801A060010B50B480B4908600B48486052
:104FF000002109488160C1604FF4804101610021B6
:1050000041618161C1610162FDF79AFA08B1FDF762
:10501000B0F810BD00580040F4020020801A0600CD
:1050200010B50E480E4908604FF4827048600021A8
:105030000B488160C160016141614FF40071816181
:105040001021C16100210162416281620A21C162B5
:10505000FEF74AFA08B1FDF78CF810BD00300140A8
:105060004803002000B591B000200F9010901C2143
:1050700008A8FBF7BAF820216846FBF7B6F82348E2
:10508000234908600320486000212148816040F2E4
:10509000E731C1600021016141618161FEF792FD4C
:1050A00008B1FDF766F800200F9010900FA918487E
:1050B000FEF734FC08B1FDF75CF860200890002092
:1050C00009900A900B900C900D900E90082208A960
:1050D0000F48FEF7F5FC08B1FDF74BF800200090F3
:1050E00001900290039004904FF40050059000202E
:1050F000079069460648FEF7D7FB08B1FDF739F877
:105100000348FEF74DFC11B000BD0000002C01402B
:10511000A003002000B589B00020079008901C2152
:105120006846FBF762F84FF080401749086003209B
:10513000486000211448816040F2E731C1600021DD
:1051400001618161FEF73EFD08B1FDF712F8002014
:105150000790089007A90C48FEF7E0FB08B1FDF79F
:1051600008F8602000900020019002900490042232
:1051700069460548FEF7A4FC08B1FCF7FAFF0248AF
:10518000FEF70EFC09B000BDE803002000B589B0B1
:105190000020079008901C216846FBF726F8184865
:1051A000184908600320486000211648816040F2D9
:1051B000E731C160002101618161FEF703FD08B1A3
:1051C000FCF7D7FF00200790089007A90D48FEF7CD
:1051D000A5FB08B1FCF7CDFF6020009000200190F6
:1051E00002900490002269460648FEF769FC08B167
:1051F000FCF7BFFF0348FEF7D3FB09B000BD00007A
:10520000000400403004002000B589B00020079061
:1052100008901C216846FAF7E8FF1848184908600A
:105220000320486000211648816040F2E731C160E8
:10523000002101618161FEF7C5FC08B1FCF799FF0F
:1052400000200790089007A90D48FEF767FB08B1FA
:10525000FCF78FFF602000900020019002900490E6
:105260000C2269460648FEF72BFC08B1FCF781FFCB
:105270000348FEF795FB09B000BD000000080040A0
:105280007804002010B50B480B4908604FF4E1305A
:105290004860002108488160C16001610C214161C2
:1052A00000218161C161FEF77DFD08B1FCF761FF5E
:1052B00010BD000000440040C004002000BFFEE715
:1052C00000BFFEE702F096F80DE042F210720121F5
:1052D000002001F0D9FD044614B1FFF709F901E0FF
:1052E000FFF728F900BFF0E72DE9F05F04464FF023
:1052F0007F594FF07C512046FAF7DAFF8246254667
:105300002E460C48A0EB6606354629465046FAF76D
:10531000CFFF83462946FAF7CBFF80464946FAF786
:10532000C4FF07462946FAF7C3FF05462846BDE8ED
:10533000F09F0000DF59375F08B508490968C908C0
:105340004FF47A72B1FBF2F14143009100BF00BF0C
:1053500000994A1E00920029F9D108BD0C000020D6
:10536000F8B504460E461546334601220221204672
:10537000009500F029F828B1606D40F020006065CC
:105380000320F8BD3346002280212046009500F01E
:105390001BF828B1606D40F0200060650320F0E745
:1053A0000020EEE701B582B000200190FF2001232C
:1053B00001AA02A900900348FEF738F99DF80400FD
:1053C0000EBD0000480300202DE9F84F04460D46AD
:1053D00090461E46DDF82890FDF7ACF8A0EB0900DA
:1053E000371AFDF7A7F882462C480068C0F3CB3087
:1053F0007843009045E0701C002842D0FDF79AF8F1
:10540000A0EB0A00B84200D2A7BB2068406820F099
:10541000E000216848606068B0F5827F0DD1A06827
:10542000B0F5004F03D0A068B0F5806F05D12068BB
:10543000006820F0400021680860A06AB0F5005FB5
:105440000DD100BF2068006820F40050216808607A
:105450002068006840F400502168086000BF012007
:1054600084F8510000BF002084F8500000BF0320E2
:10547000BDE8F88FFFE7009800B900270098401EAC
:105480000090206880682840A84201D1012000E0F7
:1054900000204045AFD10020EAE700000C000020CA
:1054A00010B501F097FF012801D001F065FEFDF76E
:1054B00003FC10BD00B58FB0282105A8FAF795FEB2
:1054C00014216846FAF791FE012005900004069029
:1054D000002007900120099002200C90C1030D913B
:1054E0004FF4E0110E9105A8FDF7CCFD08B1FCF7D3
:1054F00040FE0F20009002200190002002904FF407
:10550000806003900020049002216846FDF796FC1D
:1055100008B1FCF72EFE0FB000BD704710B5026851
:105520001C4B984208D0B0F1804F05D01A4B9842DE
:1055300002D01A4B984203D122F070024B681A43F2
:10554000144B984208D0B0F1804F05D0124B9842CE
:1055500002D0124B984203D122F44072CB681A4316
:1055600022F080034C6943EA040202608B68C36244
:105570000B688362074B984201D10B6903630123D7
:105580004361036903F001031BB1036923F00103C5
:10559000036110BD002C01400004004000080040E1
:1055A00030B501F01F05012404FA05F3046A9C4399
:1055B0000462046A01F01F0502FA05F52C43046237
:1055C00030BD000030B5026A056A25F001050562AC
:1055D0004368846924F0700424F003040D682C43AC
:1055E00022F002028D682A430D4DA84206D100BF69
:1055F00022F00802CD682A4322F00402084DA84296
:1056000007D123F4807323F400734D692B438D6914
:105610002B43436084614D684563026230BD0000E6
:10562000002C014030B5026A056A25F010050562BC
:105630004368846924F4E04424F440740D6844EA27
:10564000052422F020028D6842EA05120E4DA84280
:1056500007D100BF22F08002CD6842EA051222F095
:105660004002094DA84209D123F4806323F400636A
:105670004D6943EA85038D6943EA8503436084618C
:105680004D688563026230BD002C014030B5026A6E
:10569000056A25F4807505624368C46924F07004C6
:1056A00024F003040D682C4322F400728D6842EA52
:1056B00005220F4DA84207D100BF22F40062CD6839
:1056C00042EA052222F48062094DA84209D123F45E
:1056D000805323F400534D6943EA05138D6943EA6F
:1056E00005134360C4614D68C563026230BD0000AC
:1056F000002C014030B5036A056A25F48055056227
:105700004468C26922F4E04222F440720D6842EA21
:10571000052223F400538D6843EA0533064DA84261
:1057200004D124F480444D6944EA85144460C26184
:105730004D680564036230BD002C014000BF00BF0E
:1057400002680C3252E8002F22F4907102680C3289
:1057500042E80013002BF3D100BF00BF00BF026876
:10576000143252E8002F22F001010268143242E89C
:105770000013002BF3D100BF016B01290ED100BF34
:1057800000BF02680C3252E8002F22F010010268BC
:105790000C3242E80013002BF3D100BF202180F827
:1057A000421000210163704770B504462168096901
:1057B00021F44051E2681143226811612269A16815
:1057C0001143626941EA02052168C96841F20C622D
:1057D000914329432268D1602168496921F44071CD
:1057E000A2691143226851612D4A2168914202D178
:1057F000FDF700FC01E0FDF7EDFB00EBC00101EB64
:10580000001162689200B1FBF2F100EBC00202EB02
:10581000001263689B00B2FBF3F26423B2FBF3F265
:1058200002EBC20303EB0212A1EB8201322202EB74
:1058300001116422B1FBF2F101F0F00100EBC002B2
:1058400002EB001263689B00B2FBF3F26423B2FB2D
:10585000F3F201EB021200EBC00101EB00116368EF
:105860009B00B1FBF3F100EBC00303EB0013666890
:10587000B600B3FBF6F36426B3FBF6F303EBC30603
:1058800006EB0313A1EB8301322303EB0111642325
:10589000B1FBF3F101F00F0111442268916070BD7A
:1058A000003801402DE9F84304460D461746984656
:1058B000089E31E0701C70B3FCF73CFEA0EB0800C2
:1058C000B04200D816B90320BDE8F8832068C0684C
:1058D00000F00400F8B1802D1ED0402D1CD02068AF
:1058E0000068C0F3C000B0B100BF00200090206885
:1058F0000068009020684068009000BF00BF20460C
:10590000FFF71CFF0820606400BF002084F84000FF
:1059100000BF0120D8E7FFE7206800682840A842C0
:1059200001D1012000E00020B842C3D00020CBE725
:1059300000BFFEE7F8B506460C46002500200090A3
:105940006A46E521304600F08DFA05439DF80000D7
:1059500020702846F8BD7CB506460D4600246946F1
:10596000304600F04AF8044301AA3121304600F0E5
:1059700079FA044364B99DF8040000F001009DF831
:105980000010884202D10120287001E00020287018
:1059900020467CBD70B5054600240122862128469C
:1059A00000F094FA0443204670BDF8B506460C4654
:1059B00000256A469621304600F068FA0543BDF896
:1059C000000020802846F8BDF8B506460C460025A4
:1059D0006A464B21304600F045FA2843C5B29DF88F
:1059E0000000142801D1012020809DF800000A2821
:1059F00001D10220208068B2F8BDF8B506460C46F9
:105A000000256A463021304600F02CFA05439DF807
:105A1000000000F0100000909DF80000001108B98F
:105A2000012000E0002020702846F8BDF8B50646A9
:105A30000C4600256A465E21304600F027FA0543F1
:105A4000BDF80000B0F5D77F2FD00EDC602829D03C
:105A500006DC1D281ED01E2820D0512836D11CE07F
:105A6000AD2823D0D62831D11BE040F2E132811A93
:105A7000904222D008DCB0F5E67F1BD0A0F2D920FE
:105A8000E0B1082822D114E0AE291BD0B1F5D87FAF
:105A90001CD116E00F2020801CE000BF14202080C5
:105AA00018E000BF2120208014E000BF32202080B9
:105AB00010E000BF642020800CE000BFC8202080E0
:105AC00008E000BF4FF4FA70208003E001250020B9
:105AD000208000BF00BF2846F8BD0000F8B506468C
